{
  "contractName": "Guide",
  "abi": [
    {
      "inputs": [
        {
          "internalType": "address[]",
          "name": "mainNodeAddress",
          "type": "address[]"
        },
        {
          "internalType": "string[]",
          "name": "institutionType",
          "type": "string[]"
        }
      ],
      "stateMutability": "nonpayable",
      "type": "constructor"
    },
    {
      "inputs": [
        {
          "internalType": "address",
          "name": "",
          "type": "address"
        },
        {
          "internalType": "uint256",
          "name": "",
          "type": "uint256"
        }
      ],
      "name": "certTagRequest",
      "outputs": [
        {
          "internalType": "int32",
          "name": "",
          "type": "int32"
        }
      ],
      "stateMutability": "view",
      "type": "function",
      "constant": true
    },
    {
      "inputs": [
        {
          "internalType": "int32",
          "name": "",
          "type": "int32"
        }
      ],
      "name": "certificates",
      "outputs": [
        {
          "internalType": "int32",
          "name": "certificateId",
          "type": "int32"
        },
        {
          "internalType": "int256",
          "name": "certType",
          "type": "int256"
        },
        {
          "internalType": "string",
          "name": "dateIssue",
          "type": "string"
        },
        {
          "internalType": "string",
          "name": "dateExpire",
          "type": "string"
        },
        {
          "internalType": "address",
          "name": "issuer",
          "type": "address"
        },
        {
          "internalType": "address",
          "name": "issedAgainst",
          "type": "address"
        },
        {
          "internalType": "bool",
          "name": "isPublic",
          "type": "bool"
        },
        {
          "internalType": "string",
          "name": "data",
          "type": "string"
        }
      ],
      "stateMutability": "view",
      "type": "function",
      "constant": true
    },
    {
      "inputs": [
        {
          "internalType": "address",
          "name": "",
          "type": "address"
        }
      ],
      "name": "institutionProfile",
      "outputs": [
        {
          "internalType": "bool",
          "name": "isVerified",
          "type": "bool"
        },
        {
          "internalType": "string",
          "name": "institutionType",
          "type": "string"
        },
        {
          "internalType": "bool",
          "name": "mainInstitution",
          "type": "bool"
        },
        {
          "internalType": "int256",
          "name": "typeInt",
          "type": "int256"
        },
        {
          "internalType": "address",
          "name": "verifier",
          "type": "address"
        }
      ],
      "stateMutability": "view",
      "type": "function",
      "constant": true
    },
    {
      "inputs": [
        {
          "internalType": "address",
          "name": "",
          "type": "address"
        }
      ],
      "name": "isInstitution",
      "outputs": [
        {
          "internalType": "bool",
          "name": "",
          "type": "bool"
        }
      ],
      "stateMutability": "view",
      "type": "function",
      "constant": true
    },
    {
      "inputs": [],
      "name": "owner",
      "outputs": [
        {
          "internalType": "address",
          "name": "",
          "type": "address"
        }
      ],
      "stateMutability": "view",
      "type": "function",
      "constant": true
    },
    {
      "inputs": [
        {
          "internalType": "address",
          "name": "",
          "type": "address"
        }
      ],
      "name": "userProfiles",
      "outputs": [
        {
          "internalType": "address",
          "name": "userAddress",
          "type": "address"
        },
        {
          "internalType": "string",
          "name": "userName",
          "type": "string"
        }
      ],
      "stateMutability": "view",
      "type": "function",
      "constant": true
    },
    {
      "inputs": [
        {
          "internalType": "address",
          "name": "addr",
          "type": "address"
        }
      ],
      "name": "getCertReqestList",
      "outputs": [
        {
          "internalType": "int32[]",
          "name": "",
          "type": "int32[]"
        }
      ],
      "stateMutability": "nonpayable",
      "type": "function"
    },
    {
      "inputs": [
        {
          "internalType": "string",
          "name": "name",
          "type": "string"
        }
      ],
      "name": "RegisterUser",
      "outputs": [
        {
          "components": [
            {
              "internalType": "address",
              "name": "userAddress",
              "type": "address"
            },
            {
              "internalType": "string",
              "name": "userName",
              "type": "string"
            },
            {
              "internalType": "int32[]",
              "name": "certifatesIds",
              "type": "int32[]"
            }
          ],
          "internalType": "struct Guide.User",
          "name": "",
          "type": "tuple"
        }
      ],
      "stateMutability": "nonpayable",
      "type": "function"
    },
    {
      "inputs": [
        {
          "internalType": "string",
          "name": "institutionType",
          "type": "string"
        }
      ],
      "name": "RegisterInstitution",
      "outputs": [
        {
          "internalType": "address",
          "name": "",
          "type": "address"
        }
      ],
      "stateMutability": "nonpayable",
      "type": "function"
    },
    {
      "inputs": [
        {
          "internalType": "int32",
          "name": "_certificateId",
          "type": "int32"
        },
        {
          "internalType": "address",
          "name": "_institutionAddress",
          "type": "address"
        }
      ],
      "name": "grantCertificateAccessInstitution",
      "outputs": [],
      "stateMutability": "nonpayable",
      "type": "function"
    },
    {
      "inputs": [
        {
          "internalType": "int32",
          "name": "ceri",
          "type": "int32"
        }
      ],
      "name": "getCertifDebug",
      "outputs": [
        {
          "components": [
            {
              "internalType": "int32",
              "name": "certificateId",
              "type": "int32"
            },
            {
              "internalType": "int256",
              "name": "certType",
              "type": "int256"
            },
            {
              "internalType": "string",
              "name": "dateIssue",
              "type": "string"
            },
            {
              "internalType": "string",
              "name": "dateExpire",
              "type": "string"
            },
            {
              "internalType": "address",
              "name": "issuer",
              "type": "address"
            },
            {
              "internalType": "address",
              "name": "issedAgainst",
              "type": "address"
            },
            {
              "internalType": "bool",
              "name": "isPublic",
              "type": "bool"
            },
            {
              "internalType": "string",
              "name": "data",
              "type": "string"
            },
            {
              "internalType": "address[]",
              "name": "taggedInstutions",
              "type": "address[]"
            },
            {
              "internalType": "bool[]",
              "name": "taggeInstitutionApproved",
              "type": "bool[]"
            },
            {
              "internalType": "address[]",
              "name": "accessGranted",
              "type": "address[]"
            }
          ],
          "internalType": "struct Guide.Certificate",
          "name": "cert",
          "type": "tuple"
        }
      ],
      "stateMutability": "view",
      "type": "function",
      "constant": true
    },
    {
      "inputs": [
        {
          "internalType": "int256",
          "name": "certType",
          "type": "int256"
        },
        {
          "internalType": "string",
          "name": "dateIssue",
          "type": "string"
        },
        {
          "internalType": "string",
          "name": "dateExpire",
          "type": "string"
        },
        {
          "internalType": "address",
          "name": "issedAgainst",
          "type": "address"
        },
        {
          "internalType": "address[]",
          "name": "taggedInstutions",
          "type": "address[]"
        },
        {
          "internalType": "bool",
          "name": "isPublic",
          "type": "bool"
        },
        {
          "internalType": "string",
          "name": "data",
          "type": "string"
        }
      ],
      "name": "publishCertificate",
      "outputs": [
        {
          "internalType": "int32",
          "name": "",
          "type": "int32"
        }
      ],
      "stateMutability": "nonpayable",
      "type": "function"
    },
    {
      "inputs": [
        {
          "internalType": "address",
          "name": "_institutionAddress",
          "type": "address"
        }
      ],
      "name": "fetchCertTagRequest",
      "outputs": [
        {
          "internalType": "int32[]",
          "name": "certIds",
          "type": "int32[]"
        }
      ],
      "stateMutability": "view",
      "type": "function",
      "constant": true
    },
    {
      "inputs": [
        {
          "internalType": "address",
          "name": "issedAgainst",
          "type": "address"
        }
      ],
      "name": "GrantVerification",
      "outputs": [],
      "stateMutability": "nonpayable",
      "type": "function"
    },
    {
      "inputs": [
        {
          "internalType": "address",
          "name": "account",
          "type": "address"
        }
      ],
      "name": "getRole",
      "outputs": [
        {
          "components": [
            {
              "internalType": "bool",
              "name": "isVerified",
              "type": "bool"
            },
            {
              "internalType": "string",
              "name": "institutionType",
              "type": "string"
            },
            {
              "internalType": "bool",
              "name": "mainInstitution",
              "type": "bool"
            },
            {
              "internalType": "int256",
              "name": "typeInt",
              "type": "int256"
            },
            {
              "internalType": "address",
              "name": "verifier",
              "type": "address"
            }
          ],
          "internalType": "struct Guide.Institution",
          "name": "",
          "type": "tuple"
        }
      ],
      "stateMutability": "view",
      "type": "function",
      "constant": true
    },
    {
      "inputs": [
        {
          "internalType": "int32",
          "name": "certificateId",
          "type": "int32"
        },
        {
          "internalType": "address",
          "name": "account",
          "type": "address"
        }
      ],
      "name": "grantCertificateaccess",
      "outputs": [],
      "stateMutability": "nonpayable",
      "type": "function"
    },
    {
      "inputs": [
        {
          "internalType": "int32",
          "name": "certIdCurrent",
          "type": "int32"
        }
      ],
      "name": "getCertificate",
      "outputs": [
        {
          "components": [
            {
              "internalType": "int32",
              "name": "certificateId",
              "type": "int32"
            },
            {
              "internalType": "int256",
              "name": "certType",
              "type": "int256"
            },
            {
              "internalType": "string",
              "name": "dateIssue",
              "type": "string"
            },
            {
              "internalType": "string",
              "name": "dateExpire",
              "type": "string"
            },
            {
              "internalType": "address",
              "name": "issuer",
              "type": "address"
            },
            {
              "internalType": "address",
              "name": "issedAgainst",
              "type": "address"
            },
            {
              "internalType": "bool",
              "name": "isPublic",
              "type": "bool"
            },
            {
              "internalType": "string",
              "name": "data",
              "type": "string"
            },
            {
              "internalType": "address[]",
              "name": "taggedInstutions",
              "type": "address[]"
            },
            {
              "internalType": "bool[]",
              "name": "taggeInstitutionApproved",
              "type": "bool[]"
            },
            {
              "internalType": "address[]",
              "name": "accessGranted",
              "type": "address[]"
            }
          ],
          "internalType": "struct Guide.Certificate",
          "name": "",
          "type": "tuple"
        }
      ],
      "stateMutability": "view",
      "type": "function",
      "constant": true
    },
    {
      "inputs": [
        {
          "internalType": "int32",
          "name": "certIdCurrent",
          "type": "int32"
        }
      ],
      "name": "toggleisPublic",
      "outputs": [],
      "stateMutability": "nonpayable",
      "type": "function"
    },
    {
      "inputs": [],
      "name": "getCurrentUserCertificateIDs",
      "outputs": [
        {
          "internalType": "int32[]",
          "name": "",
          "type": "int32[]"
        }
      ],
      "stateMutability": "view",
      "type": "function",
      "constant": true
    },
    {
      "inputs": [
        {
          "internalType": "int32",
          "name": "certificateId",
          "type": "int32"
        },
        {
          "internalType": "address",
          "name": "institutionTagged",
          "type": "address"
        }
      ],
      "name": "approveCertificate",
      "outputs": [],
      "stateMutability": "nonpayable",
      "type": "function"
    },
    {
      "inputs": [],
      "name": "getCurrentUserAddress",
      "outputs": [
        {
          "internalType": "address",
          "name": "",
          "type": "address"
        }
      ],
      "stateMutability": "view",
      "type": "function",
      "constant": true
    }
  ],
  "bytecode": "0x60806040523480156200001157600080fd5b5060405162004b3338038062004b338339818101604052810190620000379190620008bc565b60008060146101000a81548163ffffffff021916908360030b63ffffffff160217905550336000806101000a81548173ffffffffffffffffffffffffffffffffffffffff021916908373ffffffffffffffffffffffffffffffffffffffff16021790555060005b82518110156200012b5762000117838281518110620000c257620000c162000941565b5b6020026020010151838381518110620000e057620000df62000941565b5b6020026020010151600160008054906101000a900473ffffffffffffffffffffffffffffffffffffffff166200013460201b60201c565b806200012390620009a9565b90506200009e565b50505062000a5a565b81156200029d5760006040518060a001604052806001151581526020018581526020016001151581526020016001815260200160008054906101000a900473ffffffffffffffffffffffffffffffffffffffff1673ffffffffffffffffffffffffffffffffffffffff16815250905080600260008773ffffffffffffffffffffffffffffffffffffffff1673ffffffffffffffffffffffffffffffffffffffff16815260200190815260200160002060008201518160000160006101000a81548160ff02191690831515021790555060208201518160010190805190602001906200022192919062000438565b5060408201518160020160006101000a81548160ff0219169083151502179055506060820151816003015560808201518160040160006101000a81548173ffffffffffffffffffffffffffffffffffffffff021916908373ffffffffffffffffffffffffffffffffffffffff16021790555090505050620003da565b60006040518060a00160405280600115158152602001858152602001600015158152602001600181526020018373ffffffffffffffffffffffffffffffffffffffff16815250905080600260008773ffffffffffffffffffffffffffffffffffffffff1673ffffffffffffffffffffffffffffffffffffffff16815260200190815260200160002060008201518160000160006101000a81548160ff02191690831515021790555060208201518160010190805190602001906200036392919062000438565b5060408201518160020160006101000a81548160ff0219169083151502179055506060820151816003015560808201518160040160006101000a81548173ffffffffffffffffffffffffffffffffffffffff021916908373ffffffffffffffffffffffffffffffffffffffff160217905550905050505b6001600460008673ffffffffffffffffffffffffffffffffffffffff1673ffffffffffffffffffffffffffffffffffffffff16815260200190815260200160002060006101000a81548160ff02191690831515021790555050505050565b828054620004469062000a25565b90600052602060002090601f0160209004810192826200046a5760008555620004b6565b82601f106200048557805160ff1916838001178555620004b6565b82800160010185558215620004b6579182015b82811115620004b557825182559160200191906001019062000498565b5b509050620004c59190620004c9565b5090565b5b80821115620004e4576000816000905550600101620004ca565b5090565b6000604051905090565b600080fd5b600080fd5b600080fd5b6000601f19601f8301169050919050565b7f4e487b7100000000000000000000000000000000000000000000000000000000600052604160045260246000fd5b6200054c8262000501565b810181811067ffffffffffffffff821117156200056e576200056d62000512565b5b80604052505050565b600062000583620004e8565b905062000591828262000541565b919050565b600067ffffffffffffffff821115620005b457620005b362000512565b5b602082029050602081019050919050565b600080fd5b600073ffffffffffffffffffffffffffffffffffffffff82169050919050565b6000620005f782620005ca565b9050919050565b6200060981620005ea565b81146200061557600080fd5b50565b6000815190506200062981620005fe565b92915050565b600062000646620006408462000596565b62000577565b905080838252602082019050602084028301858111156200066c576200066b620005c5565b5b835b8181101562000699578062000684888262000618565b8452602084019350506020810190506200066e565b5050509392505050565b600082601f830112620006bb57620006ba620004fc565b5b8151620006cd8482602086016200062f565b91505092915050565b600067ffffffffffffffff821115620006f457620006f362000512565b5b602082029050602081019050919050565b600080fd5b600067ffffffffffffffff82111562000728576200072762000512565b5b620007338262000501565b9050602081019050919050565b60005b838110156200076057808201518184015260208101905062000743565b8381111562000770576000848401525b50505050565b60006200078d62000787846200070a565b62000577565b905082815260208101848484011115620007ac57620007ab62000705565b5b620007b984828562000740565b509392505050565b600082601f830112620007d957620007d8620004fc565b5b8151620007eb84826020860162000776565b91505092915050565b60006200080b6200080584620006d6565b62000577565b90508083825260208201905060208402830185811115620008315762000830620005c5565b5b835b818110156200087f57805167ffffffffffffffff8111156200085a5762000859620004fc565b5b808601620008698982620007c1565b8552602085019450505060208101905062000833565b5050509392505050565b600082601f830112620008a157620008a0620004fc565b5b8151620008b3848260208601620007f4565b91505092915050565b60008060408385031215620008d657620008d5620004f2565b5b600083015167ffffffffffffffff811115620008f757620008f6620004f7565b5b6200090585828601620006a3565b925050602083015167ffffffffffffffff811115620009295762000928620004f7565b5b620009378582860162000889565b9150509250929050565b7f4e487b7100000000000000000000000000000000000000000000000000000000600052603260045260246000fd5b7f4e487b7100000000000000000000000000000000000000000000000000000000600052601160045260246000fd5b6000819050919050565b6000620009b6826200099f565b91507fffffffffffffffffffffffffffffffffffffffffffffffffffffffffffffffff8203620009eb57620009ea62000970565b5b600182019050919050565b7f4e487b7100000000000000000000000000000000000000000000000000000000600052602260045260246000fd5b6000600282049050600182168062000a3e57607f821691505b60208210810362000a545762000a53620009f6565b5b50919050565b6140c98062000a6a6000396000f3fe608060405234801561001057600080fd5b50600436106101375760003560e01c80636ff37c85116100b8578063b2c4c52f1161007c578063b2c4c52f1461039d578063c0cf2af6146103bb578063cd58b0b5146103eb578063d90bd6b014610422578063e926e5401461043e578063e98a73b41461046e57610137565b80636ff37c85146102e55780637d0a7b2f146103155780638da5cb5b1461033157806396bee6031461034f5780639f4900e01461036d57610137565b8063332d56d7116100ff578063332d56d71461021c5780633b03d1e81461024d578063442767331461026957806348c415ec146102995780635e64f86a146102c957610137565b80630331df071461013c5780630d849d121461016c5780630f229e581461019c57806324986631146101cc578063314e667314610200575b600080fd5b610156600480360381019061015191906130f0565b61049e565b6040516101639190613138565b60405180910390f35b610186600480360381019061018191906130f0565b6104be565b604051610193919061321e565b60405180910390f35b6101b660048036038101906101b1919061326c565b61057b565b6040516101c391906135d9565b60405180910390f35b6101e660048036038101906101e191906130f0565b6109ec565b6040516101f7959493929190613663565b60405180910390f35b61021a600480360381019061021591906130f0565b610ae4565b005b610236600480360381019061023191906130f0565b610c45565b6040516102449291906136bd565b60405180910390f35b610267600480360381019061026291906136ed565b610d11565b005b610283600480360381019061027e91906130f0565b610ec7565b60405161029091906137a3565b60405180910390f35b6102b360048036038101906102ae91906138fa565b611048565b6040516102c09190613a09565b60405180910390f35b6102e360048036038101906102de91906136ed565b6112ff565b005b6102ff60048036038101906102fa91906130f0565b61142e565b60405161030c919061321e565b60405180910390f35b61032f600480360381019061032a91906136ed565b6114eb565b005b610339611616565b6040516103469190613a2b565b60405180910390f35b61035761163a565b604051610364919061321e565b60405180910390f35b610387600480360381019061038291906138fa565b6116f8565b6040516103949190613a2b565b60405180910390f35b6103a561179f565b6040516103b29190613a2b565b60405180910390f35b6103d560048036038101906103d0919061326c565b6117a7565b6040516103e291906135d9565b60405180910390f35b6104056004803603810190610400919061326c565b6121c1565b604051610419989796959493929190613a55565b60405180910390f35b61043c6004803603810190610437919061326c565b6123fb565b005b61045860048036038101906104539190613c08565b61250a565b6040516104659190613d1a565b60405180910390f35b61048860048036038101906104839190613d6b565b6129ae565b6040516104959190613d1a565b60405180910390f35b60046020528060005260406000206000915054906101000a900460ff1681565b6060600560008373ffffffffffffffffffffffffffffffffffffffff1673ffffffffffffffffffffffffffffffffffffffff16815260200190815260200160002080548060200260200160405190810160405280929190818152602001828054801561056f57602002820191906000526020600020906000905b82829054906101000a900460030b60030b815260200190600401906020826003010492830192600103820291508084116105385790505b50505050509050919050565b610583612dbc565b600360008360030b60030b8152602001908152602001600020604051806101600160405290816000820160009054906101000a900460030b60030b60030b8152602001600182015481526020016002820180546105df90613dda565b80601f016020809104026020016040519081016040528092919081815260200182805461060b90613dda565b80156106585780601f1061062d57610100808354040283529160200191610658565b820191906000526020600020905b81548152906001019060200180831161063b57829003601f168201915b5050505050815260200160038201805461067190613dda565b80601f016020809104026020016040519081016040528092919081815260200182805461069d90613dda565b80156106ea5780601f106106bf576101008083540402835291602001916106ea565b820191906000526020600020905b8154815290600101906020018083116106cd57829003601f168201915b505050505081526020016004820160009054906101000a900473ffffffffffffffffffffffffffffffffffffffff1673ffffffffffffffffffffffffffffffffffffffff1673ffffffffffffffffffffffffffffffffffffffff1681526020016005820160009054906101000a900473ffffffffffffffffffffffffffffffffffffffff1673ffffffffffffffffffffffffffffffffffffffff1673ffffffffffffffffffffffffffffffffffffffff1681526020016005820160149054906101000a900460ff161515151581526020016006820180546107ca90613dda565b80601f01602080910402602001604051908101604052809291908181526020018280546107f690613dda565b80156108435780601f1061081857610100808354040283529160200191610843565b820191906000526020600020905b81548152906001019060200180831161082657829003601f168201915b50505050508152602001600782018054806020026020016040519081016040528092919081815260200182805480156108d157602002820191906000526020600020905b8160009054906101000a900473ffffffffffffffffffffffffffffffffffffffff1673ffffffffffffffffffffffffffffffffffffffff1681526020019060010190808311610887575b505050505081526020016008820180548060200260200160405190810160405280929190818152602001828054801561094e57602002820191906000526020600020906000905b82829054906101000a900460ff161515815260200190600101906020826000010492830192600103820291508084116109185790505b50505050508152602001600982018054806020026020016040519081016040528092919081815260200182805480156109dc57602002820191906000526020600020905b8160009054906101000a900473ffffffffffffffffffffffffffffffffffffffff1673ffffffffffffffffffffffffffffffffffffffff1681526020019060010190808311610992575b5050505050815250509050919050565b60026020528060005260406000206000915090508060000160009054906101000a900460ff1690806001018054610a2290613dda565b80601f0160208091040260200160405190810160405280929190818152602001828054610a4e90613dda565b8015610a9b5780601f10610a7057610100808354040283529160200191610a9b565b820191906000526020600020905b815481529060010190602001808311610a7e57829003601f168201915b5050505050908060020160009054906101000a900460ff16908060030154908060040160009054906101000a900473ffffffffffffffffffffffffffffffffffffffff16905085565b336000600260008373ffffffffffffffffffffffffffffffffffffffff1673ffffffffffffffffffffffffffffffffffffffff1681526020019081526020016000206003015413610b6a576040517f08c379a0000000000000000000000000000000000000000000000000000000008152600401610b6190613e7d565b60405180910390fd5b610c4182600260008573ffffffffffffffffffffffffffffffffffffffff1673ffffffffffffffffffffffffffffffffffffffff1681526020019081526020016000206001018054610bbb90613dda565b80601f0160208091040260200160405190810160405280929190818152602001828054610be790613dda565b8015610c345780601f10610c0957610100808354040283529160200191610c34565b820191906000526020600020905b815481529060010190602001808311610c1757829003601f168201915b50505050506000336129f4565b5050565b60016020528060005260406000206000915090508060000160009054906101000a900473ffffffffffffffffffffffffffffffffffffffff1690806001018054610c8e90613dda565b80601f0160208091040260200160405190810160405280929190818152602001828054610cba90613dda565b8015610d075780601f10610cdc57610100808354040283529160200191610d07565b820191906000526020600020905b815481529060010190602001808311610cea57829003601f168201915b5050505050905082565b81338073ffffffffffffffffffffffffffffffffffffffff16600360008460030b60030b815260200190815260200160002060050160009054906101000a900473ffffffffffffffffffffffffffffffffffffffff1673ffffffffffffffffffffffffffffffffffffffff1614610dbd576040517f08c379a0000000000000000000000000000000000000000000000000000000008152600401610db490613f0f565b60405180910390fd5b826000600260008373ffffffffffffffffffffffffffffffffffffffff1673ffffffffffffffffffffffffffffffffffffffff1681526020019081526020016000206003015413610e43576040517f08c379a0000000000000000000000000000000000000000000000000000000008152600401610e3a90613e7d565b60405180910390fd5b600360008660030b60030b8152602001908152602001600020600901849080600181540180825580915050600190039060005260206000200160009091909190916101000a81548173ffffffffffffffffffffffffffffffffffffffff021916908373ffffffffffffffffffffffffffffffffffffffff1602179055505050505050565b610ecf612e47565b600260008373ffffffffffffffffffffffffffffffffffffffff1673ffffffffffffffffffffffffffffffffffffffff1681526020019081526020016000206040518060a00160405290816000820160009054906101000a900460ff16151515158152602001600182018054610f4490613dda565b80601f0160208091040260200160405190810160405280929190818152602001828054610f7090613dda565b8015610fbd5780601f10610f9257610100808354040283529160200191610fbd565b820191906000526020600020905b815481529060010190602001808311610fa057829003601f168201915b505050505081526020016002820160009054906101000a900460ff16151515158152602001600382015481526020016004820160009054906101000a900473ffffffffffffffffffffffffffffffffffffffff1673ffffffffffffffffffffffffffffffffffffffff1673ffffffffffffffffffffffffffffffffffffffff16815250509050919050565b611050612e90565b6000600160003373ffffffffffffffffffffffffffffffffffffffff1673ffffffffffffffffffffffffffffffffffffffff1681526020019081526020016000209050338160000160006101000a81548173ffffffffffffffffffffffffffffffffffffffff021916908373ffffffffffffffffffffffffffffffffffffffff160217905550828160010190805190602001906110ee929190612ec7565b506000600460003373ffffffffffffffffffffffffffffffffffffffff1673ffffffffffffffffffffffffffffffffffffffff16815260200190815260200160002060006101000a81548160ff021916908315150217905550600160003373ffffffffffffffffffffffffffffffffffffffff1673ffffffffffffffffffffffffffffffffffffffff1681526020019081526020016000206040518060600160405290816000820160009054906101000a900473ffffffffffffffffffffffffffffffffffffffff1673ffffffffffffffffffffffffffffffffffffffff1673ffffffffffffffffffffffffffffffffffffffff1681526020016001820180546111f790613dda565b80601f016020809104026020016040519081016040528092919081815260200182805461122390613dda565b80156112705780601f1061124557610100808354040283529160200191611270565b820191906000526020600020905b81548152906001019060200180831161125357829003601f168201915b50505050508152602001600282018054806020026020016040519081016040528092919081815260200182805480156112ee57602002820191906000526020600020906000905b82829054906101000a900460030b60030b815260200190600401906020826003010492830192600103820291508084116112b75790505b505050505081525050915050919050565b81338073ffffffffffffffffffffffffffffffffffffffff16600360008460030b60030b815260200190815260200160002060050160009054906101000a900473ffffffffffffffffffffffffffffffffffffffff1673ffffffffffffffffffffffffffffffffffffffff16146113ab576040517f08c379a00000000000000000000000000000000000000000000000000000000081526004016113a290613f0f565b60405180910390fd5b600360008560030b60030b8152602001908152602001600020600901839080600181540180825580915050600190039060005260206000200160009091909190916101000a81548173ffffffffffffffffffffffffffffffffffffffff021916908373ffffffffffffffffffffffffffffffffffffffff16021790555050505050565b6060600560008373ffffffffffffffffffffffffffffffffffffffff1673ffffffffffffffffffffffffffffffffffffffff1681526020019081526020016000208054806020026020016040519081016040528092919081815260200182805480156114df57602002820191906000526020600020906000905b82829054906101000a900460030b60030b815260200190600401906020826003010492830192600103820291508084116114a85790505b50505050509050919050565b60005b600360008460030b60030b815260200190815260200160002060070180549050811015611610578173ffffffffffffffffffffffffffffffffffffffff16600360008560030b60030b8152602001908152602001600020600701828154811061155a57611559613f2f565b5b9060005260206000200160009054906101000a900473ffffffffffffffffffffffffffffffffffffffff1673ffffffffffffffffffffffffffffffffffffffff16036115ff576001600360008560030b60030b815260200190815260200160002060080182815481106115d0576115cf613f2f565b5b90600052602060002090602091828204019190066101000a81548160ff02191690831515021790555050611612565b8061160990613f8d565b90506114ee565b505b5050565b60008054906101000a900473ffffffffffffffffffffffffffffffffffffffff1681565b6060600160003373ffffffffffffffffffffffffffffffffffffffff1673ffffffffffffffffffffffffffffffffffffffff1681526020019081526020016000206002018054806020026020016040519081016040528092919081815260200182805480156116ee57602002820191906000526020600020906000905b82829054906101000a900460030b60030b815260200190600401906020826003010492830192600103820291508084116116b75790505b5050505050905090565b600080600260003373ffffffffffffffffffffffffffffffffffffffff1673ffffffffffffffffffffffffffffffffffffffff168152602001908152602001600020905060008160000160006101000a81548160ff02191690831515021790555082816001019080519060200190611771929190612ec7565b5060008160020160006101000a81548160ff0219169083151502179055506000816003018190555050919050565b600033905090565b6117af612dbc565b600360008360030b60030b815260200190815260200160002060050160149054906101000a900460ff1615611c4757600360008360030b60030b8152602001908152602001600020604051806101600160405290816000820160009054906101000a900460030b60030b60030b81526020016001820154815260200160028201805461183a90613dda565b80601f016020809104026020016040519081016040528092919081815260200182805461186690613dda565b80156118b35780601f10611888576101008083540402835291602001916118b3565b820191906000526020600020905b81548152906001019060200180831161189657829003601f168201915b505050505081526020016003820180546118cc90613dda565b80601f01602080910402602001604051908101604052809291908181526020018280546118f890613dda565b80156119455780601f1061191a57610100808354040283529160200191611945565b820191906000526020600020905b81548152906001019060200180831161192857829003601f168201915b505050505081526020016004820160009054906101000a900473ffffffffffffffffffffffffffffffffffffffff1673ffffffffffffffffffffffffffffffffffffffff1673ffffffffffffffffffffffffffffffffffffffff1681526020016005820160009054906101000a900473ffffffffffffffffffffffffffffffffffffffff1673ffffffffffffffffffffffffffffffffffffffff1673ffffffffffffffffffffffffffffffffffffffff1681526020016005820160149054906101000a900460ff16151515158152602001600682018054611a2590613dda565b80601f0160208091040260200160405190810160405280929190818152602001828054611a5190613dda565b8015611a9e5780601f10611a7357610100808354040283529160200191611a9e565b820191906000526020600020905b815481529060010190602001808311611a8157829003601f168201915b5050505050815260200160078201805480602002602001604051908101604052809291908181526020018280548015611b2c57602002820191906000526020600020905b8160009054906101000a900473ffffffffffffffffffffffffffffffffffffffff1673ffffffffffffffffffffffffffffffffffffffff1681526020019060010190808311611ae2575b5050505050815260200160088201805480602002602001604051908101604052809291908181526020018280548015611ba957602002820191906000526020600020906000905b82829054906101000a900460ff16151581526020019060010190602082600001049283019260010382029150808411611b735790505b5050505050815260200160098201805480602002602001604051908101604052809291908181526020018280548015611c3757602002820191906000526020600020905b8160009054906101000a900473ffffffffffffffffffffffffffffffffffffffff1673ffffffffffffffffffffffffffffffffffffffff1681526020019060010190808311611bed575b50505050508152505090506121bc565b60005b600360008460030b60030b815260200190815260200160002060090180549050811015612179573373ffffffffffffffffffffffffffffffffffffffff16600360008560030b60030b81526020019081526020016000206009018281548110611cb657611cb5613f2f565b5b9060005260206000200160009054906101000a900473ffffffffffffffffffffffffffffffffffffffff1673ffffffffffffffffffffffffffffffffffffffff160361216657600360008460030b60030b8152602001908152602001600020604051806101600160405290816000820160009054906101000a900460030b60030b60030b815260200160018201548152602001600282018054611d5890613dda565b80601f0160208091040260200160405190810160405280929190818152602001828054611d8490613dda565b8015611dd15780601f10611da657610100808354040283529160200191611dd1565b820191906000526020600020905b815481529060010190602001808311611db457829003601f168201915b50505050508152602001600382018054611dea90613dda565b80601f0160208091040260200160405190810160405280929190818152602001828054611e1690613dda565b8015611e635780601f10611e3857610100808354040283529160200191611e63565b820191906000526020600020905b815481529060010190602001808311611e4657829003601f168201915b505050505081526020016004820160009054906101000a900473ffffffffffffffffffffffffffffffffffffffff1673ffffffffffffffffffffffffffffffffffffffff1673ffffffffffffffffffffffffffffffffffffffff1681526020016005820160009054906101000a900473ffffffffffffffffffffffffffffffffffffffff1673ffffffffffffffffffffffffffffffffffffffff1673ffffffffffffffffffffffffffffffffffffffff1681526020016005820160149054906101000a900460ff16151515158152602001600682018054611f4390613dda565b80601f0160208091040260200160405190810160405280929190818152602001828054611f6f90613dda565b8015611fbc5780601f10611f9157610100808354040283529160200191611fbc565b820191906000526020600020905b815481529060010190602001808311611f9f57829003601f168201915b505050505081526020016007820180548060200260200160405190810160405280929190818152602001828054801561204a57602002820191906000526020600020905b8160009054906101000a900473ffffffffffffffffffffffffffffffffffffffff1673ffffffffffffffffffffffffffffffffffffffff1681526020019060010190808311612000575b50505050508152602001600882018054806020026020016040519081016040528092919081815260200182805480156120c757602002820191906000526020600020906000905b82829054906101000a900460ff161515815260200190600101906020826000010492830192600103820291508084116120915790505b505050505081526020016009820180548060200260200160405190810160405280929190818152602001828054801561215557602002820191906000526020600020905b8160009054906101000a900473ffffffffffffffffffffffffffffffffffffffff1673ffffffffffffffffffffffffffffffffffffffff168152602001906001019080831161210b575b5050505050815250509150506121bc565b808061217190613f8d565b915050611c4a565b5060006121bb576040517f08c379a00000000000000000000000000000000000000000000000000000000081526004016121b290614047565b60405180910390fd5b5b919050565b60036020528060005260406000206000915090508060000160009054906101000a900460030b908060010154908060020180546121fd90613dda565b80601f016020809104026020016040519081016040528092919081815260200182805461222990613dda565b80156122765780601f1061224b57610100808354040283529160200191612276565b820191906000526020600020905b81548152906001019060200180831161225957829003601f168201915b50505050509080600301805461228b90613dda565b80601f01602080910402602001604051908101604052809291908181526020018280546122b790613dda565b80156123045780601f106122d957610100808354040283529160200191612304565b820191906000526020600020905b8154815290600101906020018083116122e757829003601f168201915b5050505050908060040160009054906101000a900473ffffffffffffffffffffffffffffffffffffffff16908060050160009054906101000a900473ffffffffffffffffffffffffffffffffffffffff16908060050160149054906101000a900460ff169080600601805461237890613dda565b80601f01602080910402602001604051908101604052809291908181526020018280546123a490613dda565b80156123f15780601f106123c6576101008083540402835291602001916123f1565b820191906000526020600020905b8154815290600101906020018083116123d457829003601f168201915b5050505050905088565b80338073ffffffffffffffffffffffffffffffffffffffff16600360008460030b60030b815260200190815260200160002060050160009054906101000a900473ffffffffffffffffffffffffffffffffffffffff1673ffffffffffffffffffffffffffffffffffffffff16146124a7576040517f08c379a000000000000000000000000000000000000000000000000000000000815260040161249e90613f0f565b60405180910390fd5b600360008460030b60030b815260200190815260200160002060050160149054906101000a900460ff1615600360008560030b60030b815260200190815260200160002060050160146101000a81548160ff021916908315150217905550505050565b600080601481819054906101000a900460030b8092919061252a90614067565b91906101000a81548163ffffffff021916908360030b63ffffffff160217905550506000600360008060149054906101000a900460030b60030b60030b81526020019081526020016000209050600060149054906101000a900460030b8160000160006101000a81548163ffffffff021916908360030b63ffffffff160217905550888160010181905550878160020190805190602001906125cd929190612ec7565b50868160030190805190602001906125e6929190612ec7565b50338160040160006101000a81548173ffffffffffffffffffffffffffffffffffffffff021916908373ffffffffffffffffffffffffffffffffffffffff160217905550858160050160006101000a81548173ffffffffffffffffffffffffffffffffffffffff021916908373ffffffffffffffffffffffffffffffffffffffff16021790555084816007019080519060200190612685929190612f4d565b50838160050160146101000a81548160ff02191690831515021790555060405180604001604052803373ffffffffffffffffffffffffffffffffffffffff1673ffffffffffffffffffffffffffffffffffffffff1681526020018773ffffffffffffffffffffffffffffffffffffffff1673ffffffffffffffffffffffffffffffffffffffff1681525081600901906002612721929190612fd7565b508281600601908051906020019061273a929190612ec7565b5060005b8551811015612839573373ffffffffffffffffffffffffffffffffffffffff1686828151811061277157612770613f2f565b5b602002602001015173ffffffffffffffffffffffffffffffffffffffff16036127e05781600801600190806001815401808255809150506001900390600052602060002090602091828204019190069091909190916101000a81548160ff021916908315150217905550612828565b81600801600090806001815401808255809150506001900390600052602060002090602091828204019190069091909190916101000a81548160ff0219169083151502179055505b8061283290613f8d565b905061273e565b5060005b85518110156128d6578160090186828151811061285d5761285c613f2f565b5b60200260200101519080600181540180825580915050600190039060005260206000200160009091909190916101000a81548173ffffffffffffffffffffffffffffffffffffffff021916908373ffffffffffffffffffffffffffffffffffffffff160217905550806128cf90613f8d565b905061283d565b50600160008773ffffffffffffffffffffffffffffffffffffffff1673ffffffffffffffffffffffffffffffffffffffff168152602001908152602001600020600201600060149054906101000a900460030b90806001815401808255809150506001900390600052602060002090600891828204019190066004029091909190916101000a81548163ffffffff021916908360030b63ffffffff160217905550612990600060149054906101000a900460030b86612cf2565b600060149054906101000a900460030b915050979650505050505050565b600560205281600052604060002081815481106129ca57600080fd5b9060005260206000209060089182820401919006600402915091509054906101000a900460030b81565b8115612b595760006040518060a001604052806001151581526020018581526020016001151581526020016001815260200160008054906101000a900473ffffffffffffffffffffffffffffffffffffffff1673ffffffffffffffffffffffffffffffffffffffff16815250905080600260008773ffffffffffffffffffffffffffffffffffffffff1673ffffffffffffffffffffffffffffffffffffffff16815260200190815260200160002060008201518160000160006101000a81548160ff0219169083151502179055506020820151816001019080519060200190612ade929190612ec7565b5060408201518160020160006101000a81548160ff0219169083151502179055506060820151816003015560808201518160040160006101000a81548173ffffffffffffffffffffffffffffffffffffffff021916908373ffffffffffffffffffffffffffffffffffffffff16021790555090505050612c94565b60006040518060a00160405280600115158152602001858152602001600015158152602001600181526020018373ffffffffffffffffffffffffffffffffffffffff16815250905080600260008773ffffffffffffffffffffffffffffffffffffffff1673ffffffffffffffffffffffffffffffffffffffff16815260200190815260200160002060008201518160000160006101000a81548160ff0219169083151502179055506020820151816001019080519060200190612c1d929190612ec7565b5060408201518160020160006101000a81548160ff0219169083151502179055506060820151816003015560808201518160040160006101000a81548173ffffffffffffffffffffffffffffffffffffffff021916908373ffffffffffffffffffffffffffffffffffffffff160217905550905050505b6001600460008673ffffffffffffffffffffffffffffffffffffffff1673ffffffffffffffffffffffffffffffffffffffff16815260200190815260200160002060006101000a81548160ff02191690831515021790555050505050565b60005b8151811015612db75760056000838381518110612d1557612d14613f2f565b5b602002602001015173ffffffffffffffffffffffffffffffffffffffff1673ffffffffffffffffffffffffffffffffffffffff1681526020019081526020016000208390806001815401808255809150506001900390600052602060002090600891828204019190066004029091909190916101000a81548163ffffffff021916908360030b63ffffffff16021790555080612db090613f8d565b9050612cf5565b505050565b604051806101600160405280600060030b8152602001600081526020016060815260200160608152602001600073ffffffffffffffffffffffffffffffffffffffff168152602001600073ffffffffffffffffffffffffffffffffffffffff168152602001600015158152602001606081526020016060815260200160608152602001606081525090565b6040518060a001604052806000151581526020016060815260200160001515815260200160008152602001600073ffffffffffffffffffffffffffffffffffffffff1681525090565b6040518060600160405280600073ffffffffffffffffffffffffffffffffffffffff16815260200160608152602001606081525090565b828054612ed390613dda565b90600052602060002090601f016020900481019282612ef55760008555612f3c565b82601f10612f0e57805160ff1916838001178555612f3c565b82800160010185558215612f3c579182015b82811115612f3b578251825591602001919060010190612f20565b5b509050612f499190613061565b5090565b828054828255906000526020600020908101928215612fc6579160200282015b82811115612fc55782518260006101000a81548173ffffffffffffffffffffffffffffffffffffffff021916908373ffffffffffffffffffffffffffffffffffffffff16021790555091602001919060010190612f6d565b5b509050612fd39190613061565b5090565b828054828255906000526020600020908101928215613050579160200282015b8281111561304f5782518260006101000a81548173ffffffffffffffffffffffffffffffffffffffff021916908373ffffffffffffffffffffffffffffffffffffffff16021790555091602001919060010190612ff7565b5b50905061305d9190613061565b5090565b5b8082111561307a576000816000905550600101613062565b5090565b6000604051905090565b600080fd5b600080fd5b600073ffffffffffffffffffffffffffffffffffffffff82169050919050565b60006130bd82613092565b9050919050565b6130cd816130b2565b81146130d857600080fd5b50565b6000813590506130ea816130c4565b92915050565b60006020828403121561310657613105613088565b5b6000613114848285016130db565b91505092915050565b60008115159050919050565b6131328161311d565b82525050565b600060208201905061314d6000830184613129565b92915050565b600081519050919050565b600082825260208201905092915050565b6000819050602082019050919050565b60008160030b9050919050565b6131958161317f565b82525050565b60006131a7838361318c565b60208301905092915050565b6000602082019050919050565b60006131cb82613153565b6131d5818561315e565b93506131e08361316f565b8060005b838110156132115781516131f8888261319b565b9750613203836131b3565b9250506001810190506131e4565b5085935050505092915050565b6000602082019050818103600083015261323881846131c0565b905092915050565b6132498161317f565b811461325457600080fd5b50565b60008135905061326681613240565b92915050565b60006020828403121561328257613281613088565b5b600061329084828501613257565b91505092915050565b6000819050919050565b6132ac81613299565b82525050565b600081519050919050565b600082825260208201905092915050565b60005b838110156132ec5780820151818401526020810190506132d1565b838111156132fb576000848401525b50505050565b6000601f19601f8301169050919050565b600061331d826132b2565b61332781856132bd565b93506133378185602086016132ce565b61334081613301565b840191505092915050565b613354816130b2565b82525050565b6133638161311d565b82525050565b600081519050919050565b600082825260208201905092915050565b6000819050602082019050919050565b60006133a1838361334b565b60208301905092915050565b6000602082019050919050565b60006133c582613369565b6133cf8185613374565b93506133da83613385565b8060005b8381101561340b5781516133f28882613395565b97506133fd836133ad565b9250506001810190506133de565b5085935050505092915050565b600081519050919050565b600082825260208201905092915050565b6000819050602082019050919050565b6000613450838361335a565b60208301905092915050565b6000602082019050919050565b600061347482613418565b61347e8185613423565b935061348983613434565b8060005b838110156134ba5781516134a18882613444565b97506134ac8361345c565b92505060018101905061348d565b5085935050505092915050565b6000610160830160008301516134e0600086018261318c565b5060208301516134f360208601826132a3565b506040830151848203604086015261350b8282613312565b915050606083015184820360608601526135258282613312565b915050608083015161353a608086018261334b565b5060a083015161354d60a086018261334b565b5060c083015161356060c086018261335a565b5060e083015184820360e08601526135788282613312565b91505061010083015184820361010086015261359482826133ba565b9150506101208301518482036101208601526135b08282613469565b9150506101408301518482036101408601526135cc82826133ba565b9150508091505092915050565b600060208201905081810360008301526135f381846134c7565b905092915050565b600082825260208201905092915050565b6000613617826132b2565b61362181856135fb565b93506136318185602086016132ce565b61363a81613301565b840191505092915050565b61364e81613299565b82525050565b61365d816130b2565b82525050565b600060a0820190506136786000830188613129565b818103602083015261368a818761360c565b90506136996040830186613129565b6136a66060830185613645565b6136b36080830184613654565b9695505050505050565b60006040820190506136d26000830185613654565b81810360208301526136e4818461360c565b90509392505050565b6000806040838503121561370457613703613088565b5b600061371285828601613257565b9250506020613723858286016130db565b9150509250929050565b600060a083016000830151613745600086018261335a565b506020830151848203602086015261375d8282613312565b9150506040830151613772604086018261335a565b50606083015161378560608601826132a3565b506080830151613798608086018261334b565b508091505092915050565b600060208201905081810360008301526137bd818461372d565b905092915050565b600080fd5b600080fd5b7f4e487b7100000000000000000000000000000000000000000000000000000000600052604160045260246000fd5b61380782613301565b810181811067ffffffffffffffff82111715613826576138256137cf565b5b80604052505050565b600061383961307e565b905061384582826137fe565b919050565b600067ffffffffffffffff821115613865576138646137cf565b5b61386e82613301565b9050602081019050919050565b82818337600083830152505050565b600061389d6138988461384a565b61382f565b9050828152602081018484840111156138b9576138b86137ca565b5b6138c484828561387b565b509392505050565b600082601f8301126138e1576138e06137c5565b5b81356138f184826020860161388a565b91505092915050565b6000602082840312156139105761390f613088565b5b600082013567ffffffffffffffff81111561392e5761392d61308d565b5b61393a848285016138cc565b91505092915050565b600082825260208201905092915050565b600061395f82613153565b6139698185613943565b93506139748361316f565b8060005b838110156139a557815161398c888261319b565b9750613997836131b3565b925050600181019050613978565b5085935050505092915050565b60006060830160008301516139ca600086018261334b565b50602083015184820360208601526139e28282613312565b915050604083015184820360408601526139fc8282613954565b9150508091505092915050565b60006020820190508181036000830152613a2381846139b2565b905092915050565b6000602082019050613a406000830184613654565b92915050565b613a4f8161317f565b82525050565b600061010082019050613a6b600083018b613a46565b613a78602083018a613645565b8181036040830152613a8a818961360c565b90508181036060830152613a9e818861360c565b9050613aad6080830187613654565b613aba60a0830186613654565b613ac760c0830185613129565b81810360e0830152613ad9818461360c565b90509998505050505050505050565b613af181613299565b8114613afc57600080fd5b50565b600081359050613b0e81613ae8565b92915050565b600067ffffffffffffffff821115613b2f57613b2e6137cf565b5b602082029050602081019050919050565b600080fd5b6000613b58613b5384613b14565b61382f565b90508083825260208201905060208402830185811115613b7b57613b7a613b40565b5b835b81811015613ba45780613b9088826130db565b845260208401935050602081019050613b7d565b5050509392505050565b600082601f830112613bc357613bc26137c5565b5b8135613bd3848260208601613b45565b91505092915050565b613be58161311d565b8114613bf057600080fd5b50565b600081359050613c0281613bdc565b92915050565b600080600080600080600060e0888a031215613c2757613c26613088565b5b6000613c358a828b01613aff565b975050602088013567ffffffffffffffff811115613c5657613c5561308d565b5b613c628a828b016138cc565b965050604088013567ffffffffffffffff811115613c8357613c8261308d565b5b613c8f8a828b016138cc565b9550506060613ca08a828b016130db565b945050608088013567ffffffffffffffff811115613cc157613cc061308d565b5b613ccd8a828b01613bae565b93505060a0613cde8a828b01613bf3565b92505060c088013567ffffffffffffffff811115613cff57613cfe61308d565b5b613d0b8a828b016138cc565b91505092959891949750929550565b6000602082019050613d2f6000830184613a46565b92915050565b6000819050919050565b613d4881613d35565b8114613d5357600080fd5b50565b600081359050613d6581613d3f565b92915050565b60008060408385031215613d8257613d81613088565b5b6000613d90858286016130db565b9250506020613da185828601613d56565b9150509250929050565b7f4e487b7100000000000000000000000000000000000000000000000000000000600052602260045260246000fd5b60006002820490506001821680613df257607f821691505b602082108103613e0557613e04613dab565b5b50919050565b7f4e6f742072657175657374656420766572696669636174696f6e206279204d6160008201527f696e4e6f64650000000000000000000000000000000000000000000000000000602082015250565b6000613e676026836135fb565b9150613e7282613e0b565b604082019050919050565b60006020820190508181036000830152613e9681613e5a565b9050919050565b7f596f7520617265206e6f7420746865206f776e6572206f66207468697320636560008201527f7274696669636174650000000000000000000000000000000000000000000000602082015250565b6000613ef96029836135fb565b9150613f0482613e9d565b604082019050919050565b60006020820190508181036000830152613f2881613eec565b9050919050565b7f4e487b7100000000000000000000000000000000000000000000000000000000600052603260045260246000fd5b7f4e487b7100000000000000000000000000000000000000000000000000000000600052601160045260246000fd5b6000613f9882613d35565b91507fffffffffffffffffffffffffffffffffffffffffffffffffffffffffffffffff8203613fca57613fc9613f5e565b5b600182019050919050565b7f596f7520646f206e6f7420686176652061636365737320746f2074686973206360008201527f6572746966696361746500000000000000000000000000000000000000000000602082015250565b6000614031602a836135fb565b915061403c82613fd5565b604082019050919050565b6000602082019050818103600083015261406081614024565b9050919050565b60006140728261317f565b9150637fffffff820361408857614087613f5e565b5b60018201905091905056fea2646970667358221220fe3ac2c4e97552ad14dc7e563f2ad6c8e8026cb308a281ce260900eefd937fc464736f6c634300080d0033",
  "immutableReferences": {},
  "source": "// SPDX-License-Identifier: MIT \r\npragma solidity >=0.7.0 <0.9.0;\r\n\r\ncontract Guide {\r\n\r\n    address public owner;\r\n    int32 certId;\r\n    // uint public last_completed_migration;\r\n\r\n    \r\n    struct User{\r\n\r\n        address userAddress;\r\n        string userName;\r\n        int32[] certifatesIds;\r\n    }\r\n\r\n    struct Certificate{        \r\n        int32 certificateId;\r\n        int certType;\r\n        string dateIssue;\r\n        string dateExpire;\r\n        address issuer;\r\n        address issedAgainst;\r\n       \r\n        bool isPublic;\r\n       \r\n        string data;\r\n         address[] taggedInstutions;\r\n        bool [] taggeInstitutionApproved;\r\n         address[] accessGranted;\r\n\r\n    }\r\n\r\n    struct Institution{    \r\n        bool isVerified;\r\n        string institutionType;\r\n        bool mainInstitution;\r\n        int typeInt;\r\n        address verifier;\r\n    }\r\n\r\n    mapping (address=>User) public userProfiles;\r\n    mapping(address=>Institution) public institutionProfile;  \r\n    mapping(int32=>Certificate) public certificates;  \r\n    mapping(address=>bool) public isInstitution;\r\n    \r\n    mapping(address => int32[]) public certTagRequest;         \r\n\r\n    constructor(address[] memory mainNodeAddress,string[] memory institutionType) public {\r\n        certId=0;\r\n        owner = msg.sender;\r\n      \r\n        for (uint256 i = 0; i < mainNodeAddress.length; ++i) {\r\n             _grantVerification(mainNodeAddress[i],institutionType[i],true,owner);\r\n        }\r\n    }\r\n\r\n\r\n// fetch certificate ids for verification requested certificates\r\n      function getCertReqestList(address addr) public returns(  int32[] memory){\r\n        return certTagRequest[addr];\r\n    }\r\n\r\n\r\n    // modifier to check if certificate is of the requester\r\n    modifier ownerOfCertificate(int32 _certificateId,address msgSender) {\r\n        require(certificates[_certificateId].issedAgainst == msgSender,\"You are not the owner of this certificate\");\r\n        _;\r\n    }\r\n    \r\n\r\n// modifier to restrict restrict institution only events    \r\n    modifier restrictInstitutionOnly(address _institutionAddress) {\r\n        require(\r\n            institutionProfile[_institutionAddress].typeInt >0,\r\n            \"Not requested verification by MainNode\"\r\n        );\r\n        _;\r\n    }\r\n    \r\n    // Register User profile with the system\r\n    function  RegisterUser(string memory name)public returns(User memory) {\r\n\r\n      User storage newUser = userProfiles[msg.sender];\r\n        newUser.userAddress = msg.sender;\r\n        newUser.userName = name; \r\n\r\n        isInstitution[msg.sender] = false; \r\n        \r\n        return userProfiles[msg.sender];\r\n\r\n    }\r\n\r\n\r\n    // Register Institution with address\r\n    // Institution not verified first\r\n    // Institution type is not main node\r\n    function  RegisterInstitution(string  memory institutionType)public returns(address) {\r\n\r\n      Institution storage newIns = institutionProfile[msg.sender];\r\n    \r\n        newIns.isVerified = false;\r\n        newIns.institutionType = institutionType;\r\n        newIns.mainInstitution = false;\r\n        newIns.typeInt = 0;\r\n        // newIns.verifier = ;\r\n  \r\n\r\n    }\r\n\r\n\r\n// give access to different institution to access certificate\r\n// add modifier to confirm its institution\r\nfunction grantCertificateAccessInstitution(int32 _certificateId,address _institutionAddress)public ownerOfCertificate(_certificateId,msg.sender)restrictInstitutionOnly(_institutionAddress){ \r\n    certificates[_certificateId].accessGranted.push(_institutionAddress);\r\n}\r\n\r\n\r\n\r\nfunction getCertifDebug(int32 ceri) public view returns(Certificate memory cert){\r\n    return certificates[ceri];\r\n}\r\n\r\n\r\n\r\n\r\n\r\n\r\n    // publish cer to mapping\r\n    // send requstt to tagged institutions\r\n    function publishCertificate(int certType,string memory dateIssue,string memory dateExpire,address issedAgainst,address[] memory taggedInstutions,bool isPublic,string memory data)  public returns(int32) {\r\n        // publishCertificate(121,34123,456,accounts[8],[],true,\"dam againsome shit here too\").send({from:accounts[0],gas:3000000}\r\n        // int32 certId=0;\r\n        certId++;\r\n\r\n        Certificate storage newCert = certificates[certId];\r\n        newCert.certificateId = certId;\r\n            newCert.certType = certType;\r\n            newCert.dateIssue = dateIssue;\r\n            newCert.dateExpire = dateExpire;\r\n            newCert.issuer = msg.sender;\r\n            newCert.issedAgainst = issedAgainst;\r\n            newCert.taggedInstutions = taggedInstutions;\r\n            newCert.isPublic = isPublic;\r\n            newCert.accessGranted = [msg.sender,issedAgainst];\r\n            newCert.data = data;\r\n            \r\n        //  making all approvals false\r\n        // TODO all false except institutionitself\r\n        for(uint256 i = 0; i < taggedInstutions.length; ++i){\r\n            if(taggedInstutions[i] == msg.sender){\r\n                newCert.taggeInstitutionApproved.push(true);\r\n                continue;\r\n            }\r\n            newCert.taggeInstitutionApproved.push(false);\r\n        }\r\n         for(uint256 i = 0; i < taggedInstutions.length; ++i){\r\n             newCert.accessGranted.push(taggedInstutions[i]);\r\n         }\r\n\r\n        userProfiles[issedAgainst].certifatesIds.push(certId);\r\n        requestCertTagVerification(certId,taggedInstutions);\r\n\r\n\r\n        // certificates[certId] = cert;\r\n        return certId;\r\n    }\r\n\r\n    // Requests Tagged Institutions verifies the certificates\r\n    function requestCertTagVerification(int32  requestedCertId,address[] memory instAddress) internal {\r\n        for (uint256 i = 0; i < instAddress.length; ++i) {\r\n            certTagRequest[instAddress[i]].push(requestedCertId);\r\n        }\r\n\r\n    }\r\n\r\n    // fetch all certificate verification request made to an institution\r\n    function fetchCertTagRequest(address _institutionAddress) public view returns(int32[] memory certIds){\r\n        return certTagRequest[_institutionAddress];\r\n    }\r\n   \r\n    function GrantVerification(address issedAgainst)external restrictInstitutionOnly(msg.sender){   \r\n\r\n        _grantVerification(issedAgainst,institutionProfile[issedAgainst].institutionType,false,msg.sender);\r\n       \r\n\r\n    }        \r\n\r\n    // verified a node as a main node\r\n    function _grantVerification(address  account, string memory role,bool firstNode,address issuer) internal{\r\n        \r\n    //  emit GrantRole(_role,_account);\r\n    if(firstNode){\r\n\r\n    Institution memory book2= Institution(true,role,true,1,owner);\r\n    institutionProfile[account]=book2;\r\n    }\r\n    else{\r\n        Institution memory book2= Institution(true,role,false,1,issuer);\r\n        institutionProfile[account]=book2;\r\n    }\r\n\r\n    isInstitution[account] = true;\r\n    }\r\n\r\n     function getRole(address account) public view returns (Institution memory){\r\n    \r\n        // return institutionProfile[account].isVerified? \"verified\" : \"not verified\";\r\n        return institutionProfile[account];\r\n\r\n    }\r\n\r\n    // access granting for a certificate\r\n    // grant access if the certificate is issued to the function caller \r\n    function grantCertificateaccess(int32 certificateId,address account) public ownerOfCertificate(certificateId,msg.sender){\r\n\r\n\r\n        certificates[certificateId].accessGranted.push(account);\r\n      \r\n    }\r\n    \r\n    // return certifactes if the certificate is given access to be viewed;\r\n    function getCertificate(int32 certIdCurrent) public  view returns (Certificate memory){\r\n\r\n        // !TODO create access control dont just return all certificates\r\n        // current implementation of looping and searching high on gas\r\n\r\n        // certificates[certId].accessGranted.push(msg.sender);\r\n        if(certificates[certIdCurrent].isPublic){\r\n            return certificates[certIdCurrent];\r\n        }\r\n        else\r\n        {  for (uint i; i < certificates[certIdCurrent].accessGranted.length; i++) {\r\n            if(certificates[certIdCurrent].accessGranted[i]==msg.sender){\r\n                return certificates[certIdCurrent];\r\n            }\r\n\r\n        }       \r\n        }\r\n         require(false,\"You do not have access to this certificate\");\r\n\r\n\r\n        // return certificates[certId];\r\n    }\r\n\r\n    // toggles the public status of a certificate\r\n    function toggleisPublic(int32 certIdCurrent) public ownerOfCertificate(certIdCurrent,msg.sender){\r\n        certificates[certIdCurrent].isPublic = !certificates[certIdCurrent].isPublic;\r\n    }\r\n\r\n    function getCurrentUserCertificateIDs() public view returns(int32[] memory){\r\n        return userProfiles[msg.sender].certifatesIds;    \r\n        }\r\n\r\n    // approveal of certificates by tagged institutions\r\n    // TODO add modifier to confirm its institution is the one who is approving\r\n    function approveCertificate(int32 certificateId,address institutionTagged) public {\r\n         for(uint256 i = 0; i < certificates[certificateId].taggedInstutions.length; ++i){\r\n             if(certificates[certificateId].taggedInstutions[i] == institutionTagged){\r\n                certificates[certificateId].taggeInstitutionApproved[i] = true;\r\n                return;\r\n             }\r\n\r\n         }\r\n    }\r\n    \r\n    modifier restrictedOwner() {\r\n        require(\r\n            msg.sender == owner,\r\n            \"This function is restricted to the contract's owner\"\r\n        );\r\n        _;\r\n    }\r\n    function getCurrentUserAddress() public view returns(address){\r\n        return msg.sender;\r\n    }\r\n\r\n    \r\n}\r\n",
  "sourcePath": "D:\\cp\\flutter\\blockChain\\finalYear\\guide\\contracts\\Guide.sol",
  "compiler": {
    "name": "solc",
    "version": "0.8.13+commit.abaa5c0e.Emscripten.clang"
  },
  "schemaVersion": "3.4.7",
  "updatedAt": "2022-05-26T05:36:52.314Z",
  "networkType": "ethereum",
  "devdoc": {
    "kind": "dev",
    "methods": {},
    "version": 1
  },
  "userdoc": {
    "kind": "user",
    "methods": {},
    "version": 1
  }
}