{
  "contractName": "Guide",
  "abi": [
    {
      "inputs": [
        {
          "internalType": "address[]",
          "name": "mainNodeAddress",
          "type": "address[]"
        },
        {
          "internalType": "string[]",
          "name": "institutionType",
          "type": "string[]"
        }
      ],
      "stateMutability": "nonpayable",
      "type": "constructor"
    },
    {
      "inputs": [
        {
          "internalType": "int32",
          "name": "",
          "type": "int32"
        }
      ],
      "name": "certificates",
      "outputs": [
        {
          "internalType": "int32",
          "name": "certificateId",
          "type": "int32"
        },
        {
          "internalType": "int256",
          "name": "certType",
          "type": "int256"
        },
        {
          "internalType": "int256",
          "name": "dateIssue",
          "type": "int256"
        },
        {
          "internalType": "int256",
          "name": "dateExpire",
          "type": "int256"
        },
        {
          "internalType": "address",
          "name": "issuer",
          "type": "address"
        },
        {
          "internalType": "address",
          "name": "issedAgainst",
          "type": "address"
        },
        {
          "internalType": "bool",
          "name": "isPublic",
          "type": "bool"
        },
        {
          "internalType": "string",
          "name": "data",
          "type": "string"
        }
      ],
      "stateMutability": "view",
      "type": "function",
      "constant": true
    },
    {
      "inputs": [
        {
          "internalType": "address",
          "name": "",
          "type": "address"
        }
      ],
      "name": "institutionProfile",
      "outputs": [
        {
          "internalType": "bool",
          "name": "isVerified",
          "type": "bool"
        },
        {
          "internalType": "string",
          "name": "institutionType",
          "type": "string"
        },
        {
          "internalType": "bool",
          "name": "mainInstitution",
          "type": "bool"
        },
        {
          "internalType": "int256",
          "name": "typeInt",
          "type": "int256"
        },
        {
          "internalType": "address",
          "name": "verifier",
          "type": "address"
        }
      ],
      "stateMutability": "view",
      "type": "function",
      "constant": true
    },
    {
      "inputs": [
        {
          "internalType": "address",
          "name": "",
          "type": "address"
        }
      ],
      "name": "isInstitution",
      "outputs": [
        {
          "internalType": "bool",
          "name": "",
          "type": "bool"
        }
      ],
      "stateMutability": "view",
      "type": "function",
      "constant": true
    },
    {
      "inputs": [],
      "name": "owner",
      "outputs": [
        {
          "internalType": "address",
          "name": "",
          "type": "address"
        }
      ],
      "stateMutability": "view",
      "type": "function",
      "constant": true
    },
    {
      "inputs": [
        {
          "internalType": "address",
          "name": "",
          "type": "address"
        }
      ],
      "name": "userProfiles",
      "outputs": [
        {
          "internalType": "address",
          "name": "userAddress",
          "type": "address"
        },
        {
          "internalType": "string",
          "name": "userName",
          "type": "string"
        }
      ],
      "stateMutability": "view",
      "type": "function",
      "constant": true
    },
    {
      "inputs": [
        {
          "internalType": "string",
          "name": "name",
          "type": "string"
        }
      ],
      "name": "RegisterUser",
      "outputs": [
        {
          "components": [
            {
              "internalType": "address",
              "name": "userAddress",
              "type": "address"
            },
            {
              "internalType": "string",
              "name": "userName",
              "type": "string"
            },
            {
              "internalType": "int32[]",
              "name": "certifatesIds",
              "type": "int32[]"
            }
          ],
          "internalType": "struct Guide.User",
          "name": "",
          "type": "tuple"
        }
      ],
      "stateMutability": "nonpayable",
      "type": "function"
    },
    {
      "inputs": [
        {
          "internalType": "string",
          "name": "institutionType",
          "type": "string"
        }
      ],
      "name": "RegisterInstitution",
      "outputs": [
        {
          "internalType": "address",
          "name": "",
          "type": "address"
        }
      ],
      "stateMutability": "nonpayable",
      "type": "function"
    },
    {
      "inputs": [
        {
          "internalType": "int32",
          "name": "_certificateId",
          "type": "int32"
        },
        {
          "internalType": "address",
          "name": "_institutionAddress",
          "type": "address"
        }
      ],
      "name": "grantCertificateAccessInstitution",
      "outputs": [],
      "stateMutability": "nonpayable",
      "type": "function"
    },
    {
      "inputs": [
        {
          "internalType": "int32",
          "name": "ceri",
          "type": "int32"
        }
      ],
      "name": "getCertifDebug",
      "outputs": [
        {
          "components": [
            {
              "internalType": "int32",
              "name": "certificateId",
              "type": "int32"
            },
            {
              "internalType": "int256",
              "name": "certType",
              "type": "int256"
            },
            {
              "internalType": "int256",
              "name": "dateIssue",
              "type": "int256"
            },
            {
              "internalType": "int256",
              "name": "dateExpire",
              "type": "int256"
            },
            {
              "internalType": "address",
              "name": "issuer",
              "type": "address"
            },
            {
              "internalType": "address",
              "name": "issedAgainst",
              "type": "address"
            },
            {
              "internalType": "bool",
              "name": "isPublic",
              "type": "bool"
            },
            {
              "internalType": "string",
              "name": "data",
              "type": "string"
            },
            {
              "internalType": "address[]",
              "name": "taggedInstutions",
              "type": "address[]"
            },
            {
              "internalType": "bool[]",
              "name": "taggeInstitutionApproved",
              "type": "bool[]"
            },
            {
              "internalType": "address[]",
              "name": "accessGranted",
              "type": "address[]"
            }
          ],
          "internalType": "struct Guide.Certificate",
          "name": "cert",
          "type": "tuple"
        }
      ],
      "stateMutability": "view",
      "type": "function",
      "constant": true
    },
    {
      "inputs": [
        {
          "internalType": "int256",
          "name": "certType",
          "type": "int256"
        },
        {
          "internalType": "int256",
          "name": "dateIssue",
          "type": "int256"
        },
        {
          "internalType": "int256",
          "name": "dateExpire",
          "type": "int256"
        },
        {
          "internalType": "address",
          "name": "issedAgainst",
          "type": "address"
        },
        {
          "internalType": "address[]",
          "name": "taggedInstutions",
          "type": "address[]"
        },
        {
          "internalType": "bool",
          "name": "isPublic",
          "type": "bool"
        },
        {
          "internalType": "string",
          "name": "data",
          "type": "string"
        }
      ],
      "name": "publishCertificate",
      "outputs": [
        {
          "internalType": "int32",
          "name": "",
          "type": "int32"
        }
      ],
      "stateMutability": "nonpayable",
      "type": "function"
    },
    {
      "inputs": [
        {
          "internalType": "address",
          "name": "_institutionAddress",
          "type": "address"
        }
      ],
      "name": "fetchCertTagRequest",
      "outputs": [
        {
          "internalType": "int32[]",
          "name": "certIds",
          "type": "int32[]"
        }
      ],
      "stateMutability": "view",
      "type": "function",
      "constant": true
    },
    {
      "inputs": [
        {
          "internalType": "address",
          "name": "issedAgainst",
          "type": "address"
        }
      ],
      "name": "GrantVerification",
      "outputs": [],
      "stateMutability": "nonpayable",
      "type": "function"
    },
    {
      "inputs": [
        {
          "internalType": "address",
          "name": "account",
          "type": "address"
        }
      ],
      "name": "getRole",
      "outputs": [
        {
          "components": [
            {
              "internalType": "bool",
              "name": "isVerified",
              "type": "bool"
            },
            {
              "internalType": "string",
              "name": "institutionType",
              "type": "string"
            },
            {
              "internalType": "bool",
              "name": "mainInstitution",
              "type": "bool"
            },
            {
              "internalType": "int256",
              "name": "typeInt",
              "type": "int256"
            },
            {
              "internalType": "address",
              "name": "verifier",
              "type": "address"
            }
          ],
          "internalType": "struct Guide.Institution",
          "name": "",
          "type": "tuple"
        }
      ],
      "stateMutability": "view",
      "type": "function",
      "constant": true
    },
    {
      "inputs": [
        {
          "internalType": "int32",
          "name": "certificateId",
          "type": "int32"
        },
        {
          "internalType": "address",
          "name": "account",
          "type": "address"
        }
      ],
      "name": "grantCertificateaccess",
      "outputs": [],
      "stateMutability": "nonpayable",
      "type": "function"
    },
    {
      "inputs": [
        {
          "internalType": "int32",
          "name": "certIdCurrent",
          "type": "int32"
        }
      ],
      "name": "getCertificate",
      "outputs": [
        {
          "components": [
            {
              "internalType": "int32",
              "name": "certificateId",
              "type": "int32"
            },
            {
              "internalType": "int256",
              "name": "certType",
              "type": "int256"
            },
            {
              "internalType": "int256",
              "name": "dateIssue",
              "type": "int256"
            },
            {
              "internalType": "int256",
              "name": "dateExpire",
              "type": "int256"
            },
            {
              "internalType": "address",
              "name": "issuer",
              "type": "address"
            },
            {
              "internalType": "address",
              "name": "issedAgainst",
              "type": "address"
            },
            {
              "internalType": "bool",
              "name": "isPublic",
              "type": "bool"
            },
            {
              "internalType": "string",
              "name": "data",
              "type": "string"
            },
            {
              "internalType": "address[]",
              "name": "taggedInstutions",
              "type": "address[]"
            },
            {
              "internalType": "bool[]",
              "name": "taggeInstitutionApproved",
              "type": "bool[]"
            },
            {
              "internalType": "address[]",
              "name": "accessGranted",
              "type": "address[]"
            }
          ],
          "internalType": "struct Guide.Certificate",
          "name": "",
          "type": "tuple"
        }
      ],
      "stateMutability": "view",
      "type": "function",
      "constant": true
    },
    {
      "inputs": [
        {
          "internalType": "int32",
          "name": "certIdCurrent",
          "type": "int32"
        }
      ],
      "name": "toggleisPublic",
      "outputs": [],
      "stateMutability": "nonpayable",
      "type": "function"
    },
    {
      "inputs": [],
      "name": "getCurrentUserCertificateIDs",
      "outputs": [
        {
          "internalType": "int32[]",
          "name": "",
          "type": "int32[]"
        }
      ],
      "stateMutability": "view",
      "type": "function",
      "constant": true
    },
    {
      "inputs": [],
      "name": "getCurrentUserAddress",
      "outputs": [
        {
          "internalType": "address",
          "name": "",
          "type": "address"
        }
      ],
      "stateMutability": "view",
      "type": "function",
      "constant": true
    }
  ],
  "bytecode": "0x60806040523480156200001157600080fd5b50604051620042ab380380620042ab8339818101604052810190620000379190620008bc565b60008060146101000a81548163ffffffff021916908360030b63ffffffff160217905550336000806101000a81548173ffffffffffffffffffffffffffffffffffffffff021916908373ffffffffffffffffffffffffffffffffffffffff16021790555060005b82518110156200012b5762000117838281518110620000c257620000c162000941565b5b6020026020010151838381518110620000e057620000df62000941565b5b6020026020010151600160008054906101000a900473ffffffffffffffffffffffffffffffffffffffff166200013460201b60201c565b806200012390620009a9565b90506200009e565b50505062000a5a565b81156200029d5760006040518060a001604052806001151581526020018581526020016001151581526020016001815260200160008054906101000a900473ffffffffffffffffffffffffffffffffffffffff1673ffffffffffffffffffffffffffffffffffffffff16815250905080600260008773ffffffffffffffffffffffffffffffffffffffff1673ffffffffffffffffffffffffffffffffffffffff16815260200190815260200160002060008201518160000160006101000a81548160ff02191690831515021790555060208201518160010190805190602001906200022192919062000438565b5060408201518160020160006101000a81548160ff0219169083151502179055506060820151816003015560808201518160040160006101000a81548173ffffffffffffffffffffffffffffffffffffffff021916908373ffffffffffffffffffffffffffffffffffffffff16021790555090505050620003da565b60006040518060a00160405280600115158152602001858152602001600015158152602001600181526020018373ffffffffffffffffffffffffffffffffffffffff16815250905080600260008773ffffffffffffffffffffffffffffffffffffffff1673ffffffffffffffffffffffffffffffffffffffff16815260200190815260200160002060008201518160000160006101000a81548160ff02191690831515021790555060208201518160010190805190602001906200036392919062000438565b5060408201518160020160006101000a81548160ff0219169083151502179055506060820151816003015560808201518160040160006101000a81548173ffffffffffffffffffffffffffffffffffffffff021916908373ffffffffffffffffffffffffffffffffffffffff160217905550905050505b6001600460008673ffffffffffffffffffffffffffffffffffffffff1673ffffffffffffffffffffffffffffffffffffffff16815260200190815260200160002060006101000a81548160ff02191690831515021790555050505050565b828054620004469062000a25565b90600052602060002090601f0160209004810192826200046a5760008555620004b6565b82601f106200048557805160ff1916838001178555620004b6565b82800160010185558215620004b6579182015b82811115620004b557825182559160200191906001019062000498565b5b509050620004c59190620004c9565b5090565b5b80821115620004e4576000816000905550600101620004ca565b5090565b6000604051905090565b600080fd5b600080fd5b600080fd5b6000601f19601f8301169050919050565b7f4e487b7100000000000000000000000000000000000000000000000000000000600052604160045260246000fd5b6200054c8262000501565b810181811067ffffffffffffffff821117156200056e576200056d62000512565b5b80604052505050565b600062000583620004e8565b905062000591828262000541565b919050565b600067ffffffffffffffff821115620005b457620005b362000512565b5b602082029050602081019050919050565b600080fd5b600073ffffffffffffffffffffffffffffffffffffffff82169050919050565b6000620005f782620005ca565b9050919050565b6200060981620005ea565b81146200061557600080fd5b50565b6000815190506200062981620005fe565b92915050565b600062000646620006408462000596565b62000577565b905080838252602082019050602084028301858111156200066c576200066b620005c5565b5b835b8181101562000699578062000684888262000618565b8452602084019350506020810190506200066e565b5050509392505050565b600082601f830112620006bb57620006ba620004fc565b5b8151620006cd8482602086016200062f565b91505092915050565b600067ffffffffffffffff821115620006f457620006f362000512565b5b602082029050602081019050919050565b600080fd5b600067ffffffffffffffff82111562000728576200072762000512565b5b620007338262000501565b9050602081019050919050565b60005b838110156200076057808201518184015260208101905062000743565b8381111562000770576000848401525b50505050565b60006200078d62000787846200070a565b62000577565b905082815260208101848484011115620007ac57620007ab62000705565b5b620007b984828562000740565b509392505050565b600082601f830112620007d957620007d8620004fc565b5b8151620007eb84826020860162000776565b91505092915050565b60006200080b6200080584620006d6565b62000577565b90508083825260208201905060208402830185811115620008315762000830620005c5565b5b835b818110156200087f57805167ffffffffffffffff8111156200085a5762000859620004fc565b5b808601620008698982620007c1565b8552602085019450505060208101905062000833565b5050509392505050565b600082601f830112620008a157620008a0620004fc565b5b8151620008b3848260208601620007f4565b91505092915050565b60008060408385031215620008d657620008d5620004f2565b5b600083015167ffffffffffffffff811115620008f757620008f6620004f7565b5b6200090585828601620006a3565b925050602083015167ffffffffffffffff811115620009295762000928620004f7565b5b620009378582860162000889565b9150509250929050565b7f4e487b7100000000000000000000000000000000000000000000000000000000600052603260045260246000fd5b7f4e487b7100000000000000000000000000000000000000000000000000000000600052601160045260246000fd5b6000819050919050565b6000620009b6826200099f565b91507fffffffffffffffffffffffffffffffffffffffffffffffffffffffffffffffff8203620009eb57620009ea62000970565b5b600182019050919050565b7f4e487b7100000000000000000000000000000000000000000000000000000000600052602260045260246000fd5b6000600282049050600182168062000a3e57607f821691505b60208210810362000a545762000a53620009f6565b5b50919050565b6138418062000a6a6000396000f3fe608060405234801561001057600080fd5b50600436106101165760003560e01c80635e64f86a116100a25780639f4900e0116100715780639f4900e014610330578063b2c4c52f14610360578063c0cf2af61461037e578063cd58b0b5146103ae578063d90bd6b0146103e557610116565b80635e64f86a146102a85780636ff37c85146102c45780638da5cb5b146102f457806396bee6031461031257610116565b8063314e6673116100e9578063314e6673146101df578063332d56d7146101fb5780633b03d1e81461022c578063442767331461024857806348c415ec1461027857610116565b80630331df071461011b5780630f229e581461014b5780630f261a3b1461017b57806324986631146101ab575b600080fd5b61013560048036038101906101309190612928565b610401565b6040516101429190612970565b60405180910390f35b610165600480360381019061016091906129c4565b610421565b6040516101729190612d32565b60405180910390f35b61019560048036038101906101909190612fa9565b610782565b6040516101a29190613092565b60405180910390f35b6101c560048036038101906101c09190612928565b610b69565b6040516101d6959493929190613115565b60405180910390f35b6101f960048036038101906101f49190612928565b610c61565b005b61021560048036038101906102109190612928565b610dc2565b60405161022392919061316f565b60405180910390f35b6102466004803603810190610241919061319f565b610e8e565b005b610262600480360381019061025d9190612928565b611044565b60405161026f9190613255565b60405180910390f35b610292600480360381019061028d9190613277565b6111c5565b60405161029f91906133c6565b60405180910390f35b6102c260048036038101906102bd919061319f565b61147c565b005b6102de60048036038101906102d99190612928565b6115ab565b6040516102eb9190613457565b60405180910390f35b6102fc611668565b6040516103099190613479565b60405180910390f35b61031a61168c565b6040516103279190613457565b60405180910390f35b61034a60048036038101906103459190613277565b61174a565b6040516103579190613479565b60405180910390f35b6103686117f1565b6040516103759190613479565b60405180910390f35b610398600480360381019061039391906129c4565b6117f9565b6040516103a59190612d32565b60405180910390f35b6103c860048036038101906103c391906129c4565b611ff3565b6040516103dc989796959493929190613494565b60405180910390f35b6103ff60048036038101906103fa91906129c4565b61211d565b005b60046020528060005260406000206000915054906101000a900460ff1681565b6104296125f4565b600360008360030b60030b8152602001908152602001600020604051806101600160405290816000820160009054906101000a900460030b60030b60030b81526020016001820154815260200160028201548152602001600382015481526020016004820160009054906101000a900473ffffffffffffffffffffffffffffffffffffffff1673ffffffffffffffffffffffffffffffffffffffff1673ffffffffffffffffffffffffffffffffffffffff1681526020016005820160009054906101000a900473ffffffffffffffffffffffffffffffffffffffff1673ffffffffffffffffffffffffffffffffffffffff1673ffffffffffffffffffffffffffffffffffffffff1681526020016005820160149054906101000a900460ff1615151515815260200160068201805461056090613548565b80601f016020809104026020016040519081016040528092919081815260200182805461058c90613548565b80156105d95780601f106105ae576101008083540402835291602001916105d9565b820191906000526020600020905b8154815290600101906020018083116105bc57829003601f168201915b505050505081526020016007820180548060200260200160405190810160405280929190818152602001828054801561066757602002820191906000526020600020905b8160009054906101000a900473ffffffffffffffffffffffffffffffffffffffff1673ffffffffffffffffffffffffffffffffffffffff168152602001906001019080831161061d575b50505050508152602001600882018054806020026020016040519081016040528092919081815260200182805480156106e457602002820191906000526020600020906000905b82829054906101000a900460ff161515815260200190600101906020826000010492830192600103820291508084116106ae5790505b505050505081526020016009820180548060200260200160405190810160405280929190818152602001828054801561077257602002820191906000526020600020905b8160009054906101000a900473ffffffffffffffffffffffffffffffffffffffff1673ffffffffffffffffffffffffffffffffffffffff1681526020019060010190808311610728575b5050505050815250509050919050565b600080601481819054906101000a900460030b809291906107a2906135a8565b91906101000a81548163ffffffff021916908360030b63ffffffff160217905550506000600360008060149054906101000a900460030b60030b60030b81526020019081526020016000209050600060149054906101000a900460030b8160000160006101000a81548163ffffffff021916908360030b63ffffffff160217905550888160010181905550878160020181905550868160030181905550338160040160006101000a81548173ffffffffffffffffffffffffffffffffffffffff021916908373ffffffffffffffffffffffffffffffffffffffff160217905550858160050160006101000a81548173ffffffffffffffffffffffffffffffffffffffff021916908373ffffffffffffffffffffffffffffffffffffffff160217905550848160070190805190602001906108dd92919061267f565b50838160050160146101000a81548160ff02191690831515021790555060405180604001604052803373ffffffffffffffffffffffffffffffffffffffff1673ffffffffffffffffffffffffffffffffffffffff1681526020018773ffffffffffffffffffffffffffffffffffffffff1673ffffffffffffffffffffffffffffffffffffffff1681525081600901906002610979929190612709565b5082816006019080519060200190610992929190612793565b5060005b8551811015610a91573373ffffffffffffffffffffffffffffffffffffffff168682815181106109c9576109c86135d4565b5b602002602001015173ffffffffffffffffffffffffffffffffffffffff1603610a385781600801600190806001815401808255809150506001900390600052602060002090602091828204019190069091909190916101000a81548160ff021916908315150217905550610a80565b81600801600090806001815401808255809150506001900390600052602060002090602091828204019190069091909190916101000a81548160ff0219169083151502179055505b80610a8a9061360d565b9050610996565b50600160008773ffffffffffffffffffffffffffffffffffffffff1673ffffffffffffffffffffffffffffffffffffffff168152602001908152602001600020600201600060149054906101000a900460030b90806001815401808255809150506001900390600052602060002090600891828204019190066004029091909190916101000a81548163ffffffff021916908360030b63ffffffff160217905550610b4b600060149054906101000a900460030b8661222c565b600060149054906101000a900460030b915050979650505050505050565b60026020528060005260406000206000915090508060000160009054906101000a900460ff1690806001018054610b9f90613548565b80601f0160208091040260200160405190810160405280929190818152602001828054610bcb90613548565b8015610c185780601f10610bed57610100808354040283529160200191610c18565b820191906000526020600020905b815481529060010190602001808311610bfb57829003601f168201915b5050505050908060020160009054906101000a900460ff16908060030154908060040160009054906101000a900473ffffffffffffffffffffffffffffffffffffffff16905085565b336000600260008373ffffffffffffffffffffffffffffffffffffffff1673ffffffffffffffffffffffffffffffffffffffff1681526020019081526020016000206003015413610ce7576040517f08c379a0000000000000000000000000000000000000000000000000000000008152600401610cde906136c7565b60405180910390fd5b610dbe82600260008573ffffffffffffffffffffffffffffffffffffffff1673ffffffffffffffffffffffffffffffffffffffff1681526020019081526020016000206001018054610d3890613548565b80601f0160208091040260200160405190810160405280929190818152602001828054610d6490613548565b8015610db15780601f10610d8657610100808354040283529160200191610db1565b820191906000526020600020905b815481529060010190602001808311610d9457829003601f168201915b50505050506000336122f6565b5050565b60016020528060005260406000206000915090508060000160009054906101000a900473ffffffffffffffffffffffffffffffffffffffff1690806001018054610e0b90613548565b80601f0160208091040260200160405190810160405280929190818152602001828054610e3790613548565b8015610e845780601f10610e5957610100808354040283529160200191610e84565b820191906000526020600020905b815481529060010190602001808311610e6757829003601f168201915b5050505050905082565b81338073ffffffffffffffffffffffffffffffffffffffff16600360008460030b60030b815260200190815260200160002060050160009054906101000a900473ffffffffffffffffffffffffffffffffffffffff1673ffffffffffffffffffffffffffffffffffffffff1614610f3a576040517f08c379a0000000000000000000000000000000000000000000000000000000008152600401610f3190613759565b60405180910390fd5b826000600260008373ffffffffffffffffffffffffffffffffffffffff1673ffffffffffffffffffffffffffffffffffffffff1681526020019081526020016000206003015413610fc0576040517f08c379a0000000000000000000000000000000000000000000000000000000008152600401610fb7906136c7565b60405180910390fd5b600360008660030b60030b8152602001908152602001600020600901849080600181540180825580915050600190039060005260206000200160009091909190916101000a81548173ffffffffffffffffffffffffffffffffffffffff021916908373ffffffffffffffffffffffffffffffffffffffff1602179055505050505050565b61104c612819565b600260008373ffffffffffffffffffffffffffffffffffffffff1673ffffffffffffffffffffffffffffffffffffffff1681526020019081526020016000206040518060a00160405290816000820160009054906101000a900460ff161515151581526020016001820180546110c190613548565b80601f01602080910402602001604051908101604052809291908181526020018280546110ed90613548565b801561113a5780601f1061110f5761010080835404028352916020019161113a565b820191906000526020600020905b81548152906001019060200180831161111d57829003601f168201915b505050505081526020016002820160009054906101000a900460ff16151515158152602001600382015481526020016004820160009054906101000a900473ffffffffffffffffffffffffffffffffffffffff1673ffffffffffffffffffffffffffffffffffffffff1673ffffffffffffffffffffffffffffffffffffffff16815250509050919050565b6111cd612862565b6000600160003373ffffffffffffffffffffffffffffffffffffffff1673ffffffffffffffffffffffffffffffffffffffff1681526020019081526020016000209050338160000160006101000a81548173ffffffffffffffffffffffffffffffffffffffff021916908373ffffffffffffffffffffffffffffffffffffffff1602179055508281600101908051906020019061126b929190612793565b506000600460003373ffffffffffffffffffffffffffffffffffffffff1673ffffffffffffffffffffffffffffffffffffffff16815260200190815260200160002060006101000a81548160ff021916908315150217905550600160003373ffffffffffffffffffffffffffffffffffffffff1673ffffffffffffffffffffffffffffffffffffffff1681526020019081526020016000206040518060600160405290816000820160009054906101000a900473ffffffffffffffffffffffffffffffffffffffff1673ffffffffffffffffffffffffffffffffffffffff1673ffffffffffffffffffffffffffffffffffffffff16815260200160018201805461137490613548565b80601f01602080910402602001604051908101604052809291908181526020018280546113a090613548565b80156113ed5780601f106113c2576101008083540402835291602001916113ed565b820191906000526020600020905b8154815290600101906020018083116113d057829003601f168201915b505050505081526020016002820180548060200260200160405190810160405280929190818152602001828054801561146b57602002820191906000526020600020906000905b82829054906101000a900460030b60030b815260200190600401906020826003010492830192600103820291508084116114345790505b505050505081525050915050919050565b81338073ffffffffffffffffffffffffffffffffffffffff16600360008460030b60030b815260200190815260200160002060050160009054906101000a900473ffffffffffffffffffffffffffffffffffffffff1673ffffffffffffffffffffffffffffffffffffffff1614611528576040517f08c379a000000000000000000000000000000000000000000000000000000000815260040161151f90613759565b60405180910390fd5b600360008560030b60030b8152602001908152602001600020600901839080600181540180825580915050600190039060005260206000200160009091909190916101000a81548173ffffffffffffffffffffffffffffffffffffffff021916908373ffffffffffffffffffffffffffffffffffffffff16021790555050505050565b6060600560008373ffffffffffffffffffffffffffffffffffffffff1673ffffffffffffffffffffffffffffffffffffffff16815260200190815260200160002080548060200260200160405190810160405280929190818152602001828054801561165c57602002820191906000526020600020906000905b82829054906101000a900460030b60030b815260200190600401906020826003010492830192600103820291508084116116255790505b50505050509050919050565b60008054906101000a900473ffffffffffffffffffffffffffffffffffffffff1681565b6060600160003373ffffffffffffffffffffffffffffffffffffffff1673ffffffffffffffffffffffffffffffffffffffff16815260200190815260200160002060020180548060200260200160405190810160405280929190818152602001828054801561174057602002820191906000526020600020906000905b82829054906101000a900460030b60030b815260200190600401906020826003010492830192600103820291508084116117095790505b5050505050905090565b600080600260003373ffffffffffffffffffffffffffffffffffffffff1673ffffffffffffffffffffffffffffffffffffffff168152602001908152602001600020905060008160000160006101000a81548160ff021916908315150217905550828160010190805190602001906117c3929190612793565b5060008160020160006101000a81548160ff0219169083151502179055506000816003018190555050919050565b600033905090565b6118016125f4565b600360008360030b60030b815260200190815260200160002060050160149054906101000a900460ff1615611b8957600360008360030b60030b8152602001908152602001600020604051806101600160405290816000820160009054906101000a900460030b60030b60030b81526020016001820154815260200160028201548152602001600382015481526020016004820160009054906101000a900473ffffffffffffffffffffffffffffffffffffffff1673ffffffffffffffffffffffffffffffffffffffff1673ffffffffffffffffffffffffffffffffffffffff1681526020016005820160009054906101000a900473ffffffffffffffffffffffffffffffffffffffff1673ffffffffffffffffffffffffffffffffffffffff1673ffffffffffffffffffffffffffffffffffffffff1681526020016005820160149054906101000a900460ff1615151515815260200160068201805461196790613548565b80601f016020809104026020016040519081016040528092919081815260200182805461199390613548565b80156119e05780601f106119b5576101008083540402835291602001916119e0565b820191906000526020600020905b8154815290600101906020018083116119c357829003601f168201915b5050505050815260200160078201805480602002602001604051908101604052809291908181526020018280548015611a6e57602002820191906000526020600020905b8160009054906101000a900473ffffffffffffffffffffffffffffffffffffffff1673ffffffffffffffffffffffffffffffffffffffff1681526020019060010190808311611a24575b5050505050815260200160088201805480602002602001604051908101604052809291908181526020018280548015611aeb57602002820191906000526020600020906000905b82829054906101000a900460ff16151581526020019060010190602082600001049283019260010382029150808411611ab55790505b5050505050815260200160098201805480602002602001604051908101604052809291908181526020018280548015611b7957602002820191906000526020600020905b8160009054906101000a900473ffffffffffffffffffffffffffffffffffffffff1673ffffffffffffffffffffffffffffffffffffffff1681526020019060010190808311611b2f575b5050505050815250509050611fee565b60005b600360008460030b60030b815260200190815260200160002060090180549050811015611fab573373ffffffffffffffffffffffffffffffffffffffff16600360008560030b60030b81526020019081526020016000206009018281548110611bf857611bf76135d4565b5b9060005260206000200160009054906101000a900473ffffffffffffffffffffffffffffffffffffffff1673ffffffffffffffffffffffffffffffffffffffff1603611f9857600360008460030b60030b8152602001908152602001600020604051806101600160405290816000820160009054906101000a900460030b60030b60030b81526020016001820154815260200160028201548152602001600382015481526020016004820160009054906101000a900473ffffffffffffffffffffffffffffffffffffffff1673ffffffffffffffffffffffffffffffffffffffff1673ffffffffffffffffffffffffffffffffffffffff1681526020016005820160009054906101000a900473ffffffffffffffffffffffffffffffffffffffff1673ffffffffffffffffffffffffffffffffffffffff1673ffffffffffffffffffffffffffffffffffffffff1681526020016005820160149054906101000a900460ff16151515158152602001600682018054611d7590613548565b80601f0160208091040260200160405190810160405280929190818152602001828054611da190613548565b8015611dee5780601f10611dc357610100808354040283529160200191611dee565b820191906000526020600020905b815481529060010190602001808311611dd157829003601f168201915b5050505050815260200160078201805480602002602001604051908101604052809291908181526020018280548015611e7c57602002820191906000526020600020905b8160009054906101000a900473ffffffffffffffffffffffffffffffffffffffff1673ffffffffffffffffffffffffffffffffffffffff1681526020019060010190808311611e32575b5050505050815260200160088201805480602002602001604051908101604052809291908181526020018280548015611ef957602002820191906000526020600020906000905b82829054906101000a900460ff16151581526020019060010190602082600001049283019260010382029150808411611ec35790505b5050505050815260200160098201805480602002602001604051908101604052809291908181526020018280548015611f8757602002820191906000526020600020905b8160009054906101000a900473ffffffffffffffffffffffffffffffffffffffff1673ffffffffffffffffffffffffffffffffffffffff1681526020019060010190808311611f3d575b505050505081525050915050611fee565b8080611fa39061360d565b915050611b8c565b506000611fed576040517f08c379a0000000000000000000000000000000000000000000000000000000008152600401611fe4906137eb565b60405180910390fd5b5b919050565b60036020528060005260406000206000915090508060000160009054906101000a900460030b908060010154908060020154908060030154908060040160009054906101000a900473ffffffffffffffffffffffffffffffffffffffff16908060050160009054906101000a900473ffffffffffffffffffffffffffffffffffffffff16908060050160149054906101000a900460ff169080600601805461209a90613548565b80601f01602080910402602001604051908101604052809291908181526020018280546120c690613548565b80156121135780601f106120e857610100808354040283529160200191612113565b820191906000526020600020905b8154815290600101906020018083116120f657829003601f168201915b5050505050905088565b80338073ffffffffffffffffffffffffffffffffffffffff16600360008460030b60030b815260200190815260200160002060050160009054906101000a900473ffffffffffffffffffffffffffffffffffffffff1673ffffffffffffffffffffffffffffffffffffffff16146121c9576040517f08c379a00000000000000000000000000000000000000000000000000000000081526004016121c090613759565b60405180910390fd5b600360008460030b60030b815260200190815260200160002060050160149054906101000a900460ff1615600360008560030b60030b815260200190815260200160002060050160146101000a81548160ff021916908315150217905550505050565b60005b81518110156122f1576005600083838151811061224f5761224e6135d4565b5b602002602001015173ffffffffffffffffffffffffffffffffffffffff1673ffffffffffffffffffffffffffffffffffffffff1681526020019081526020016000208390806001815401808255809150506001900390600052602060002090600891828204019190066004029091909190916101000a81548163ffffffff021916908360030b63ffffffff160217905550806122ea9061360d565b905061222f565b505050565b811561245b5760006040518060a001604052806001151581526020018581526020016001151581526020016001815260200160008054906101000a900473ffffffffffffffffffffffffffffffffffffffff1673ffffffffffffffffffffffffffffffffffffffff16815250905080600260008773ffffffffffffffffffffffffffffffffffffffff1673ffffffffffffffffffffffffffffffffffffffff16815260200190815260200160002060008201518160000160006101000a81548160ff02191690831515021790555060208201518160010190805190602001906123e0929190612793565b5060408201518160020160006101000a81548160ff0219169083151502179055506060820151816003015560808201518160040160006101000a81548173ffffffffffffffffffffffffffffffffffffffff021916908373ffffffffffffffffffffffffffffffffffffffff16021790555090505050612596565b60006040518060a00160405280600115158152602001858152602001600015158152602001600181526020018373ffffffffffffffffffffffffffffffffffffffff16815250905080600260008773ffffffffffffffffffffffffffffffffffffffff1673ffffffffffffffffffffffffffffffffffffffff16815260200190815260200160002060008201518160000160006101000a81548160ff021916908315150217905550602082015181600101908051906020019061251f929190612793565b5060408201518160020160006101000a81548160ff0219169083151502179055506060820151816003015560808201518160040160006101000a81548173ffffffffffffffffffffffffffffffffffffffff021916908373ffffffffffffffffffffffffffffffffffffffff160217905550905050505b6001600460008673ffffffffffffffffffffffffffffffffffffffff1673ffffffffffffffffffffffffffffffffffffffff16815260200190815260200160002060006101000a81548160ff02191690831515021790555050505050565b604051806101600160405280600060030b8152602001600081526020016000815260200160008152602001600073ffffffffffffffffffffffffffffffffffffffff168152602001600073ffffffffffffffffffffffffffffffffffffffff168152602001600015158152602001606081526020016060815260200160608152602001606081525090565b8280548282559060005260206000209081019282156126f8579160200282015b828111156126f75782518260006101000a81548173ffffffffffffffffffffffffffffffffffffffff021916908373ffffffffffffffffffffffffffffffffffffffff1602179055509160200191906001019061269f565b5b5090506127059190612899565b5090565b828054828255906000526020600020908101928215612782579160200282015b828111156127815782518260006101000a81548173ffffffffffffffffffffffffffffffffffffffff021916908373ffffffffffffffffffffffffffffffffffffffff16021790555091602001919060010190612729565b5b50905061278f9190612899565b5090565b82805461279f90613548565b90600052602060002090601f0160209004810192826127c15760008555612808565b82601f106127da57805160ff1916838001178555612808565b82800160010185558215612808579182015b828111156128075782518255916020019190600101906127ec565b5b5090506128159190612899565b5090565b6040518060a001604052806000151581526020016060815260200160001515815260200160008152602001600073ffffffffffffffffffffffffffffffffffffffff1681525090565b6040518060600160405280600073ffffffffffffffffffffffffffffffffffffffff16815260200160608152602001606081525090565b5b808211156128b257600081600090555060010161289a565b5090565b6000604051905090565b600080fd5b600080fd5b600073ffffffffffffffffffffffffffffffffffffffff82169050919050565b60006128f5826128ca565b9050919050565b612905816128ea565b811461291057600080fd5b50565b600081359050612922816128fc565b92915050565b60006020828403121561293e5761293d6128c0565b5b600061294c84828501612913565b91505092915050565b60008115159050919050565b61296a81612955565b82525050565b60006020820190506129856000830184612961565b92915050565b60008160030b9050919050565b6129a18161298b565b81146129ac57600080fd5b50565b6000813590506129be81612998565b92915050565b6000602082840312156129da576129d96128c0565b5b60006129e8848285016129af565b91505092915050565b6129fa8161298b565b82525050565b6000819050919050565b612a1381612a00565b82525050565b612a22816128ea565b82525050565b612a3181612955565b82525050565b600081519050919050565b600082825260208201905092915050565b60005b83811015612a71578082015181840152602081019050612a56565b83811115612a80576000848401525b50505050565b6000601f19601f8301169050919050565b6000612aa282612a37565b612aac8185612a42565b9350612abc818560208601612a53565b612ac581612a86565b840191505092915050565b600081519050919050565b600082825260208201905092915050565b6000819050602082019050919050565b6000612b088383612a19565b60208301905092915050565b6000602082019050919050565b6000612b2c82612ad0565b612b368185612adb565b9350612b4183612aec565b8060005b83811015612b72578151612b598882612afc565b9750612b6483612b14565b925050600181019050612b45565b5085935050505092915050565b600081519050919050565b600082825260208201905092915050565b6000819050602082019050919050565b6000612bb78383612a28565b60208301905092915050565b6000602082019050919050565b6000612bdb82612b7f565b612be58185612b8a565b9350612bf083612b9b565b8060005b83811015612c21578151612c088882612bab565b9750612c1383612bc3565b925050600181019050612bf4565b5085935050505092915050565b600061016083016000830151612c4760008601826129f1565b506020830151612c5a6020860182612a0a565b506040830151612c6d6040860182612a0a565b506060830151612c806060860182612a0a565b506080830151612c936080860182612a19565b5060a0830151612ca660a0860182612a19565b5060c0830151612cb960c0860182612a28565b5060e083015184820360e0860152612cd18282612a97565b915050610100830151848203610100860152612ced8282612b21565b915050610120830151848203610120860152612d098282612bd0565b915050610140830151848203610140860152612d258282612b21565b9150508091505092915050565b60006020820190508181036000830152612d4c8184612c2e565b905092915050565b612d5d81612a00565b8114612d6857600080fd5b50565b600081359050612d7a81612d54565b92915050565b600080fd5b7f4e487b7100000000000000000000000000000000000000000000000000000000600052604160045260246000fd5b612dbd82612a86565b810181811067ffffffffffffffff82111715612ddc57612ddb612d85565b5b80604052505050565b6000612def6128b6565b9050612dfb8282612db4565b919050565b600067ffffffffffffffff821115612e1b57612e1a612d85565b5b602082029050602081019050919050565b600080fd5b6000612e44612e3f84612e00565b612de5565b90508083825260208201905060208402830185811115612e6757612e66612e2c565b5b835b81811015612e905780612e7c8882612913565b845260208401935050602081019050612e69565b5050509392505050565b600082601f830112612eaf57612eae612d80565b5b8135612ebf848260208601612e31565b91505092915050565b612ed181612955565b8114612edc57600080fd5b50565b600081359050612eee81612ec8565b92915050565b600080fd5b600067ffffffffffffffff821115612f1457612f13612d85565b5b612f1d82612a86565b9050602081019050919050565b82818337600083830152505050565b6000612f4c612f4784612ef9565b612de5565b905082815260208101848484011115612f6857612f67612ef4565b5b612f73848285612f2a565b509392505050565b600082601f830112612f9057612f8f612d80565b5b8135612fa0848260208601612f39565b91505092915050565b600080600080600080600060e0888a031215612fc857612fc76128c0565b5b6000612fd68a828b01612d6b565b9750506020612fe78a828b01612d6b565b9650506040612ff88a828b01612d6b565b95505060606130098a828b01612913565b945050608088013567ffffffffffffffff81111561302a576130296128c5565b5b6130368a828b01612e9a565b93505060a06130478a828b01612edf565b92505060c088013567ffffffffffffffff811115613068576130676128c5565b5b6130748a828b01612f7b565b91505092959891949750929550565b61308c8161298b565b82525050565b60006020820190506130a76000830184613083565b92915050565b600082825260208201905092915050565b60006130c982612a37565b6130d381856130ad565b93506130e3818560208601612a53565b6130ec81612a86565b840191505092915050565b61310081612a00565b82525050565b61310f816128ea565b82525050565b600060a08201905061312a6000830188612961565b818103602083015261313c81876130be565b905061314b6040830186612961565b61315860608301856130f7565b6131656080830184613106565b9695505050505050565b60006040820190506131846000830185613106565b818103602083015261319681846130be565b90509392505050565b600080604083850312156131b6576131b56128c0565b5b60006131c4858286016129af565b92505060206131d585828601612913565b9150509250929050565b600060a0830160008301516131f76000860182612a28565b506020830151848203602086015261320f8282612a97565b91505060408301516132246040860182612a28565b5060608301516132376060860182612a0a565b50608083015161324a6080860182612a19565b508091505092915050565b6000602082019050818103600083015261326f81846131df565b905092915050565b60006020828403121561328d5761328c6128c0565b5b600082013567ffffffffffffffff8111156132ab576132aa6128c5565b5b6132b784828501612f7b565b91505092915050565b600081519050919050565b600082825260208201905092915050565b6000819050602082019050919050565b60006132f883836129f1565b60208301905092915050565b6000602082019050919050565b600061331c826132c0565b61332681856132cb565b9350613331836132dc565b8060005b8381101561336257815161334988826132ec565b975061335483613304565b925050600181019050613335565b5085935050505092915050565b60006060830160008301516133876000860182612a19565b506020830151848203602086015261339f8282612a97565b915050604083015184820360408601526133b98282613311565b9150508091505092915050565b600060208201905081810360008301526133e0818461336f565b905092915050565b600082825260208201905092915050565b6000613404826132c0565b61340e81856133e8565b9350613419836132dc565b8060005b8381101561344a57815161343188826132ec565b975061343c83613304565b92505060018101905061341d565b5085935050505092915050565b6000602082019050818103600083015261347181846133f9565b905092915050565b600060208201905061348e6000830184613106565b92915050565b6000610100820190506134aa600083018b613083565b6134b7602083018a6130f7565b6134c460408301896130f7565b6134d160608301886130f7565b6134de6080830187613106565b6134eb60a0830186613106565b6134f860c0830185612961565b81810360e083015261350a81846130be565b90509998505050505050505050565b7f4e487b7100000000000000000000000000000000000000000000000000000000600052602260045260246000fd5b6000600282049050600182168061356057607f821691505b60208210810361357357613572613519565b5b50919050565b7f4e487b7100000000000000000000000000000000000000000000000000000000600052601160045260246000fd5b60006135b38261298b565b9150637fffffff82036135c9576135c8613579565b5b600182019050919050565b7f4e487b7100000000000000000000000000000000000000000000000000000000600052603260045260246000fd5b6000819050919050565b600061361882613603565b91507fffffffffffffffffffffffffffffffffffffffffffffffffffffffffffffffff820361364a57613649613579565b5b600182019050919050565b7f4e6f742072657175657374656420766572696669636174696f6e206279204d6160008201527f696e4e6f64650000000000000000000000000000000000000000000000000000602082015250565b60006136b16026836130ad565b91506136bc82613655565b604082019050919050565b600060208201905081810360008301526136e0816136a4565b9050919050565b7f596f7520617265206e6f7420746865206f776e6572206f66207468697320636560008201527f7274696669636174650000000000000000000000000000000000000000000000602082015250565b60006137436029836130ad565b915061374e826136e7565b604082019050919050565b6000602082019050818103600083015261377281613736565b9050919050565b7f596f7520646f206e6f7420686176652061636365737320746f2074686973206360008201527f6572746966696361746500000000000000000000000000000000000000000000602082015250565b60006137d5602a836130ad565b91506137e082613779565b604082019050919050565b60006020820190508181036000830152613804816137c8565b905091905056fea2646970667358221220897cf71e20e5be71fb309a6bf124833d9181fcc39800fb9984fcca6998059de764736f6c634300080d0033",
  "immutableReferences": {},
  "source": "// SPDX-License-Identifier: MIT \r\npragma solidity >=0.7.0 <0.9.0;\r\n\r\ncontract Guide {\r\n\r\n    address public owner;\r\n    int32 certId;\r\n    // uint public last_completed_migration;\r\n\r\n    \r\n    struct User{\r\n\r\n        address userAddress;\r\n        string userName;\r\n        int32[] certifatesIds;\r\n    }\r\n\r\n    struct Certificate{        \r\n        int32 certificateId;\r\n        int certType;\r\n        int256 dateIssue;\r\n        int256 dateExpire;\r\n        address issuer;\r\n        address issedAgainst;\r\n       \r\n        bool isPublic;\r\n       \r\n        string data;\r\n         address[] taggedInstutions;\r\n        bool [] taggeInstitutionApproved;\r\n         address[] accessGranted;\r\n\r\n    }\r\n\r\n    struct Institution{    \r\n        bool isVerified;\r\n        string institutionType;\r\n        bool mainInstitution;\r\n        int typeInt;\r\n        address verifier;\r\n    }\r\n\r\n    mapping (address=>User) public userProfiles;\r\n    mapping(address=>Institution) public institutionProfile;  \r\n    mapping(int32=>Certificate) public certificates;  \r\n    mapping(address=>bool) public isInstitution;\r\n    \r\n    mapping(address => int32[]) certTagRequest;         \r\n\r\n    constructor(address[] memory mainNodeAddress,string[] memory institutionType) public {\r\n        certId=0;\r\n        owner = msg.sender;\r\n      \r\n        for (uint256 i = 0; i < mainNodeAddress.length; ++i) {\r\n             _grantVerification(mainNodeAddress[i],institutionType[i],true,owner);\r\n        }\r\n    }\r\n\r\n\r\n    // modifier to check if certificate is of the requester\r\n    modifier ownerOfCertificate(int32 _certificateId,address msgSender) {\r\n        require(certificates[_certificateId].issedAgainst == msgSender,\"You are not the owner of this certificate\");\r\n        _;\r\n    }\r\n    \r\n\r\n// modifier to restrict restrict institution only events    \r\n    modifier restrictInstitutionOnly(address _institutionAddress) {\r\n        require(\r\n            institutionProfile[_institutionAddress].typeInt >0,\r\n            \"Not requested verification by MainNode\"\r\n        );\r\n        _;\r\n    }\r\n    \r\n    // Register User profile with the system\r\n    function  RegisterUser(string memory name)public returns(User memory) {\r\n\r\n      User storage newUser = userProfiles[msg.sender];\r\n        newUser.userAddress = msg.sender;\r\n        newUser.userName = name; \r\n\r\n        isInstitution[msg.sender] = false; \r\n        \r\n        return userProfiles[msg.sender];\r\n\r\n    }\r\n\r\n\r\n    // Register Institution with address\r\n    // Institution not verified first\r\n    // Institution type is not main node\r\n    function  RegisterInstitution(string  memory institutionType)public returns(address) {\r\n\r\n      Institution storage newIns = institutionProfile[msg.sender];\r\n    \r\n        newIns.isVerified = false;\r\n        newIns.institutionType = institutionType;\r\n        newIns.mainInstitution = false;\r\n        newIns.typeInt = 0;\r\n        // newIns.verifier = ;\r\n  \r\n\r\n    }\r\n\r\n\r\n// give access to different institution to access certificate\r\n// add modifier to confirm its institution\r\nfunction grantCertificateAccessInstitution(int32 _certificateId,address _institutionAddress)public ownerOfCertificate(_certificateId,msg.sender)restrictInstitutionOnly(_institutionAddress){ \r\n    certificates[_certificateId].accessGranted.push(_institutionAddress);\r\n}\r\n\r\n\r\n\r\nfunction getCertifDebug(int32 ceri) public view returns(Certificate memory cert){\r\n    return certificates[ceri];\r\n}\r\n    // publish cer to mapping\r\n    // send requstt to tagged institutions\r\n    function publishCertificate(int certType,int256 dateIssue,int256 dateExpire,address issedAgainst,address[] memory taggedInstutions,bool isPublic,string memory data)  public returns(int32) {\r\n        // publishCertificate(121,34123,456,accounts[8],[],true,\"dam againsome shit here too\").send({from:accounts[0],gas:3000000}\r\n        // int32 certId=0;\r\n        certId++;\r\n\r\n        Certificate storage newCert = certificates[certId];\r\n        newCert.certificateId = certId;\r\n            newCert.certType = certType;\r\n            newCert.dateIssue = dateIssue;\r\n            newCert.dateExpire = dateExpire;\r\n            newCert.issuer = msg.sender;\r\n            newCert.issedAgainst = issedAgainst;\r\n            newCert.taggedInstutions = taggedInstutions;\r\n            newCert.isPublic = isPublic;\r\n            newCert.accessGranted = [msg.sender,issedAgainst];\r\n            newCert.data = data;\r\n            \r\n        //  making all approvals false\r\n        // TODO all false except institutionitself\r\n        for(uint256 i = 0; i < taggedInstutions.length; ++i){\r\n            if(taggedInstutions[i] == msg.sender){\r\n                newCert.taggeInstitutionApproved.push(true);\r\n                continue;\r\n            }\r\n            newCert.taggeInstitutionApproved.push(false);\r\n        }\r\n\r\n        userProfiles[issedAgainst].certifatesIds.push(certId);\r\n        requestCertTagVerification(certId,taggedInstutions);\r\n\r\n\r\n        // certificates[certId] = cert;\r\n        return certId;\r\n    }\r\n\r\n    // Requests Tagged Institutions verifies the certificates\r\n    function requestCertTagVerification(int32  requestedCertId,address[] memory instAddress) internal {\r\n        for (uint256 i = 0; i < instAddress.length; ++i) {\r\n            certTagRequest[instAddress[i]].push(requestedCertId);\r\n        }\r\n\r\n    }\r\n\r\n    // fetch all certificate verification request made to an institution\r\n    function fetchCertTagRequest(address _institutionAddress) public view returns(int32[] memory certIds){\r\n        return certTagRequest[_institutionAddress];\r\n    }\r\n   \r\n    function GrantVerification(address issedAgainst)external restrictInstitutionOnly(msg.sender){   \r\n\r\n        _grantVerification(issedAgainst,institutionProfile[issedAgainst].institutionType,false,msg.sender);\r\n       \r\n\r\n    }        \r\n\r\n    // verified a node as a main node\r\n    function _grantVerification(address  account, string memory role,bool firstNode,address issuer) internal{\r\n        \r\n    //  emit GrantRole(_role,_account);\r\n    if(firstNode){\r\n\r\n    Institution memory book2= Institution(true,role,true,1,owner);\r\n    institutionProfile[account]=book2;\r\n    }\r\n    else{\r\n        Institution memory book2= Institution(true,role,false,1,issuer);\r\n        institutionProfile[account]=book2;\r\n    }\r\n\r\n    isInstitution[account] = true;\r\n    }\r\n\r\n     function getRole(address account) public view returns (Institution memory){\r\n    \r\n        // return institutionProfile[account].isVerified? \"verified\" : \"not verified\";\r\n        return institutionProfile[account];\r\n\r\n    }\r\n\r\n    // access granting for a certificate\r\n    // grant access if the certificate is issued to the function caller \r\n    function grantCertificateaccess(int32 certificateId,address account) public ownerOfCertificate(certificateId,msg.sender){\r\n\r\n\r\n        certificates[certificateId].accessGranted.push(account);\r\n      \r\n    }\r\n    \r\n    // return certifactes if the certificate is given access to be viewed;\r\n    function getCertificate(int32 certIdCurrent) public  view returns (Certificate memory){\r\n\r\n        // !TODO create access control dont just return all certificates\r\n        // current implementation of looping and searching high on gas\r\n\r\n        // certificates[certId].accessGranted.push(msg.sender);\r\n        if(certificates[certIdCurrent].isPublic){\r\n            return certificates[certIdCurrent];\r\n        }\r\n        else\r\n        {  for (uint i; i < certificates[certIdCurrent].accessGranted.length; i++) {\r\n            if(certificates[certIdCurrent].accessGranted[i]==msg.sender){\r\n                return certificates[certIdCurrent];\r\n            }\r\n\r\n        }       \r\n        }\r\n         require(false,\"You do not have access to this certificate\");\r\n\r\n\r\n        // return certificates[certId];\r\n    }\r\n\r\n    // toggles the public status of a certificate\r\n    function toggleisPublic(int32 certIdCurrent) public ownerOfCertificate(certIdCurrent,msg.sender){\r\n        certificates[certIdCurrent].isPublic = !certificates[certIdCurrent].isPublic;\r\n    }\r\n\r\n    function getCurrentUserCertificateIDs() public view returns(int32[] memory){\r\n        return userProfiles[msg.sender].certifatesIds;    \r\n        }\r\n    \r\n    modifier restrictedOwner() {\r\n        require(\r\n            msg.sender == owner,\r\n            \"This function is restricted to the contract's owner\"\r\n        );\r\n        _;\r\n    }\r\n    function getCurrentUserAddress() public view returns(address){\r\n        return msg.sender;\r\n    }\r\n\r\n    \r\n}\r\n",
  "sourcePath": "D:\\cp\\flutter\\blockChain\\finalYear\\guide\\contracts\\Guide.sol",
  "compiler": {
    "name": "solc",
    "version": "0.8.13+commit.abaa5c0e.Emscripten.clang"
  },
  "schemaVersion": "3.4.7",
  "updatedAt": "2022-05-24T02:24:05.954Z",
  "networkType": "ethereum",
  "devdoc": {
    "kind": "dev",
    "methods": {},
    "version": 1
  },
  "userdoc": {
    "kind": "user",
    "methods": {},
    "version": 1
  }
}