{
  "contractName": "Guide",
  "abi": [
    {
      "inputs": [
        {
          "internalType": "address[]",
          "name": "mainNodeAddress",
          "type": "address[]"
        },
        {
          "internalType": "string[]",
          "name": "institutionType",
          "type": "string[]"
        }
      ],
      "stateMutability": "nonpayable",
      "type": "constructor"
    },
    {
      "inputs": [
        {
          "internalType": "int32",
          "name": "",
          "type": "int32"
        }
      ],
      "name": "certificates",
      "outputs": [
        {
          "internalType": "int32",
          "name": "certificateId",
          "type": "int32"
        },
        {
          "internalType": "int256",
          "name": "certType",
          "type": "int256"
        },
        {
          "internalType": "int256",
          "name": "dateIssue",
          "type": "int256"
        },
        {
          "internalType": "int256",
          "name": "dateExpire",
          "type": "int256"
        },
        {
          "internalType": "address",
          "name": "issuer",
          "type": "address"
        },
        {
          "internalType": "address",
          "name": "issedAgainst",
          "type": "address"
        },
        {
          "internalType": "bool",
          "name": "isPublic",
          "type": "bool"
        },
        {
          "internalType": "string",
          "name": "data",
          "type": "string"
        }
      ],
      "stateMutability": "view",
      "type": "function",
      "constant": true
    },
    {
      "inputs": [
        {
          "internalType": "address",
          "name": "",
          "type": "address"
        }
      ],
      "name": "institutionProfile",
      "outputs": [
        {
          "internalType": "bool",
          "name": "isVerified",
          "type": "bool"
        },
        {
          "internalType": "string",
          "name": "institutionType",
          "type": "string"
        },
        {
          "internalType": "bool",
          "name": "mainInstitution",
          "type": "bool"
        },
        {
          "internalType": "int256",
          "name": "typeInt",
          "type": "int256"
        },
        {
          "internalType": "address",
          "name": "verifier",
          "type": "address"
        }
      ],
      "stateMutability": "view",
      "type": "function",
      "constant": true
    },
    {
      "inputs": [],
      "name": "owner",
      "outputs": [
        {
          "internalType": "address",
          "name": "",
          "type": "address"
        }
      ],
      "stateMutability": "view",
      "type": "function",
      "constant": true
    },
    {
      "inputs": [
        {
          "internalType": "address",
          "name": "",
          "type": "address"
        }
      ],
      "name": "userProfiles",
      "outputs": [
        {
          "internalType": "address",
          "name": "userAddress",
          "type": "address"
        },
        {
          "internalType": "string",
          "name": "userName",
          "type": "string"
        }
      ],
      "stateMutability": "view",
      "type": "function",
      "constant": true
    },
    {
      "inputs": [],
      "name": "RegisterUser",
      "outputs": [
        {
          "internalType": "address",
          "name": "",
          "type": "address"
        }
      ],
      "stateMutability": "nonpayable",
      "type": "function"
    },
    {
      "inputs": [
        {
          "internalType": "string",
          "name": "institutionType",
          "type": "string"
        }
      ],
      "name": "RegisterInstitution",
      "outputs": [
        {
          "internalType": "address",
          "name": "",
          "type": "address"
        }
      ],
      "stateMutability": "nonpayable",
      "type": "function"
    },
    {
      "inputs": [
        {
          "internalType": "int32",
          "name": "_certificateId",
          "type": "int32"
        },
        {
          "internalType": "address",
          "name": "_institutionAddress",
          "type": "address"
        }
      ],
      "name": "grantCertificateAccessInstitution",
      "outputs": [],
      "stateMutability": "nonpayable",
      "type": "function"
    },
    {
      "inputs": [
        {
          "internalType": "int32",
          "name": "ceri",
          "type": "int32"
        }
      ],
      "name": "getCertifDebug",
      "outputs": [
        {
          "components": [
            {
              "internalType": "int32",
              "name": "certificateId",
              "type": "int32"
            },
            {
              "internalType": "int256",
              "name": "certType",
              "type": "int256"
            },
            {
              "internalType": "int256",
              "name": "dateIssue",
              "type": "int256"
            },
            {
              "internalType": "int256",
              "name": "dateExpire",
              "type": "int256"
            },
            {
              "internalType": "address",
              "name": "issuer",
              "type": "address"
            },
            {
              "internalType": "address",
              "name": "issedAgainst",
              "type": "address"
            },
            {
              "internalType": "address[]",
              "name": "taggedInstutions",
              "type": "address[]"
            },
            {
              "internalType": "bool[]",
              "name": "taggeInstitutionApproved",
              "type": "bool[]"
            },
            {
              "internalType": "bool",
              "name": "isPublic",
              "type": "bool"
            },
            {
              "internalType": "address[]",
              "name": "accessGranted",
              "type": "address[]"
            },
            {
              "internalType": "string",
              "name": "data",
              "type": "string"
            }
          ],
          "internalType": "struct Guide.Certificate",
          "name": "cert",
          "type": "tuple"
        }
      ],
      "stateMutability": "view",
      "type": "function",
      "constant": true
    },
    {
      "inputs": [
        {
          "internalType": "int256",
          "name": "certType",
          "type": "int256"
        },
        {
          "internalType": "int256",
          "name": "dateIssue",
          "type": "int256"
        },
        {
          "internalType": "int256",
          "name": "dateExpire",
          "type": "int256"
        },
        {
          "internalType": "address",
          "name": "issedAgainst",
          "type": "address"
        },
        {
          "internalType": "address[]",
          "name": "taggedInstutions",
          "type": "address[]"
        },
        {
          "internalType": "bool",
          "name": "isPublic",
          "type": "bool"
        },
        {
          "internalType": "string",
          "name": "data",
          "type": "string"
        }
      ],
      "name": "publishCertificate",
      "outputs": [
        {
          "internalType": "int32",
          "name": "",
          "type": "int32"
        }
      ],
      "stateMutability": "nonpayable",
      "type": "function"
    },
    {
      "inputs": [
        {
          "internalType": "address",
          "name": "issedAgainst",
          "type": "address"
        }
      ],
      "name": "GrantVerification",
      "outputs": [],
      "stateMutability": "nonpayable",
      "type": "function"
    },
    {
      "inputs": [
        {
          "internalType": "address",
          "name": "account",
          "type": "address"
        }
      ],
      "name": "getRole",
      "outputs": [
        {
          "components": [
            {
              "internalType": "bool",
              "name": "isVerified",
              "type": "bool"
            },
            {
              "internalType": "string",
              "name": "institutionType",
              "type": "string"
            },
            {
              "internalType": "bool",
              "name": "mainInstitution",
              "type": "bool"
            },
            {
              "internalType": "int256",
              "name": "typeInt",
              "type": "int256"
            },
            {
              "internalType": "address",
              "name": "verifier",
              "type": "address"
            }
          ],
          "internalType": "struct Guide.Institution",
          "name": "",
          "type": "tuple"
        }
      ],
      "stateMutability": "view",
      "type": "function",
      "constant": true
    },
    {
      "inputs": [
        {
          "internalType": "int32",
          "name": "certificateId",
          "type": "int32"
        },
        {
          "internalType": "address",
          "name": "account",
          "type": "address"
        }
      ],
      "name": "grantCertificateaccess",
      "outputs": [],
      "stateMutability": "nonpayable",
      "type": "function"
    },
    {
      "inputs": [
        {
          "internalType": "int32",
          "name": "certIdCurrent",
          "type": "int32"
        }
      ],
      "name": "getCertificate",
      "outputs": [
        {
          "components": [
            {
              "internalType": "int32",
              "name": "certificateId",
              "type": "int32"
            },
            {
              "internalType": "int256",
              "name": "certType",
              "type": "int256"
            },
            {
              "internalType": "int256",
              "name": "dateIssue",
              "type": "int256"
            },
            {
              "internalType": "int256",
              "name": "dateExpire",
              "type": "int256"
            },
            {
              "internalType": "address",
              "name": "issuer",
              "type": "address"
            },
            {
              "internalType": "address",
              "name": "issedAgainst",
              "type": "address"
            },
            {
              "internalType": "address[]",
              "name": "taggedInstutions",
              "type": "address[]"
            },
            {
              "internalType": "bool[]",
              "name": "taggeInstitutionApproved",
              "type": "bool[]"
            },
            {
              "internalType": "bool",
              "name": "isPublic",
              "type": "bool"
            },
            {
              "internalType": "address[]",
              "name": "accessGranted",
              "type": "address[]"
            },
            {
              "internalType": "string",
              "name": "data",
              "type": "string"
            }
          ],
          "internalType": "struct Guide.Certificate",
          "name": "",
          "type": "tuple"
        }
      ],
      "stateMutability": "view",
      "type": "function",
      "constant": true
    },
    {
      "inputs": [],
      "name": "getCurrentUserCertificateIDs",
      "outputs": [
        {
          "internalType": "int32[]",
          "name": "",
          "type": "int32[]"
        }
      ],
      "stateMutability": "view",
      "type": "function",
      "constant": true
    }
  ],
  "bytecode": "0x60806040523480156200001157600080fd5b5060405162003c4a38038062003c4a833981810160405281019062000037919062000864565b60008060146101000a81548163ffffffff021916908360030b63ffffffff160217905550336000806101000a81548173ffffffffffffffffffffffffffffffffffffffff021916908373ffffffffffffffffffffffffffffffffffffffff16021790555060005b82518110156200012b5762000117838281518110620000c257620000c1620008e9565b5b6020026020010151838381518110620000e057620000df620008e9565b5b6020026020010151600160008054906101000a900473ffffffffffffffffffffffffffffffffffffffff166200013460201b60201c565b80620001239062000951565b90506200009e565b50505062000a02565b81156200029d5760006040518060a001604052806001151581526020018581526020016001151581526020016001815260200160008054906101000a900473ffffffffffffffffffffffffffffffffffffffff1673ffffffffffffffffffffffffffffffffffffffff16815250905080600260008773ffffffffffffffffffffffffffffffffffffffff1673ffffffffffffffffffffffffffffffffffffffff16815260200190815260200160002060008201518160000160006101000a81548160ff021916908315150217905550602082015181600101908051906020019062000221929190620003e0565b5060408201518160020160006101000a81548160ff0219169083151502179055506060820151816003015560808201518160040160006101000a81548173ffffffffffffffffffffffffffffffffffffffff021916908373ffffffffffffffffffffffffffffffffffffffff16021790555090505050620003da565b60006040518060a00160405280600115158152602001858152602001600015158152602001600181526020018373ffffffffffffffffffffffffffffffffffffffff16815250905080600260008773ffffffffffffffffffffffffffffffffffffffff1673ffffffffffffffffffffffffffffffffffffffff16815260200190815260200160002060008201518160000160006101000a81548160ff021916908315150217905550602082015181600101908051906020019062000363929190620003e0565b5060408201518160020160006101000a81548160ff0219169083151502179055506060820151816003015560808201518160040160006101000a81548173ffffffffffffffffffffffffffffffffffffffff021916908373ffffffffffffffffffffffffffffffffffffffff160217905550905050505b50505050565b828054620003ee90620009cd565b90600052602060002090601f0160209004810192826200041257600085556200045e565b82601f106200042d57805160ff19168380011785556200045e565b828001600101855582156200045e579182015b828111156200045d57825182559160200191906001019062000440565b5b5090506200046d919062000471565b5090565b5b808211156200048c57600081600090555060010162000472565b5090565b6000604051905090565b600080fd5b600080fd5b600080fd5b6000601f19601f8301169050919050565b7f4e487b7100000000000000000000000000000000000000000000000000000000600052604160045260246000fd5b620004f482620004a9565b810181811067ffffffffffffffff82111715620005165762000515620004ba565b5b80604052505050565b60006200052b62000490565b9050620005398282620004e9565b919050565b600067ffffffffffffffff8211156200055c576200055b620004ba565b5b602082029050602081019050919050565b600080fd5b600073ffffffffffffffffffffffffffffffffffffffff82169050919050565b60006200059f8262000572565b9050919050565b620005b18162000592565b8114620005bd57600080fd5b50565b600081519050620005d181620005a6565b92915050565b6000620005ee620005e8846200053e565b6200051f565b905080838252602082019050602084028301858111156200061457620006136200056d565b5b835b818110156200064157806200062c8882620005c0565b84526020840193505060208101905062000616565b5050509392505050565b600082601f830112620006635762000662620004a4565b5b815162000675848260208601620005d7565b91505092915050565b600067ffffffffffffffff8211156200069c576200069b620004ba565b5b602082029050602081019050919050565b600080fd5b600067ffffffffffffffff821115620006d057620006cf620004ba565b5b620006db82620004a9565b9050602081019050919050565b60005b8381101562000708578082015181840152602081019050620006eb565b8381111562000718576000848401525b50505050565b6000620007356200072f84620006b2565b6200051f565b905082815260208101848484011115620007545762000753620006ad565b5b62000761848285620006e8565b509392505050565b600082601f830112620007815762000780620004a4565b5b8151620007938482602086016200071e565b91505092915050565b6000620007b3620007ad846200067e565b6200051f565b90508083825260208201905060208402830185811115620007d957620007d86200056d565b5b835b818110156200082757805167ffffffffffffffff811115620008025762000801620004a4565b5b80860162000811898262000769565b85526020850194505050602081019050620007db565b5050509392505050565b600082601f830112620008495762000848620004a4565b5b81516200085b8482602086016200079c565b91505092915050565b600080604083850312156200087e576200087d6200049a565b5b600083015167ffffffffffffffff8111156200089f576200089e6200049f565b5b620008ad858286016200064b565b925050602083015167ffffffffffffffff811115620008d157620008d06200049f565b5b620008df8582860162000831565b9150509250929050565b7f4e487b7100000000000000000000000000000000000000000000000000000000600052603260045260246000fd5b7f4e487b7100000000000000000000000000000000000000000000000000000000600052601160045260246000fd5b6000819050919050565b60006200095e8262000947565b91507fffffffffffffffffffffffffffffffffffffffffffffffffffffffffffffffff820362000993576200099262000918565b5b600182019050919050565b7f4e487b7100000000000000000000000000000000000000000000000000000000600052602260045260246000fd5b60006002820490506001821680620009e657607f821691505b602082108103620009fc57620009fb6200099e565b5b50919050565b6132388062000a126000396000f3fe608060405234801561001057600080fd5b50600436106100ea5760003560e01c8063442767331161008c57806396bee6031161006657806396bee603146102745780639f4900e014610292578063c0cf2af6146102c2578063cd58b0b5146102f2576100ea565b8063442767331461020a5780635e64f86a1461023a5780638da5cb5b14610256576100ea565b806324986631116100c8578063249866311461016d578063314e6673146101a1578063332d56d7146101bd5780633b03d1e8146101ee576100ea565b80630f229e58146100ef5780630f261a3b1461011f578063189e92ae1461014f575b600080fd5b610109600480360381019061010491906123fd565b610329565b60405161011691906127a9565b60405180910390f35b61013960048036038101906101349190612a4c565b61068a565b6040516101469190612b35565b60405180910390f35b610157610a65565b6040516101649190612b5f565b60405180910390f35b61018760048036038101906101829190612b7a565b610b7d565b604051610198959493929190612c0f565b60405180910390f35b6101bb60048036038101906101b69190612b7a565b610c75565b005b6101d760048036038101906101d29190612b7a565b610dd6565b6040516101e5929190612c69565b60405180910390f35b61020860048036038101906102039190612c99565b610ea2565b005b610224600480360381019061021f9190612b7a565b611058565b6040516102319190612d4f565b60405180910390f35b610254600480360381019061024f9190612c99565b6111d9565b005b61025e611308565b60405161026b9190612b5f565b60405180910390f35b61027c61132c565b6040516102899190612e20565b60405180910390f35b6102ac60048036038101906102a79190612e42565b6113ea565b6040516102b99190612b5f565b60405180910390f35b6102dc60048036038101906102d791906123fd565b611491565b6040516102e991906127a9565b60405180910390f35b61030c600480360381019061030791906123fd565b611c8b565b604051610320989796959493929190612e8b565b60405180910390f35b610331612125565b600360008360030b60030b8152602001908152602001600020604051806101600160405290816000820160009054906101000a900460030b60030b60030b81526020016001820154815260200160028201548152602001600382015481526020016004820160009054906101000a900473ffffffffffffffffffffffffffffffffffffffff1673ffffffffffffffffffffffffffffffffffffffff1673ffffffffffffffffffffffffffffffffffffffff1681526020016005820160009054906101000a900473ffffffffffffffffffffffffffffffffffffffff1673ffffffffffffffffffffffffffffffffffffffff1673ffffffffffffffffffffffffffffffffffffffff168152602001600682018054806020026020016040519081016040528092919081815260200182805480156104c257602002820191906000526020600020905b8160009054906101000a900473ffffffffffffffffffffffffffffffffffffffff1673ffffffffffffffffffffffffffffffffffffffff1681526020019060010190808311610478575b505050505081526020016007820180548060200260200160405190810160405280929190818152602001828054801561053f57602002820191906000526020600020906000905b82829054906101000a900460ff161515815260200190600101906020826000010492830192600103820291508084116105095790505b505050505081526020016008820160009054906101000a900460ff16151515158152602001600982018054806020026020016040519081016040528092919081815260200182805480156105e857602002820191906000526020600020905b8160009054906101000a900473ffffffffffffffffffffffffffffffffffffffff1673ffffffffffffffffffffffffffffffffffffffff168152602001906001019080831161059e575b50505050508152602001600a8201805461060190612f3f565b80601f016020809104026020016040519081016040528092919081815260200182805461062d90612f3f565b801561067a5780601f1061064f5761010080835404028352916020019161067a565b820191906000526020600020905b81548152906001019060200180831161065d57829003601f168201915b5050505050815250509050919050565b600080601481819054906101000a900460030b809291906106aa90612f9f565b91906101000a81548163ffffffff021916908360030b63ffffffff160217905550506000600360008060149054906101000a900460030b60030b60030b81526020019081526020016000209050600060149054906101000a900460030b8160000160006101000a81548163ffffffff021916908360030b63ffffffff160217905550888160010181905550878160020181905550868160030181905550338160040160006101000a81548173ffffffffffffffffffffffffffffffffffffffff021916908373ffffffffffffffffffffffffffffffffffffffff160217905550858160050160006101000a81548173ffffffffffffffffffffffffffffffffffffffff021916908373ffffffffffffffffffffffffffffffffffffffff160217905550848160060190805190602001906107e59291906121b0565b50838160080160006101000a81548160ff02191690831515021790555060405180604001604052803373ffffffffffffffffffffffffffffffffffffffff1673ffffffffffffffffffffffffffffffffffffffff1681526020018773ffffffffffffffffffffffffffffffffffffffff1673ffffffffffffffffffffffffffffffffffffffff168152508160090190600261088192919061223a565b508281600a01908051906020019061089a9291906122c4565b5060005b855181101561098d573373ffffffffffffffffffffffffffffffffffffffff168682815181106108d1576108d0612fcb565b5b602002602001015173ffffffffffffffffffffffffffffffffffffffff161461093a57600182600701828154811061090c5761090b612fcb565b5b90600052602060002090602091828204019190066101000a81548160ff02191690831515021790555061097c565b600082600701828154811061095257610951612fcb565b5b90600052602060002090602091828204019190066101000a81548160ff0219169083151502179055505b8061098690613004565b905061089e565b50600160008773ffffffffffffffffffffffffffffffffffffffff1673ffffffffffffffffffffffffffffffffffffffff168152602001908152602001600020600201600060149054906101000a900460030b90806001815401808255809150506001900390600052602060002090600891828204019190066004029091909190916101000a81548163ffffffff021916908360030b63ffffffff160217905550610a47600060149054906101000a900460030b86611db5565b600060149054906101000a900460030b915050979650505050505050565b600080600160003373ffffffffffffffffffffffffffffffffffffffff1673ffffffffffffffffffffffffffffffffffffffff1681526020019081526020016000209050338160000160006101000a81548173ffffffffffffffffffffffffffffffffffffffff021916908373ffffffffffffffffffffffffffffffffffffffff16021790555060405180602001604052806000815250816001019080519060200190610b139291906122c4565b50600160003373ffffffffffffffffffffffffffffffffffffffff1673ffffffffffffffffffffffffffffffffffffffff16815260200190815260200160002060000160009054906101000a900473ffffffffffffffffffffffffffffffffffffffff1691505090565b60026020528060005260406000206000915090508060000160009054906101000a900460ff1690806001018054610bb390612f3f565b80601f0160208091040260200160405190810160405280929190818152602001828054610bdf90612f3f565b8015610c2c5780601f10610c0157610100808354040283529160200191610c2c565b820191906000526020600020905b815481529060010190602001808311610c0f57829003601f168201915b5050505050908060020160009054906101000a900460ff16908060030154908060040160009054906101000a900473ffffffffffffffffffffffffffffffffffffffff16905085565b336000600260008373ffffffffffffffffffffffffffffffffffffffff1673ffffffffffffffffffffffffffffffffffffffff1681526020019081526020016000206003015413610cfb576040517f08c379a0000000000000000000000000000000000000000000000000000000008152600401610cf2906130be565b60405180910390fd5b610dd282600260008573ffffffffffffffffffffffffffffffffffffffff1673ffffffffffffffffffffffffffffffffffffffff1681526020019081526020016000206001018054610d4c90612f3f565b80601f0160208091040260200160405190810160405280929190818152602001828054610d7890612f3f565b8015610dc55780601f10610d9a57610100808354040283529160200191610dc5565b820191906000526020600020905b815481529060010190602001808311610da857829003601f168201915b5050505050600033611e7f565b5050565b60016020528060005260406000206000915090508060000160009054906101000a900473ffffffffffffffffffffffffffffffffffffffff1690806001018054610e1f90612f3f565b80601f0160208091040260200160405190810160405280929190818152602001828054610e4b90612f3f565b8015610e985780601f10610e6d57610100808354040283529160200191610e98565b820191906000526020600020905b815481529060010190602001808311610e7b57829003601f168201915b5050505050905082565b81338073ffffffffffffffffffffffffffffffffffffffff16600360008460030b60030b815260200190815260200160002060050160009054906101000a900473ffffffffffffffffffffffffffffffffffffffff1673ffffffffffffffffffffffffffffffffffffffff1614610f4e576040517f08c379a0000000000000000000000000000000000000000000000000000000008152600401610f4590613150565b60405180910390fd5b826000600260008373ffffffffffffffffffffffffffffffffffffffff1673ffffffffffffffffffffffffffffffffffffffff1681526020019081526020016000206003015413610fd4576040517f08c379a0000000000000000000000000000000000000000000000000000000008152600401610fcb906130be565b60405180910390fd5b600360008660030b60030b8152602001908152602001600020600901849080600181540180825580915050600190039060005260206000200160009091909190916101000a81548173ffffffffffffffffffffffffffffffffffffffff021916908373ffffffffffffffffffffffffffffffffffffffff1602179055505050505050565b61106061234a565b600260008373ffffffffffffffffffffffffffffffffffffffff1673ffffffffffffffffffffffffffffffffffffffff1681526020019081526020016000206040518060a00160405290816000820160009054906101000a900460ff161515151581526020016001820180546110d590612f3f565b80601f016020809104026020016040519081016040528092919081815260200182805461110190612f3f565b801561114e5780601f106111235761010080835404028352916020019161114e565b820191906000526020600020905b81548152906001019060200180831161113157829003601f168201915b505050505081526020016002820160009054906101000a900460ff16151515158152602001600382015481526020016004820160009054906101000a900473ffffffffffffffffffffffffffffffffffffffff1673ffffffffffffffffffffffffffffffffffffffff1673ffffffffffffffffffffffffffffffffffffffff16815250509050919050565b81338073ffffffffffffffffffffffffffffffffffffffff16600360008460030b60030b815260200190815260200160002060050160009054906101000a900473ffffffffffffffffffffffffffffffffffffffff1673ffffffffffffffffffffffffffffffffffffffff1614611285576040517f08c379a000000000000000000000000000000000000000000000000000000000815260040161127c90613150565b60405180910390fd5b600360008560030b60030b8152602001908152602001600020600901839080600181540180825580915050600190039060005260206000200160009091909190916101000a81548173ffffffffffffffffffffffffffffffffffffffff021916908373ffffffffffffffffffffffffffffffffffffffff16021790555050505050565b60008054906101000a900473ffffffffffffffffffffffffffffffffffffffff1681565b6060600160003373ffffffffffffffffffffffffffffffffffffffff1673ffffffffffffffffffffffffffffffffffffffff1681526020019081526020016000206002018054806020026020016040519081016040528092919081815260200182805480156113e057602002820191906000526020600020906000905b82829054906101000a900460030b60030b815260200190600401906020826003010492830192600103820291508084116113a95790505b5050505050905090565b600080600260003373ffffffffffffffffffffffffffffffffffffffff1673ffffffffffffffffffffffffffffffffffffffff168152602001908152602001600020905060008160000160006101000a81548160ff021916908315150217905550828160010190805190602001906114639291906122c4565b5060008160020160006101000a81548160ff0219169083151502179055506000816003018190555050919050565b611499612125565b600360008360030b60030b815260200190815260200160002060080160009054906101000a900460ff161561182157600360008360030b60030b8152602001908152602001600020604051806101600160405290816000820160009054906101000a900460030b60030b60030b81526020016001820154815260200160028201548152602001600382015481526020016004820160009054906101000a900473ffffffffffffffffffffffffffffffffffffffff1673ffffffffffffffffffffffffffffffffffffffff1673ffffffffffffffffffffffffffffffffffffffff1681526020016005820160009054906101000a900473ffffffffffffffffffffffffffffffffffffffff1673ffffffffffffffffffffffffffffffffffffffff1673ffffffffffffffffffffffffffffffffffffffff1681526020016006820180548060200260200160405190810160405280929190818152602001828054801561165957602002820191906000526020600020905b8160009054906101000a900473ffffffffffffffffffffffffffffffffffffffff1673ffffffffffffffffffffffffffffffffffffffff168152602001906001019080831161160f575b50505050508152602001600782018054806020026020016040519081016040528092919081815260200182805480156116d657602002820191906000526020600020906000905b82829054906101000a900460ff161515815260200190600101906020826000010492830192600103820291508084116116a05790505b505050505081526020016008820160009054906101000a900460ff161515151581526020016009820180548060200260200160405190810160405280929190818152602001828054801561177f57602002820191906000526020600020905b8160009054906101000a900473ffffffffffffffffffffffffffffffffffffffff1673ffffffffffffffffffffffffffffffffffffffff1681526020019060010190808311611735575b50505050508152602001600a8201805461179890612f3f565b80601f01602080910402602001604051908101604052809291908181526020018280546117c490612f3f565b80156118115780601f106117e657610100808354040283529160200191611811565b820191906000526020600020905b8154815290600101906020018083116117f457829003601f168201915b5050505050815250509050611c86565b60005b600360008460030b60030b815260200190815260200160002060090180549050811015611c43573373ffffffffffffffffffffffffffffffffffffffff16600360008560030b60030b815260200190815260200160002060090182815481106118905761188f612fcb565b5b9060005260206000200160009054906101000a900473ffffffffffffffffffffffffffffffffffffffff1673ffffffffffffffffffffffffffffffffffffffff1603611c3057600360008460030b60030b8152602001908152602001600020604051806101600160405290816000820160009054906101000a900460030b60030b60030b81526020016001820154815260200160028201548152602001600382015481526020016004820160009054906101000a900473ffffffffffffffffffffffffffffffffffffffff1673ffffffffffffffffffffffffffffffffffffffff1673ffffffffffffffffffffffffffffffffffffffff1681526020016005820160009054906101000a900473ffffffffffffffffffffffffffffffffffffffff1673ffffffffffffffffffffffffffffffffffffffff1673ffffffffffffffffffffffffffffffffffffffff16815260200160068201805480602002602001604051908101604052809291908181526020018280548015611a6757602002820191906000526020600020905b8160009054906101000a900473ffffffffffffffffffffffffffffffffffffffff1673ffffffffffffffffffffffffffffffffffffffff1681526020019060010190808311611a1d575b5050505050815260200160078201805480602002602001604051908101604052809291908181526020018280548015611ae457602002820191906000526020600020906000905b82829054906101000a900460ff16151581526020019060010190602082600001049283019260010382029150808411611aae5790505b505050505081526020016008820160009054906101000a900460ff1615151515815260200160098201805480602002602001604051908101604052809291908181526020018280548015611b8d57602002820191906000526020600020905b8160009054906101000a900473ffffffffffffffffffffffffffffffffffffffff1673ffffffffffffffffffffffffffffffffffffffff1681526020019060010190808311611b43575b50505050508152602001600a82018054611ba690612f3f565b80601f0160208091040260200160405190810160405280929190818152602001828054611bd290612f3f565b8015611c1f5780601f10611bf457610100808354040283529160200191611c1f565b820191906000526020600020905b815481529060010190602001808311611c0257829003601f168201915b505050505081525050915050611c86565b8080611c3b90613004565b915050611824565b506000611c85576040517f08c379a0000000000000000000000000000000000000000000000000000000008152600401611c7c906131e2565b60405180910390fd5b5b919050565b60036020528060005260406000206000915090508060000160009054906101000a900460030b908060010154908060020154908060030154908060040160009054906101000a900473ffffffffffffffffffffffffffffffffffffffff16908060050160009054906101000a900473ffffffffffffffffffffffffffffffffffffffff16908060080160009054906101000a900460ff169080600a018054611d3290612f3f565b80601f0160208091040260200160405190810160405280929190818152602001828054611d5e90612f3f565b8015611dab5780601f10611d8057610100808354040283529160200191611dab565b820191906000526020600020905b815481529060010190602001808311611d8e57829003601f168201915b5050505050905088565b60005b8151811015611e7a5760046000838381518110611dd857611dd7612fcb565b5b602002602001015173ffffffffffffffffffffffffffffffffffffffff1673ffffffffffffffffffffffffffffffffffffffff1681526020019081526020016000208390806001815401808255809150506001900390600052602060002090600891828204019190066004029091909190916101000a81548163ffffffff021916908360030b63ffffffff16021790555080611e7390613004565b9050611db8565b505050565b8115611fe45760006040518060a001604052806001151581526020018581526020016001151581526020016001815260200160008054906101000a900473ffffffffffffffffffffffffffffffffffffffff1673ffffffffffffffffffffffffffffffffffffffff16815250905080600260008773ffffffffffffffffffffffffffffffffffffffff1673ffffffffffffffffffffffffffffffffffffffff16815260200190815260200160002060008201518160000160006101000a81548160ff0219169083151502179055506020820151816001019080519060200190611f699291906122c4565b5060408201518160020160006101000a81548160ff0219169083151502179055506060820151816003015560808201518160040160006101000a81548173ffffffffffffffffffffffffffffffffffffffff021916908373ffffffffffffffffffffffffffffffffffffffff1602179055509050505061211f565b60006040518060a00160405280600115158152602001858152602001600015158152602001600181526020018373ffffffffffffffffffffffffffffffffffffffff16815250905080600260008773ffffffffffffffffffffffffffffffffffffffff1673ffffffffffffffffffffffffffffffffffffffff16815260200190815260200160002060008201518160000160006101000a81548160ff02191690831515021790555060208201518160010190805190602001906120a89291906122c4565b5060408201518160020160006101000a81548160ff0219169083151502179055506060820151816003015560808201518160040160006101000a81548173ffffffffffffffffffffffffffffffffffffffff021916908373ffffffffffffffffffffffffffffffffffffffff160217905550905050505b50505050565b604051806101600160405280600060030b8152602001600081526020016000815260200160008152602001600073ffffffffffffffffffffffffffffffffffffffff168152602001600073ffffffffffffffffffffffffffffffffffffffff168152602001606081526020016060815260200160001515815260200160608152602001606081525090565b828054828255906000526020600020908101928215612229579160200282015b828111156122285782518260006101000a81548173ffffffffffffffffffffffffffffffffffffffff021916908373ffffffffffffffffffffffffffffffffffffffff160217905550916020019190600101906121d0565b5b5090506122369190612393565b5090565b8280548282559060005260206000209081019282156122b3579160200282015b828111156122b25782518260006101000a81548173ffffffffffffffffffffffffffffffffffffffff021916908373ffffffffffffffffffffffffffffffffffffffff1602179055509160200191906001019061225a565b5b5090506122c09190612393565b5090565b8280546122d090612f3f565b90600052602060002090601f0160209004810192826122f25760008555612339565b82601f1061230b57805160ff1916838001178555612339565b82800160010185558215612339579182015b8281111561233857825182559160200191906001019061231d565b5b5090506123469190612393565b5090565b6040518060a001604052806000151581526020016060815260200160001515815260200160008152602001600073ffffffffffffffffffffffffffffffffffffffff1681525090565b5b808211156123ac576000816000905550600101612394565b5090565b6000604051905090565b600080fd5b600080fd5b60008160030b9050919050565b6123da816123c4565b81146123e557600080fd5b50565b6000813590506123f7816123d1565b92915050565b600060208284031215612413576124126123ba565b5b6000612421848285016123e8565b91505092915050565b612433816123c4565b82525050565b6000819050919050565b61244c81612439565b82525050565b600073ffffffffffffffffffffffffffffffffffffffff82169050919050565b600061247d82612452565b9050919050565b61248d81612472565b82525050565b600081519050919050565b600082825260208201905092915050565b6000819050602082019050919050565b60006124cb8383612484565b60208301905092915050565b6000602082019050919050565b60006124ef82612493565b6124f9818561249e565b9350612504836124af565b8060005b8381101561253557815161251c88826124bf565b9750612527836124d7565b925050600181019050612508565b5085935050505092915050565b600081519050919050565b600082825260208201905092915050565b6000819050602082019050919050565b60008115159050919050565b6125838161256e565b82525050565b6000612595838361257a565b60208301905092915050565b6000602082019050919050565b60006125b982612542565b6125c3818561254d565b93506125ce8361255e565b8060005b838110156125ff5781516125e68882612589565b97506125f1836125a1565b9250506001810190506125d2565b5085935050505092915050565b600081519050919050565b600082825260208201905092915050565b60005b8381101561264657808201518184015260208101905061262b565b83811115612655576000848401525b50505050565b6000601f19601f8301169050919050565b60006126778261260c565b6126818185612617565b9350612691818560208601612628565b61269a8161265b565b840191505092915050565b6000610160830160008301516126be600086018261242a565b5060208301516126d16020860182612443565b5060408301516126e46040860182612443565b5060608301516126f76060860182612443565b50608083015161270a6080860182612484565b5060a083015161271d60a0860182612484565b5060c083015184820360c086015261273582826124e4565b91505060e083015184820360e086015261274f82826125ae565b91505061010083015161276661010086018261257a565b5061012083015184820361012086015261278082826124e4565b91505061014083015184820361014086015261279c828261266c565b9150508091505092915050565b600060208201905081810360008301526127c381846126a5565b905092915050565b6127d481612439565b81146127df57600080fd5b50565b6000813590506127f1816127cb565b92915050565b61280081612472565b811461280b57600080fd5b50565b60008135905061281d816127f7565b92915050565b600080fd5b7f4e487b7100000000000000000000000000000000000000000000000000000000600052604160045260246000fd5b6128608261265b565b810181811067ffffffffffffffff8211171561287f5761287e612828565b5b80604052505050565b60006128926123b0565b905061289e8282612857565b919050565b600067ffffffffffffffff8211156128be576128bd612828565b5b602082029050602081019050919050565b600080fd5b60006128e76128e2846128a3565b612888565b9050808382526020820190506020840283018581111561290a576129096128cf565b5b835b81811015612933578061291f888261280e565b84526020840193505060208101905061290c565b5050509392505050565b600082601f83011261295257612951612823565b5b81356129628482602086016128d4565b91505092915050565b6129748161256e565b811461297f57600080fd5b50565b6000813590506129918161296b565b92915050565b600080fd5b600067ffffffffffffffff8211156129b7576129b6612828565b5b6129c08261265b565b9050602081019050919050565b82818337600083830152505050565b60006129ef6129ea8461299c565b612888565b905082815260208101848484011115612a0b57612a0a612997565b5b612a168482856129cd565b509392505050565b600082601f830112612a3357612a32612823565b5b8135612a438482602086016129dc565b91505092915050565b600080600080600080600060e0888a031215612a6b57612a6a6123ba565b5b6000612a798a828b016127e2565b9750506020612a8a8a828b016127e2565b9650506040612a9b8a828b016127e2565b9550506060612aac8a828b0161280e565b945050608088013567ffffffffffffffff811115612acd57612acc6123bf565b5b612ad98a828b0161293d565b93505060a0612aea8a828b01612982565b92505060c088013567ffffffffffffffff811115612b0b57612b0a6123bf565b5b612b178a828b01612a1e565b91505092959891949750929550565b612b2f816123c4565b82525050565b6000602082019050612b4a6000830184612b26565b92915050565b612b5981612472565b82525050565b6000602082019050612b746000830184612b50565b92915050565b600060208284031215612b9057612b8f6123ba565b5b6000612b9e8482850161280e565b91505092915050565b612bb08161256e565b82525050565b600082825260208201905092915050565b6000612bd28261260c565b612bdc8185612bb6565b9350612bec818560208601612628565b612bf58161265b565b840191505092915050565b612c0981612439565b82525050565b600060a082019050612c246000830188612ba7565b8181036020830152612c368187612bc7565b9050612c456040830186612ba7565b612c526060830185612c00565b612c5f6080830184612b50565b9695505050505050565b6000604082019050612c7e6000830185612b50565b8181036020830152612c908184612bc7565b90509392505050565b60008060408385031215612cb057612caf6123ba565b5b6000612cbe858286016123e8565b9250506020612ccf8582860161280e565b9150509250929050565b600060a083016000830151612cf1600086018261257a565b5060208301518482036020860152612d09828261266c565b9150506040830151612d1e604086018261257a565b506060830151612d316060860182612443565b506080830151612d446080860182612484565b508091505092915050565b60006020820190508181036000830152612d698184612cd9565b905092915050565b600081519050919050565b600082825260208201905092915050565b6000819050602082019050919050565b6000612da9838361242a565b60208301905092915050565b6000602082019050919050565b6000612dcd82612d71565b612dd78185612d7c565b9350612de283612d8d565b8060005b83811015612e13578151612dfa8882612d9d565b9750612e0583612db5565b925050600181019050612de6565b5085935050505092915050565b60006020820190508181036000830152612e3a8184612dc2565b905092915050565b600060208284031215612e5857612e576123ba565b5b600082013567ffffffffffffffff811115612e7657612e756123bf565b5b612e8284828501612a1e565b91505092915050565b600061010082019050612ea1600083018b612b26565b612eae602083018a612c00565b612ebb6040830189612c00565b612ec86060830188612c00565b612ed56080830187612b50565b612ee260a0830186612b50565b612eef60c0830185612ba7565b81810360e0830152612f018184612bc7565b90509998505050505050505050565b7f4e487b7100000000000000000000000000000000000000000000000000000000600052602260045260246000fd5b60006002820490506001821680612f5757607f821691505b602082108103612f6a57612f69612f10565b5b50919050565b7f4e487b7100000000000000000000000000000000000000000000000000000000600052601160045260246000fd5b6000612faa826123c4565b9150637fffffff8203612fc057612fbf612f70565b5b600182019050919050565b7f4e487b7100000000000000000000000000000000000000000000000000000000600052603260045260246000fd5b6000819050919050565b600061300f82612ffa565b91507fffffffffffffffffffffffffffffffffffffffffffffffffffffffffffffffff820361304157613040612f70565b5b600182019050919050565b7f4e6f742072657175657374656420766572696669636174696f6e206279204d6160008201527f696e4e6f64650000000000000000000000000000000000000000000000000000602082015250565b60006130a8602683612bb6565b91506130b38261304c565b604082019050919050565b600060208201905081810360008301526130d78161309b565b9050919050565b7f596f7520617265206e6f7420746865206f776e6572206f66207468697320636560008201527f7274696669636174650000000000000000000000000000000000000000000000602082015250565b600061313a602983612bb6565b9150613145826130de565b604082019050919050565b600060208201905081810360008301526131698161312d565b9050919050565b7f596f7520646f206e6f7420686176652061636365737320746f2074686973206360008201527f6572746966696361746500000000000000000000000000000000000000000000602082015250565b60006131cc602a83612bb6565b91506131d782613170565b604082019050919050565b600060208201905081810360008301526131fb816131bf565b905091905056fea2646970667358221220f58ea09e114ceffd9c12a9ca203597e11018f77bba3cacf63e86e9ab52ba6ffc64736f6c634300080d0033",
  "immutableReferences": {},
  "source": "// SPDX-License-Identifier: MIT \r\npragma solidity >=0.7.0 <0.9.0;\r\n\r\ncontract Guide {\r\n\r\n    address public owner;\r\n    int32 certId;\r\n    // uint public last_completed_migration;\r\n\r\n    \r\n    struct User{\r\n\r\n        address userAddress;\r\n        string userName;\r\n        int32[] certifatesIds;\r\n    }\r\n\r\n    struct Certificate{        \r\n        int32 certificateId;\r\n        int certType;\r\n        int256 dateIssue;\r\n        int256 dateExpire;\r\n        address issuer;\r\n        address issedAgainst;\r\n        address[] taggedInstutions;\r\n        bool [] taggeInstitutionApproved;\r\n        bool isPublic;\r\n        address[] accessGranted;\r\n        string data;\r\n\r\n    }\r\n\r\n    struct Institution{    \r\n        bool isVerified;\r\n        string institutionType;\r\n        bool mainInstitution;\r\n        int typeInt;\r\n        address verifier;\r\n    }\r\n\r\n    mapping (address=>User) public userProfiles;\r\n    mapping(address=>Institution) public institutionProfile;  \r\n    mapping(int32=>Certificate) public certificates;  \r\n    \r\n    mapping(address => int32[]) certTagRequest;         \r\n\r\n    constructor(address[] memory mainNodeAddress,string[] memory institutionType) public {\r\n        certId=0;\r\n        owner = msg.sender;\r\n      \r\n        for (uint256 i = 0; i < mainNodeAddress.length; ++i) {\r\n             _grantVerification(mainNodeAddress[i],institutionType[i],true,owner);\r\n        }\r\n    }\r\n\r\n\r\n    // modifier to check if certificate is of the requester\r\n    modifier ownerOfCertificate(int32 _certificateId,address msgSender) {\r\n        require(certificates[_certificateId].issedAgainst == msgSender,\"You are not the owner of this certificate\");\r\n        _;\r\n    }\r\n    \r\n\r\n// modifier to restrict restrict institution only events    \r\n    modifier restrictInstitutionOnly(address _institutionAddress) {\r\n        require(\r\n            institutionProfile[_institutionAddress].typeInt >0,\r\n            \"Not requested verification by MainNode\"\r\n        );\r\n        _;\r\n    }\r\n    \r\n    // Register User profile with the system\r\n    function  RegisterUser()public returns(address) {\r\n\r\n      User storage newUser = userProfiles[msg.sender];\r\n        newUser.userAddress = msg.sender;\r\n        newUser.userName = \"\";  \r\n        \r\n        return userProfiles[msg.sender].userAddress;\r\n\r\n    }\r\n\r\n\r\n    // Register Institution with address\r\n    // Institution not verified first\r\n    // Institution type is not main node\r\n    function  RegisterInstitution(string  memory institutionType)public returns(address) {\r\n\r\n      Institution storage newIns = institutionProfile[msg.sender];\r\n    \r\n        newIns.isVerified = false;\r\n        newIns.institutionType = institutionType;\r\n        newIns.mainInstitution = false;\r\n        newIns.typeInt = 0;\r\n        // newIns.verifier = ;\r\n  \r\n\r\n    }\r\n\r\n\r\n// give access to different institution to access certificate\r\n// add modifier to confirm its institution\r\nfunction grantCertificateAccessInstitution(int32 _certificateId,address _institutionAddress)public ownerOfCertificate(_certificateId,msg.sender)restrictInstitutionOnly(_institutionAddress){ \r\n    certificates[_certificateId].accessGranted.push(_institutionAddress);\r\n}\r\n\r\n\r\n\r\nfunction getCertifDebug(int32 ceri) public view returns(Certificate memory cert){\r\n    return certificates[ceri];\r\n}\r\n    // publish cer to mapping\r\n    // send requstt to tagged institutions\r\n    function publishCertificate(int certType,int256 dateIssue,int256 dateExpire,address issedAgainst,address[] memory taggedInstutions,bool isPublic,string memory data)  public returns(int32) {\r\n        // publishCertificate(121,34123,456,accounts[8],[],true,\"dam againsome shit here too\").send({from:accounts[0],gas:3000000}\r\n        // int32 certId=0;\r\n        certId++;\r\n\r\n        Certificate storage newCert = certificates[certId];\r\n        newCert.certificateId = certId;\r\n            newCert.certType = certType;\r\n            newCert.dateIssue = dateIssue;\r\n            newCert.dateExpire = dateExpire;\r\n            newCert.issuer = msg.sender;\r\n            newCert.issedAgainst = issedAgainst;\r\n            newCert.taggedInstutions = taggedInstutions;\r\n            newCert.isPublic = isPublic;\r\n            newCert.accessGranted = [msg.sender,issedAgainst];\r\n            newCert.data = data;\r\n            \r\n        //  making all approvals false\r\n        // TODO all false except institutionitself\r\n        for(uint256 i = 0; i < taggedInstutions.length; ++i){\r\n            if(taggedInstutions[i] != msg.sender){\r\n                newCert.taggeInstitutionApproved[i] = true;\r\n                continue;\r\n            }\r\n            newCert.taggeInstitutionApproved[i] = false;\r\n        }\r\n\r\n        userProfiles[issedAgainst].certifatesIds.push(certId);\r\n        requestCertTagVerification(certId,taggedInstutions);\r\n\r\n\r\n        // certificates[certId] = cert;\r\n        return certId;\r\n    }\r\n\r\n    // Requests Tagged Institutions verifies the certificates\r\n    function requestCertTagVerification(int32  requestedCertId,address[] memory instAddress) internal {\r\n        for (uint256 i = 0; i < instAddress.length; ++i) {\r\n            certTagRequest[instAddress[i]].push(requestedCertId);\r\n        }\r\n\r\n    }\r\n   \r\n    function GrantVerification(address issedAgainst)external restrictInstitutionOnly(msg.sender){   \r\n\r\n        _grantVerification(issedAgainst,institutionProfile[issedAgainst].institutionType,false,msg.sender);\r\n       \r\n\r\n    }        \r\n\r\n    // verified a node as a main node\r\n    function _grantVerification(address  account, string memory role,bool firstNode,address issuer) internal{\r\n        \r\n    //  emit GrantRole(_role,_account);\r\n    if(firstNode){\r\n\r\n    Institution memory book2= Institution(true,role,true,1,owner);\r\n    institutionProfile[account]=book2;\r\n    }\r\n    else{\r\n        Institution memory book2= Institution(true,role,false,1,issuer);\r\n        institutionProfile[account]=book2;\r\n    }\r\n    }\r\n\r\n     function getRole(address account) public view returns (Institution memory){\r\n    \r\n        // return institutionProfile[account].isVerified? \"verified\" : \"not verified\";\r\n        return institutionProfile[account];\r\n\r\n    }\r\n\r\n    // access granting for a certificate\r\n    // grant access if the certificate is issued to the function caller \r\n    function grantCertificateaccess(int32 certificateId,address account) public ownerOfCertificate(certificateId,msg.sender){\r\n\r\n\r\n        certificates[certificateId].accessGranted.push(account);\r\n      \r\n    }\r\n    \r\n    // return certifactes if the certificate is given access to be viewed;\r\n    function getCertificate(int32 certIdCurrent) public  view returns (Certificate memory){\r\n\r\n        // !TODO create access control dont just return all certificates\r\n        // current implementation of looping and searching high on gas\r\n\r\n        // certificates[certId].accessGranted.push(msg.sender);\r\n        if(certificates[certIdCurrent].isPublic){\r\n            return certificates[certIdCurrent];\r\n        }\r\n        else\r\n        {  for (uint i; i < certificates[certIdCurrent].accessGranted.length; i++) {\r\n            if(certificates[certIdCurrent].accessGranted[i]==msg.sender){\r\n                return certificates[certIdCurrent];\r\n            }\r\n\r\n        }       \r\n        }\r\n         require(false,\"You do not have access to this certificate\");\r\n\r\n\r\n        // return certificates[certId];\r\n    }\r\n\r\n    function getCurrentUserCertificateIDs() public view returns(int32[] memory){\r\n        return userProfiles[msg.sender].certifatesIds;    \r\n        }\r\n    \r\n    modifier restrictedOwner() {\r\n        require(\r\n            msg.sender == owner,\r\n            \"This function is restricted to the contract's owner\"\r\n        );\r\n        _;\r\n    }\r\n\r\n    \r\n}\r\n",
  "sourcePath": "D:\\cp\\flutter\\blockChain\\finalYear\\guide\\contracts\\Guide.sol",
  "compiler": {
    "name": "solc",
    "version": "0.8.13+commit.abaa5c0e.Emscripten.clang"
  },
  "schemaVersion": "3.4.7",
  "updatedAt": "2022-05-21T08:25:45.141Z",
  "networkType": "ethereum",
  "devdoc": {
    "kind": "dev",
    "methods": {},
    "version": 1
  },
  "userdoc": {
    "kind": "user",
    "methods": {},
    "version": 1
  }
}