{
  "contractName": "Guide",
  "abi": [
    {
      "inputs": [
        {
          "internalType": "address[]",
          "name": "mainNodeAddress",
          "type": "address[]"
        },
        {
          "internalType": "string[]",
          "name": "institutionType",
          "type": "string[]"
        }
      ],
      "stateMutability": "nonpayable",
      "type": "constructor"
    },
    {
      "inputs": [],
      "name": "owner",
      "outputs": [
        {
          "internalType": "address",
          "name": "",
          "type": "address"
        }
      ],
      "stateMutability": "view",
      "type": "function"
    },
    {
      "inputs": [],
      "name": "RegisterUser",
      "outputs": [
        {
          "internalType": "address",
          "name": "",
          "type": "address"
        }
      ],
      "stateMutability": "nonpayable",
      "type": "function"
    },
    {
      "inputs": [
        {
          "internalType": "string",
          "name": "institutionType",
          "type": "string"
        }
      ],
      "name": "RegisterInstitution",
      "outputs": [
        {
          "internalType": "address",
          "name": "",
          "type": "address"
        }
      ],
      "stateMutability": "nonpayable",
      "type": "function"
    },
    {
      "inputs": [
        {
          "internalType": "int32",
          "name": "_certificateId",
          "type": "int32"
        },
        {
          "internalType": "address",
          "name": "_institutionAddress",
          "type": "address"
        }
      ],
      "name": "grantCertificateAccessInstitution",
      "outputs": [],
      "stateMutability": "nonpayable",
      "type": "function"
    },
    {
      "inputs": [
        {
          "internalType": "int256",
          "name": "certType",
          "type": "int256"
        },
        {
          "internalType": "int256",
          "name": "dateIssue",
          "type": "int256"
        },
        {
          "internalType": "int256",
          "name": "dateExpire",
          "type": "int256"
        },
        {
          "internalType": "address",
          "name": "issuer",
          "type": "address"
        },
        {
          "internalType": "address",
          "name": "issedAgainst",
          "type": "address"
        },
        {
          "internalType": "address[]",
          "name": "taggedInstutions",
          "type": "address[]"
        },
        {
          "internalType": "bool",
          "name": "isPublic",
          "type": "bool"
        },
        {
          "internalType": "string",
          "name": "data",
          "type": "string"
        }
      ],
      "name": "publishCertificate",
      "outputs": [
        {
          "internalType": "int32",
          "name": "",
          "type": "int32"
        }
      ],
      "stateMutability": "nonpayable",
      "type": "function"
    },
    {
      "inputs": [
        {
          "internalType": "address",
          "name": "issedAgainst",
          "type": "address"
        }
      ],
      "name": "GrantVerification",
      "outputs": [],
      "stateMutability": "nonpayable",
      "type": "function"
    },
    {
      "inputs": [
        {
          "internalType": "address",
          "name": "account",
          "type": "address"
        }
      ],
      "name": "getRole",
      "outputs": [
        {
          "components": [
            {
              "internalType": "bool",
              "name": "isVerified",
              "type": "bool"
            },
            {
              "internalType": "string",
              "name": "institutionType",
              "type": "string"
            },
            {
              "internalType": "bool",
              "name": "mainInstitution",
              "type": "bool"
            },
            {
              "internalType": "int256",
              "name": "typeInt",
              "type": "int256"
            },
            {
              "internalType": "address",
              "name": "verifier",
              "type": "address"
            }
          ],
          "internalType": "struct Guide.Institution",
          "name": "",
          "type": "tuple"
        }
      ],
      "stateMutability": "view",
      "type": "function"
    },
    {
      "inputs": [
        {
          "internalType": "int32",
          "name": "certificateId",
          "type": "int32"
        },
        {
          "internalType": "address",
          "name": "account",
          "type": "address"
        }
      ],
      "name": "grantCertificateaccess",
      "outputs": [],
      "stateMutability": "nonpayable",
      "type": "function"
    },
    {
      "inputs": [
        {
          "internalType": "int32",
          "name": "certIdCurrent",
          "type": "int32"
        }
      ],
      "name": "getCertificate",
      "outputs": [
        {
          "components": [
            {
              "internalType": "int32",
              "name": "certificateId",
              "type": "int32"
            },
            {
              "internalType": "int256",
              "name": "certType",
              "type": "int256"
            },
            {
              "internalType": "int256",
              "name": "dateIssue",
              "type": "int256"
            },
            {
              "internalType": "int256",
              "name": "dateExpire",
              "type": "int256"
            },
            {
              "internalType": "address",
              "name": "issuer",
              "type": "address"
            },
            {
              "internalType": "address",
              "name": "issedAgainst",
              "type": "address"
            },
            {
              "internalType": "address[]",
              "name": "taggedInstutions",
              "type": "address[]"
            },
            {
              "internalType": "bool[]",
              "name": "taggeInstitutionApproved",
              "type": "bool[]"
            },
            {
              "internalType": "bool",
              "name": "isPublic",
              "type": "bool"
            },
            {
              "internalType": "address[]",
              "name": "accessGranted",
              "type": "address[]"
            },
            {
              "internalType": "string",
              "name": "data",
              "type": "string"
            }
          ],
          "internalType": "struct Guide.Certificate",
          "name": "",
          "type": "tuple"
        }
      ],
      "stateMutability": "view",
      "type": "function"
    },
    {
      "inputs": [],
      "name": "getCurrentUserCertificateIDs",
      "outputs": [
        {
          "internalType": "int32[]",
          "name": "",
          "type": "int32[]"
        }
      ],
      "stateMutability": "view",
      "type": "function"
    }
  ],
  "bytecode": "0x60806040523480156200001157600080fd5b50604051620033a0380380620033a0833981810160405281019062000037919062000864565b60008060146101000a81548163ffffffff021916908360030b63ffffffff160217905550336000806101000a81548173ffffffffffffffffffffffffffffffffffffffff021916908373ffffffffffffffffffffffffffffffffffffffff16021790555060005b82518110156200012b5762000117838281518110620000c257620000c1620008e9565b5b6020026020010151838381518110620000e057620000df620008e9565b5b6020026020010151600160008054906101000a900473ffffffffffffffffffffffffffffffffffffffff166200013460201b60201c565b80620001239062000951565b90506200009e565b50505062000a02565b81156200029d5760006040518060a001604052806001151581526020018581526020016001151581526020016001815260200160008054906101000a900473ffffffffffffffffffffffffffffffffffffffff1673ffffffffffffffffffffffffffffffffffffffff16815250905080600260008773ffffffffffffffffffffffffffffffffffffffff1673ffffffffffffffffffffffffffffffffffffffff16815260200190815260200160002060008201518160000160006101000a81548160ff021916908315150217905550602082015181600101908051906020019062000221929190620003e0565b5060408201518160020160006101000a81548160ff0219169083151502179055506060820151816003015560808201518160040160006101000a81548173ffffffffffffffffffffffffffffffffffffffff021916908373ffffffffffffffffffffffffffffffffffffffff16021790555090505050620003da565b60006040518060a00160405280600115158152602001858152602001600015158152602001600181526020018373ffffffffffffffffffffffffffffffffffffffff16815250905080600260008773ffffffffffffffffffffffffffffffffffffffff1673ffffffffffffffffffffffffffffffffffffffff16815260200190815260200160002060008201518160000160006101000a81548160ff021916908315150217905550602082015181600101908051906020019062000363929190620003e0565b5060408201518160020160006101000a81548160ff0219169083151502179055506060820151816003015560808201518160040160006101000a81548173ffffffffffffffffffffffffffffffffffffffff021916908373ffffffffffffffffffffffffffffffffffffffff160217905550905050505b50505050565b828054620003ee90620009cd565b90600052602060002090601f0160209004810192826200041257600085556200045e565b82601f106200042d57805160ff19168380011785556200045e565b828001600101855582156200045e579182015b828111156200045d57825182559160200191906001019062000440565b5b5090506200046d919062000471565b5090565b5b808211156200048c57600081600090555060010162000472565b5090565b6000604051905090565b600080fd5b600080fd5b600080fd5b6000601f19601f8301169050919050565b7f4e487b7100000000000000000000000000000000000000000000000000000000600052604160045260246000fd5b620004f482620004a9565b810181811067ffffffffffffffff82111715620005165762000515620004ba565b5b80604052505050565b60006200052b62000490565b9050620005398282620004e9565b919050565b600067ffffffffffffffff8211156200055c576200055b620004ba565b5b602082029050602081019050919050565b600080fd5b600073ffffffffffffffffffffffffffffffffffffffff82169050919050565b60006200059f8262000572565b9050919050565b620005b18162000592565b8114620005bd57600080fd5b50565b600081519050620005d181620005a6565b92915050565b6000620005ee620005e8846200053e565b6200051f565b905080838252602082019050602084028301858111156200061457620006136200056d565b5b835b818110156200064157806200062c8882620005c0565b84526020840193505060208101905062000616565b5050509392505050565b600082601f830112620006635762000662620004a4565b5b815162000675848260208601620005d7565b91505092915050565b600067ffffffffffffffff8211156200069c576200069b620004ba565b5b602082029050602081019050919050565b600080fd5b600067ffffffffffffffff821115620006d057620006cf620004ba565b5b620006db82620004a9565b9050602081019050919050565b60005b8381101562000708578082015181840152602081019050620006eb565b8381111562000718576000848401525b50505050565b6000620007356200072f84620006b2565b6200051f565b905082815260208101848484011115620007545762000753620006ad565b5b62000761848285620006e8565b509392505050565b600082601f830112620007815762000780620004a4565b5b8151620007938482602086016200071e565b91505092915050565b6000620007b3620007ad846200067e565b6200051f565b90508083825260208201905060208402830185811115620007d957620007d86200056d565b5b835b818110156200082757805167ffffffffffffffff811115620008025762000801620004a4565b5b80860162000811898262000769565b85526020850194505050602081019050620007db565b5050509392505050565b600082601f830112620008495762000848620004a4565b5b81516200085b8482602086016200079c565b91505092915050565b600080604083850312156200087e576200087d6200049a565b5b600083015167ffffffffffffffff8111156200089f576200089e6200049f565b5b620008ad858286016200064b565b925050602083015167ffffffffffffffff811115620008d157620008d06200049f565b5b620008df8582860162000831565b9150509250929050565b7f4e487b7100000000000000000000000000000000000000000000000000000000600052603260045260246000fd5b7f4e487b7100000000000000000000000000000000000000000000000000000000600052601160045260246000fd5b6000819050919050565b60006200095e8262000947565b91507fffffffffffffffffffffffffffffffffffffffffffffffffffffffffffffffff820362000993576200099262000918565b5b600182019050919050565b7f4e487b7100000000000000000000000000000000000000000000000000000000600052602260045260246000fd5b60006002820490506001821680620009e657607f821691505b602082108103620009fc57620009fb6200099e565b5b50919050565b61298e8062000a126000396000f3fe608060405234801561001057600080fd5b506004361061009e5760003560e01c80638da5cb5b116100665780638da5cb5b1461014557806396bee603146101635780639f4900e014610181578063a1c4d3d8146101b1578063c0cf2af6146101e15761009e565b8063189e92ae146100a3578063314e6673146100c15780633b03d1e8146100dd57806344276733146100f95780635e64f86a14610129575b600080fd5b6100ab610211565b6040516100b89190611c99565b60405180910390f35b6100db60048036038101906100d69190611cf4565b610329565b005b6100f760048036038101906100f29190611d5a565b61048a565b005b610113600480360381019061010e9190611cf4565b610640565b6040516101209190611eec565b60405180910390f35b610143600480360381019061013e9190611d5a565b6107c1565b005b61014d6108f0565b60405161015a9190611c99565b60405180910390f35b61016b610914565b6040516101789190611fcc565b60405180910390f35b61019b60048036038101906101969190612123565b6109d2565b6040516101a89190611c99565b60405180910390f35b6101cb60048036038101906101c6919061228c565b610a79565b6040516101d89190612389565b60405180910390f35b6101fb60048036038101906101f691906123a4565b610e55565b6040516102089190612633565b60405180910390f35b600080600160003373ffffffffffffffffffffffffffffffffffffffff1673ffffffffffffffffffffffffffffffffffffffff1681526020019081526020016000209050338160000160006101000a81548173ffffffffffffffffffffffffffffffffffffffff021916908373ffffffffffffffffffffffffffffffffffffffff160217905550604051806020016040528060008152508160010190805190602001906102bf9291906119cd565b50600160003373ffffffffffffffffffffffffffffffffffffffff1673ffffffffffffffffffffffffffffffffffffffff16815260200190815260200160002060000160009054906101000a900473ffffffffffffffffffffffffffffffffffffffff1691505090565b336000600260008373ffffffffffffffffffffffffffffffffffffffff1673ffffffffffffffffffffffffffffffffffffffff16815260200190815260200160002060030154136103af576040517f08c379a00000000000000000000000000000000000000000000000000000000081526004016103a6906126d8565b60405180910390fd5b61048682600260008573ffffffffffffffffffffffffffffffffffffffff1673ffffffffffffffffffffffffffffffffffffffff168152602001908152602001600020600101805461040090612727565b80601f016020809104026020016040519081016040528092919081815260200182805461042c90612727565b80156104795780601f1061044e57610100808354040283529160200191610479565b820191906000526020600020905b81548152906001019060200180831161045c57829003601f168201915b505050505060003361165d565b5050565b81338073ffffffffffffffffffffffffffffffffffffffff16600360008460030b60030b815260200190815260200160002060050160009054906101000a900473ffffffffffffffffffffffffffffffffffffffff1673ffffffffffffffffffffffffffffffffffffffff1614610536576040517f08c379a000000000000000000000000000000000000000000000000000000000815260040161052d906127ca565b60405180910390fd5b826000600260008373ffffffffffffffffffffffffffffffffffffffff1673ffffffffffffffffffffffffffffffffffffffff16815260200190815260200160002060030154136105bc576040517f08c379a00000000000000000000000000000000000000000000000000000000081526004016105b3906126d8565b60405180910390fd5b600360008660030b60030b8152602001908152602001600020600901849080600181540180825580915050600190039060005260206000200160009091909190916101000a81548173ffffffffffffffffffffffffffffffffffffffff021916908373ffffffffffffffffffffffffffffffffffffffff1602179055505050505050565b610648611a53565b600260008373ffffffffffffffffffffffffffffffffffffffff1673ffffffffffffffffffffffffffffffffffffffff1681526020019081526020016000206040518060a00160405290816000820160009054906101000a900460ff161515151581526020016001820180546106bd90612727565b80601f01602080910402602001604051908101604052809291908181526020018280546106e990612727565b80156107365780601f1061070b57610100808354040283529160200191610736565b820191906000526020600020905b81548152906001019060200180831161071957829003601f168201915b505050505081526020016002820160009054906101000a900460ff16151515158152602001600382015481526020016004820160009054906101000a900473ffffffffffffffffffffffffffffffffffffffff1673ffffffffffffffffffffffffffffffffffffffff1673ffffffffffffffffffffffffffffffffffffffff16815250509050919050565b81338073ffffffffffffffffffffffffffffffffffffffff16600360008460030b60030b815260200190815260200160002060050160009054906101000a900473ffffffffffffffffffffffffffffffffffffffff1673ffffffffffffffffffffffffffffffffffffffff161461086d576040517f08c379a0000000000000000000000000000000000000000000000000000000008152600401610864906127ca565b60405180910390fd5b600360008560030b60030b8152602001908152602001600020600901839080600181540180825580915050600190039060005260206000200160009091909190916101000a81548173ffffffffffffffffffffffffffffffffffffffff021916908373ffffffffffffffffffffffffffffffffffffffff16021790555050505050565b60008054906101000a900473ffffffffffffffffffffffffffffffffffffffff1681565b6060600160003373ffffffffffffffffffffffffffffffffffffffff1673ffffffffffffffffffffffffffffffffffffffff1681526020019081526020016000206002018054806020026020016040519081016040528092919081815260200182805480156109c857602002820191906000526020600020906000905b82829054906101000a900460030b60030b815260200190600401906020826003010492830192600103820291508084116109915790505b5050505050905090565b600080600260003373ffffffffffffffffffffffffffffffffffffffff1673ffffffffffffffffffffffffffffffffffffffff168152602001908152602001600020905060008160000160006101000a81548160ff02191690831515021790555082816001019080519060200190610a4b9291906119cd565b5060008160020160006101000a81548160ff0219169083151502179055506000816003018190555050919050565b600080601481819054906101000a900460030b80929190610a9990612819565b91906101000a81548163ffffffff021916908360030b63ffffffff160217905550506000600360008060149054906101000a900460030b60030b60030b81526020019081526020016000209050600060149054906101000a900460030b8160000160006101000a81548163ffffffff021916908360030b63ffffffff160217905550898160010181905550888160020181905550878160030181905550868160040160006101000a81548173ffffffffffffffffffffffffffffffffffffffff021916908373ffffffffffffffffffffffffffffffffffffffff160217905550858160050160006101000a81548173ffffffffffffffffffffffffffffffffffffffff021916908373ffffffffffffffffffffffffffffffffffffffff16021790555084816006019080519060200190610bd4929190611a9c565b50838160080160006101000a81548160ff02191690831515021790555060405180604001604052803373ffffffffffffffffffffffffffffffffffffffff1673ffffffffffffffffffffffffffffffffffffffff1681526020018773ffffffffffffffffffffffffffffffffffffffff1673ffffffffffffffffffffffffffffffffffffffff1681525081600901906002610c70929190611b26565b508281600a019080519060200190610c899291906119cd565b5060005b8551811015610d7c573373ffffffffffffffffffffffffffffffffffffffff16868281518110610cc057610cbf612845565b5b602002602001015173ffffffffffffffffffffffffffffffffffffffff1614610d29576001826007018281548110610cfb57610cfa612845565b5b90600052602060002090602091828204019190066101000a81548160ff021916908315150217905550610d6b565b6000826007018281548110610d4157610d40612845565b5b90600052602060002090602091828204019190066101000a81548160ff0219169083151502179055505b80610d759061287e565b9050610c8d565b50600160008773ffffffffffffffffffffffffffffffffffffffff1673ffffffffffffffffffffffffffffffffffffffff168152602001908152602001600020600201600060149054906101000a900460030b90806001815401808255809150506001900390600052602060002090600891828204019190066004029091909190916101000a81548163ffffffff021916908360030b63ffffffff160217905550610e36600060149054906101000a900460030b86611903565b600060149054906101000a900460030b91505098975050505050505050565b610e5d611bb0565b600360008360030b60030b815260200190815260200160002060080160009054906101000a900460ff16156111f357600360008060149054906101000a900460030b60030b60030b8152602001908152602001600020604051806101600160405290816000820160009054906101000a900460030b60030b60030b81526020016001820154815260200160028201548152602001600382015481526020016004820160009054906101000a900473ffffffffffffffffffffffffffffffffffffffff1673ffffffffffffffffffffffffffffffffffffffff1673ffffffffffffffffffffffffffffffffffffffff1681526020016005820160009054906101000a900473ffffffffffffffffffffffffffffffffffffffff1673ffffffffffffffffffffffffffffffffffffffff1673ffffffffffffffffffffffffffffffffffffffff1681526020016006820180548060200260200160405190810160405280929190818152602001828054801561102b57602002820191906000526020600020905b8160009054906101000a900473ffffffffffffffffffffffffffffffffffffffff1673ffffffffffffffffffffffffffffffffffffffff1681526020019060010190808311610fe1575b50505050508152602001600782018054806020026020016040519081016040528092919081815260200182805480156110a857602002820191906000526020600020906000905b82829054906101000a900460ff161515815260200190600101906020826000010492830192600103820291508084116110725790505b505050505081526020016008820160009054906101000a900460ff161515151581526020016009820180548060200260200160405190810160405280929190818152602001828054801561115157602002820191906000526020600020905b8160009054906101000a900473ffffffffffffffffffffffffffffffffffffffff1673ffffffffffffffffffffffffffffffffffffffff1681526020019060010190808311611107575b50505050508152602001600a8201805461116a90612727565b80601f016020809104026020016040519081016040528092919081815260200182805461119690612727565b80156111e35780601f106111b8576101008083540402835291602001916111e3565b820191906000526020600020905b8154815290600101906020018083116111c657829003601f168201915b5050505050815250509050611658565b60005b600360008460030b60030b815260200190815260200160002060090180549050811015611615573373ffffffffffffffffffffffffffffffffffffffff16600360008560030b60030b8152602001908152602001600020600901828154811061126257611261612845565b5b9060005260206000200160009054906101000a900473ffffffffffffffffffffffffffffffffffffffff1673ffffffffffffffffffffffffffffffffffffffff160361160257600360008460030b60030b8152602001908152602001600020604051806101600160405290816000820160009054906101000a900460030b60030b60030b81526020016001820154815260200160028201548152602001600382015481526020016004820160009054906101000a900473ffffffffffffffffffffffffffffffffffffffff1673ffffffffffffffffffffffffffffffffffffffff1673ffffffffffffffffffffffffffffffffffffffff1681526020016005820160009054906101000a900473ffffffffffffffffffffffffffffffffffffffff1673ffffffffffffffffffffffffffffffffffffffff1673ffffffffffffffffffffffffffffffffffffffff1681526020016006820180548060200260200160405190810160405280929190818152602001828054801561143957602002820191906000526020600020905b8160009054906101000a900473ffffffffffffffffffffffffffffffffffffffff1673ffffffffffffffffffffffffffffffffffffffff16815260200190600101908083116113ef575b50505050508152602001600782018054806020026020016040519081016040528092919081815260200182805480156114b657602002820191906000526020600020906000905b82829054906101000a900460ff161515815260200190600101906020826000010492830192600103820291508084116114805790505b505050505081526020016008820160009054906101000a900460ff161515151581526020016009820180548060200260200160405190810160405280929190818152602001828054801561155f57602002820191906000526020600020905b8160009054906101000a900473ffffffffffffffffffffffffffffffffffffffff1673ffffffffffffffffffffffffffffffffffffffff1681526020019060010190808311611515575b50505050508152602001600a8201805461157890612727565b80601f01602080910402602001604051908101604052809291908181526020018280546115a490612727565b80156115f15780601f106115c6576101008083540402835291602001916115f1565b820191906000526020600020905b8154815290600101906020018083116115d457829003601f168201915b505050505081525050915050611658565b808061160d9061287e565b9150506111f6565b506000611657576040517f08c379a000000000000000000000000000000000000000000000000000000000815260040161164e90612938565b60405180910390fd5b5b919050565b81156117c25760006040518060a001604052806001151581526020018581526020016001151581526020016001815260200160008054906101000a900473ffffffffffffffffffffffffffffffffffffffff1673ffffffffffffffffffffffffffffffffffffffff16815250905080600260008773ffffffffffffffffffffffffffffffffffffffff1673ffffffffffffffffffffffffffffffffffffffff16815260200190815260200160002060008201518160000160006101000a81548160ff02191690831515021790555060208201518160010190805190602001906117479291906119cd565b5060408201518160020160006101000a81548160ff0219169083151502179055506060820151816003015560808201518160040160006101000a81548173ffffffffffffffffffffffffffffffffffffffff021916908373ffffffffffffffffffffffffffffffffffffffff160217905550905050506118fd565b60006040518060a00160405280600115158152602001858152602001600015158152602001600181526020018373ffffffffffffffffffffffffffffffffffffffff16815250905080600260008773ffffffffffffffffffffffffffffffffffffffff1673ffffffffffffffffffffffffffffffffffffffff16815260200190815260200160002060008201518160000160006101000a81548160ff02191690831515021790555060208201518160010190805190602001906118869291906119cd565b5060408201518160020160006101000a81548160ff0219169083151502179055506060820151816003015560808201518160040160006101000a81548173ffffffffffffffffffffffffffffffffffffffff021916908373ffffffffffffffffffffffffffffffffffffffff160217905550905050505b50505050565b60005b81518110156119c8576004600083838151811061192657611925612845565b5b602002602001015173ffffffffffffffffffffffffffffffffffffffff1673ffffffffffffffffffffffffffffffffffffffff1681526020019081526020016000208390806001815401808255809150506001900390600052602060002090600891828204019190066004029091909190916101000a81548163ffffffff021916908360030b63ffffffff160217905550806119c19061287e565b9050611906565b505050565b8280546119d990612727565b90600052602060002090601f0160209004810192826119fb5760008555611a42565b82601f10611a1457805160ff1916838001178555611a42565b82800160010185558215611a42579182015b82811115611a41578251825591602001919060010190611a26565b5b509050611a4f9190611c3b565b5090565b6040518060a001604052806000151581526020016060815260200160001515815260200160008152602001600073ffffffffffffffffffffffffffffffffffffffff1681525090565b828054828255906000526020600020908101928215611b15579160200282015b82811115611b145782518260006101000a81548173ffffffffffffffffffffffffffffffffffffffff021916908373ffffffffffffffffffffffffffffffffffffffff16021790555091602001919060010190611abc565b5b509050611b229190611c3b565b5090565b828054828255906000526020600020908101928215611b9f579160200282015b82811115611b9e5782518260006101000a81548173ffffffffffffffffffffffffffffffffffffffff021916908373ffffffffffffffffffffffffffffffffffffffff16021790555091602001919060010190611b46565b5b509050611bac9190611c3b565b5090565b604051806101600160405280600060030b8152602001600081526020016000815260200160008152602001600073ffffffffffffffffffffffffffffffffffffffff168152602001600073ffffffffffffffffffffffffffffffffffffffff168152602001606081526020016060815260200160001515815260200160608152602001606081525090565b5b80821115611c54576000816000905550600101611c3c565b5090565b600073ffffffffffffffffffffffffffffffffffffffff82169050919050565b6000611c8382611c58565b9050919050565b611c9381611c78565b82525050565b6000602082019050611cae6000830184611c8a565b92915050565b6000604051905090565b600080fd5b600080fd5b611cd181611c78565b8114611cdc57600080fd5b50565b600081359050611cee81611cc8565b92915050565b600060208284031215611d0a57611d09611cbe565b5b6000611d1884828501611cdf565b91505092915050565b60008160030b9050919050565b611d3781611d21565b8114611d4257600080fd5b50565b600081359050611d5481611d2e565b92915050565b60008060408385031215611d7157611d70611cbe565b5b6000611d7f85828601611d45565b9250506020611d9085828601611cdf565b9150509250929050565b60008115159050919050565b611daf81611d9a565b82525050565b600081519050919050565b600082825260208201905092915050565b60005b83811015611def578082015181840152602081019050611dd4565b83811115611dfe576000848401525b50505050565b6000601f19601f8301169050919050565b6000611e2082611db5565b611e2a8185611dc0565b9350611e3a818560208601611dd1565b611e4381611e04565b840191505092915050565b6000819050919050565b611e6181611e4e565b82525050565b611e7081611c78565b82525050565b600060a083016000830151611e8e6000860182611da6565b5060208301518482036020860152611ea68282611e15565b9150506040830151611ebb6040860182611da6565b506060830151611ece6060860182611e58565b506080830151611ee16080860182611e67565b508091505092915050565b60006020820190508181036000830152611f068184611e76565b905092915050565b600081519050919050565b600082825260208201905092915050565b6000819050602082019050919050565b611f4381611d21565b82525050565b6000611f558383611f3a565b60208301905092915050565b6000602082019050919050565b6000611f7982611f0e565b611f838185611f19565b9350611f8e83611f2a565b8060005b83811015611fbf578151611fa68882611f49565b9750611fb183611f61565b925050600181019050611f92565b5085935050505092915050565b60006020820190508181036000830152611fe68184611f6e565b905092915050565b600080fd5b600080fd5b7f4e487b7100000000000000000000000000000000000000000000000000000000600052604160045260246000fd5b61203082611e04565b810181811067ffffffffffffffff8211171561204f5761204e611ff8565b5b80604052505050565b6000612062611cb4565b905061206e8282612027565b919050565b600067ffffffffffffffff82111561208e5761208d611ff8565b5b61209782611e04565b9050602081019050919050565b82818337600083830152505050565b60006120c66120c184612073565b612058565b9050828152602081018484840111156120e2576120e1611ff3565b5b6120ed8482856120a4565b509392505050565b600082601f83011261210a57612109611fee565b5b813561211a8482602086016120b3565b91505092915050565b60006020828403121561213957612138611cbe565b5b600082013567ffffffffffffffff81111561215757612156611cc3565b5b612163848285016120f5565b91505092915050565b61217581611e4e565b811461218057600080fd5b50565b6000813590506121928161216c565b92915050565b600067ffffffffffffffff8211156121b3576121b2611ff8565b5b602082029050602081019050919050565b600080fd5b60006121dc6121d784612198565b612058565b905080838252602082019050602084028301858111156121ff576121fe6121c4565b5b835b8181101561222857806122148882611cdf565b845260208401935050602081019050612201565b5050509392505050565b600082601f83011261224757612246611fee565b5b81356122578482602086016121c9565b91505092915050565b61226981611d9a565b811461227457600080fd5b50565b60008135905061228681612260565b92915050565b600080600080600080600080610100898b0312156122ad576122ac611cbe565b5b60006122bb8b828c01612183565b98505060206122cc8b828c01612183565b97505060406122dd8b828c01612183565b96505060606122ee8b828c01611cdf565b95505060806122ff8b828c01611cdf565b94505060a089013567ffffffffffffffff8111156123205761231f611cc3565b5b61232c8b828c01612232565b93505060c061233d8b828c01612277565b92505060e089013567ffffffffffffffff81111561235e5761235d611cc3565b5b61236a8b828c016120f5565b9150509295985092959890939650565b61238381611d21565b82525050565b600060208201905061239e600083018461237a565b92915050565b6000602082840312156123ba576123b9611cbe565b5b60006123c884828501611d45565b91505092915050565b600081519050919050565b600082825260208201905092915050565b6000819050602082019050919050565b60006124098383611e67565b60208301905092915050565b6000602082019050919050565b600061242d826123d1565b61243781856123dc565b9350612442836123ed565b8060005b8381101561247357815161245a88826123fd565b975061246583612415565b925050600181019050612446565b5085935050505092915050565b600081519050919050565b600082825260208201905092915050565b6000819050602082019050919050565b60006124b88383611da6565b60208301905092915050565b6000602082019050919050565b60006124dc82612480565b6124e6818561248b565b93506124f18361249c565b8060005b8381101561252257815161250988826124ac565b9750612514836124c4565b9250506001810190506124f5565b5085935050505092915050565b6000610160830160008301516125486000860182611f3a565b50602083015161255b6020860182611e58565b50604083015161256e6040860182611e58565b5060608301516125816060860182611e58565b5060808301516125946080860182611e67565b5060a08301516125a760a0860182611e67565b5060c083015184820360c08601526125bf8282612422565b91505060e083015184820360e08601526125d982826124d1565b9150506101008301516125f0610100860182611da6565b5061012083015184820361012086015261260a8282612422565b9150506101408301518482036101408601526126268282611e15565b9150508091505092915050565b6000602082019050818103600083015261264d818461252f565b905092915050565b600082825260208201905092915050565b7f4e6f742072657175657374656420766572696669636174696f6e206279204d6160008201527f696e4e6f64650000000000000000000000000000000000000000000000000000602082015250565b60006126c2602683612655565b91506126cd82612666565b604082019050919050565b600060208201905081810360008301526126f1816126b5565b9050919050565b7f4e487b7100000000000000000000000000000000000000000000000000000000600052602260045260246000fd5b6000600282049050600182168061273f57607f821691505b602082108103612752576127516126f8565b5b50919050565b7f596f7520617265206e6f7420746865206f776e6572206f66207468697320636560008201527f7274696669636174650000000000000000000000000000000000000000000000602082015250565b60006127b4602983612655565b91506127bf82612758565b604082019050919050565b600060208201905081810360008301526127e3816127a7565b9050919050565b7f4e487b7100000000000000000000000000000000000000000000000000000000600052601160045260246000fd5b600061282482611d21565b9150637fffffff820361283a576128396127ea565b5b600182019050919050565b7f4e487b7100000000000000000000000000000000000000000000000000000000600052603260045260246000fd5b6000819050919050565b600061288982612874565b91507fffffffffffffffffffffffffffffffffffffffffffffffffffffffffffffffff82036128bb576128ba6127ea565b5b600182019050919050565b7f596f7520646f206e6f7420686176652061636365737320746f2074686973206360008201527f6572746966696361746500000000000000000000000000000000000000000000602082015250565b6000612922602a83612655565b915061292d826128c6565b604082019050919050565b6000602082019050818103600083015261295181612915565b905091905056fea2646970667358221220e3db0cfd06b8d5915f6f7fbfaee1f3c6bf3cfe73788f35d5d00b8583b2c1c10a64736f6c634300080d0033",
  "immutableReferences": {},
  "source": "// SPDX-License-Identifier: MIT \r\npragma solidity >=0.7.0 <0.9.0;\r\n\r\ncontract Guide {\r\n\r\n    address public owner;\r\n    int32 certId;\r\n    // uint public last_completed_migration;\r\n\r\n    \r\n    struct User{\r\n\r\n        address userAddress;\r\n        string userName;\r\n        int32[] certifatesIds;\r\n    }\r\n\r\n    struct Certificate{        \r\n        int32 certificateId;\r\n        int certType;\r\n        int256 dateIssue;\r\n        int256 dateExpire;\r\n        address issuer;\r\n        address issedAgainst;\r\n        address[] taggedInstutions;\r\n        bool [] taggeInstitutionApproved;\r\n        bool isPublic;\r\n        address[] accessGranted;\r\n        string data;\r\n\r\n    }\r\n\r\n    struct Institution{    \r\n        bool isVerified;\r\n        string institutionType;\r\n        bool mainInstitution;\r\n        int typeInt;\r\n        address verifier;\r\n    }\r\n\r\n    mapping (address=>User) userProfiles;\r\n    mapping(address=>Institution) institutionProfile;  \r\n    mapping(int32=>Certificate) certificates;  \r\n    \r\n    mapping(address => int32[]) certTagRequest;         \r\n\r\n    constructor(address[] memory mainNodeAddress,string[] memory institutionType) public {\r\n        certId=0;\r\n        owner = msg.sender;\r\n      \r\n        for (uint256 i = 0; i < mainNodeAddress.length; ++i) {\r\n             _grantVerification(mainNodeAddress[i],institutionType[i],true,owner);\r\n        }\r\n    }\r\n\r\n\r\n    // modifier to check if certificate is of the requester\r\n    modifier ownerOfCertificate(int32 _certificateId,address msgSender) {\r\n        require(certificates[_certificateId].issedAgainst == msgSender,\"You are not the owner of this certificate\");\r\n        _;\r\n    }\r\n    \r\n\r\n// modifier to restrict restrict institution only events    \r\n    modifier restrictInstitutionOnly(address _institutionAddress) {\r\n        require(\r\n            institutionProfile[_institutionAddress].typeInt >0,\r\n            \"Not requested verification by MainNode\"\r\n        );\r\n        _;\r\n    }\r\n    \r\n    // Register User profile with the system\r\n    function  RegisterUser()public returns(address) {\r\n\r\n      User storage newUser = userProfiles[msg.sender];\r\n        newUser.userAddress = msg.sender;\r\n        newUser.userName = \"\";  \r\n        \r\n        return userProfiles[msg.sender].userAddress;\r\n\r\n    }\r\n\r\n\r\n    // Register Institution with address\r\n    // Institution not verified first\r\n    // Institution type is not main node\r\n    function  RegisterInstitution(string  memory institutionType)public returns(address) {\r\n\r\n      Institution storage newIns = institutionProfile[msg.sender];\r\n    \r\n        newIns.isVerified = false;\r\n        newIns.institutionType = institutionType;\r\n        newIns.mainInstitution = false;\r\n        newIns.typeInt = 0;\r\n        // newIns.verifier = ;\r\n  \r\n\r\n    }\r\n\r\n\r\n// give access to different institution to access certificate\r\n// add modifier to confirm its institution\r\nfunction grantCertificateAccessInstitution(int32 _certificateId,address _institutionAddress)public ownerOfCertificate(_certificateId,msg.sender)restrictInstitutionOnly(_institutionAddress){ \r\n    certificates[_certificateId].accessGranted.push(_institutionAddress);\r\n}\r\n\r\n\r\n\r\n    // publish cer to mapping\r\n    // send requstt to tagged institutions\r\n    function publishCertificate(int certType,int256 dateIssue,int256 dateExpire,address issuer,address issedAgainst,address[] memory taggedInstutions,bool isPublic,string memory data)  public returns(int32) {\r\n        \r\n        // int32 certId=0;\r\n        certId++;\r\n\r\n        Certificate storage newCert = certificates[certId];\r\n        newCert.certificateId = certId;\r\n            newCert.certType = certType;\r\n            newCert.dateIssue = dateIssue;\r\n            newCert.dateExpire = dateExpire;\r\n            newCert.issuer = issuer;\r\n            newCert.issedAgainst = issedAgainst;\r\n            newCert.taggedInstutions = taggedInstutions;\r\n            newCert.isPublic = isPublic;\r\n            newCert.accessGranted = [msg.sender,issedAgainst];\r\n            newCert.data = data;\r\n            \r\n        //  making all approvals false\r\n        // TODO all false except institutionitself\r\n        for(uint256 i = 0; i < taggedInstutions.length; ++i){\r\n            if(taggedInstutions[i] != msg.sender){\r\n                newCert.taggeInstitutionApproved[i] = true;\r\n                continue;\r\n            }\r\n            newCert.taggeInstitutionApproved[i] = false;\r\n        }\r\n\r\n        userProfiles[issedAgainst].certifatesIds.push(certId);\r\n        requestCertTagVerification(certId,taggedInstutions);\r\n\r\n\r\n        // certificates[certId] = cert;\r\n        return certId;\r\n    }\r\n\r\n    // Requests Tagged Institutions verifies the certificates\r\n    function requestCertTagVerification(int32  requestedCertId,address[] memory instAddress) internal {\r\n        for (uint256 i = 0; i < instAddress.length; ++i) {\r\n            certTagRequest[instAddress[i]].push(requestedCertId);\r\n        }\r\n\r\n    }\r\n   \r\n    function GrantVerification(address issedAgainst)external restrictInstitutionOnly(msg.sender){   \r\n\r\n        _grantVerification(issedAgainst,institutionProfile[issedAgainst].institutionType,false,msg.sender);\r\n       \r\n\r\n    }        \r\n\r\n    // verified a node as a main node\r\n    function _grantVerification(address  account, string memory role,bool firstNode,address issuer) internal{\r\n        \r\n    //  emit GrantRole(_role,_account);\r\n    if(firstNode){\r\n\r\n    Institution memory book2= Institution(true,role,true,1,owner);\r\n    institutionProfile[account]=book2;\r\n    }\r\n    else{\r\n        Institution memory book2= Institution(true,role,false,1,issuer);\r\n        institutionProfile[account]=book2;\r\n    }\r\n    }\r\n\r\n     function getRole(address account) public view returns (Institution memory){\r\n    \r\n        // return institutionProfile[account].isVerified? \"verified\" : \"not verified\";\r\n        return institutionProfile[account];\r\n\r\n    }\r\n\r\n    // access granting for a certificate\r\n    // grant access if the certificate is issued to the function caller \r\n    function grantCertificateaccess(int32 certificateId,address account) public ownerOfCertificate(certificateId,msg.sender){\r\n\r\n\r\n        certificates[certificateId].accessGranted.push(account);\r\n      \r\n    }\r\n    \r\n    // return certifactes if the certificate is given access to be viewed;\r\n    function getCertificate(int32 certIdCurrent) public  view returns (Certificate memory){\r\n\r\n        // !TODO create access control dont just return all certificates\r\n        // current implementation of looping and searching high on gas\r\n\r\n        // certificates[certId].accessGranted.push(msg.sender);\r\n        if(certificates[certIdCurrent].isPublic){\r\n            return certificates[certId];\r\n        }\r\n        else\r\n        {  for (uint i; i < certificates[certIdCurrent].accessGranted.length; i++) {\r\n            if(certificates[certIdCurrent].accessGranted[i]==msg.sender){\r\n                return certificates[certIdCurrent];\r\n            }\r\n\r\n        }       \r\n        }\r\n         require(false,\"You do not have access to this certificate\");\r\n\r\n\r\n        // return certificates[certId];\r\n    }\r\n\r\n    function getCurrentUserCertificateIDs() public view returns(int32[] memory){\r\n        return userProfiles[msg.sender].certifatesIds;    \r\n        }\r\n    \r\n    modifier restrictedOwner() {\r\n        require(\r\n            msg.sender == owner,\r\n            \"This function is restricted to the contract's owner\"\r\n        );\r\n        _;\r\n    }\r\n\r\n  \r\n}\r\n",
  "sourcePath": "D:\\cp\\blockchain\\courseStuff\\blockchain\\faucet\\contracts\\GUID.sol",
  "compiler": {
    "name": "solc",
    "version": "0.8.13+commit.abaa5c0e.Emscripten.clang"
  },
  "schemaVersion": "3.4.6",
  "updatedAt": "2022-04-23T21:40:46.104Z",
  "devdoc": {
    "kind": "dev",
    "methods": {},
    "version": 1
  },
  "userdoc": {
    "kind": "user",
    "methods": {},
    "version": 1
  }
}